8=FIX.4.4|9=71|35=A|34=1|49=CLIENT_X|52=20230405-19:49:48.630|56=SERVER_A|98=0|108=20|10=246|8=FIX.4.4|9=168|35=D|34=2|49=CLIENT_X|52=20230405-19:50:07.676|56=SERVER_A|1=123|11=751186e3-b356-4524-bc5d-4c6a6c6934fd|38=100|40=1|44=25|54=1|55=PETR4|60=20230405-16:50:07.673|453=0|10=192|8=FIX.4.4|9=108|35=3|34=3|49=CLIENT_X|52=20230405-19:50:07.708|56=SERVER_A|45=2|58=Required tag missing|371=453|372=8|373=1|10=202|8=FIX.4.4|9=68|35=1|34=4|49=CLIENT_X|52=20230405-19:50:13.764|56=SERVER_A|112=TEST|10=225|8=FIX.4.4|9=59|35=0|34=5|49=CLIENT_X|52=20230405-19:50:34.008|56=SERVER_A|10=201|8=FIX.4.4|9=59|35=0|34=6|49=CLIENT_X|52=20230405-19:50:54.194|56=SERVER_A|10=210|8=FIX.4.4|9=59|35=0|34=7|49=CLIENT_X|52=20230405-19:51:14.358|56=SERVER_A|10=210|8=FIX.4.4|9=59|35=0|34=8|49=CLIENT_X|52=20230405-19:51:34.527|56=SERVER_A|10=211|8=FIX.4.4|9=71|35=A|34=9|49=CLIENT_X|52=20230405-19:52:03.267|56=SERVER_A|98=0|108=20|10=245|8=FIX.4.4|9=169|35=D|34=10|49=CLIENT_X|52=20230405-19:52:07.556|56=SERVER_A|1=123|11=b57a25c6-275b-4e91-9d84-06ca0267304a|38=100|40=1|44=25|54=1|55=PETR4|60=20230405-16:52:07.554|453=0|10=179|8=FIX.4.4|9=109|35=3|34=11|49=CLIENT_X|52=20230405-19:52:07.582|56=SERVER_A|45=9|58=Required tag missing|371=453|372=8|373=1|10=003|8=FIX.4.4|9=69|35=1|34=12|49=CLIENT_X|52=20230405-19:52:27.750|56=SERVER_A|112=TEST|10=019|8=FIX.4.4|9=60|35=0|34=13|49=CLIENT_X|52=20230405-19:52:48.430|56=SERVER_A|10=246|8=FIX.4.4|9=60|35=0|34=14|49=CLIENT_X|52=20230405-19:53:08.633|56=SERVER_A|10=249|8=FIX.4.4|9=60|35=0|34=15|49=CLIENT_X|52=20230405-19:53:28.830|56=SERVER_A|10=251|8=FIX.4.4|9=72|35=A|34=16|49=CLIENT_X|52=20230405-19:54:04.577|56=SERVER_A|98=0|108=20|10=043|8=FIX.4.4|9=169|35=D|34=17|49=CLIENT_X|52=20230405-19:54:10.697|56=SERVER_A|1=123|11=9d03aa9b-30de-4fef-b5c6-b2edfd9c5fc4|38=100|40=1|44=25|54=1|55=PETR4|60=20230405-16:54:10.694|453=0|10=164|8=FIX.4.4|9=60|35=0|34=18|49=CLIENT_X|52=20230405-19:54:30.910|56=SERVER_A|10=247|8=FIX.4.4|9=60|35=0|34=19|49=CLIENT_X|52=20230405-19:54:51.093|56=SERVER_A|10=253|8=FIX.4.4|9=60|35=0|34=20|49=CLIENT_X|52=20230405-19:55:11.268|56=SERVER_A|10=246|8=FIX.4.4|9=60|35=0|34=21|49=CLIENT_X|52=20230405-19:55:31.447|56=SERVER_A|10=248|8=FIX.4.4|9=60|35=0|34=22|49=CLIENT_X|52=20230405-19:55:51.632|56=SERVER_A|10=247|8=FIX.4.4|9=60|35=0|34=23|49=CLIENT_X|52=20230405-19:56:11.819|56=SERVER_A|10=252|8=FIX.4.4|9=60|35=0|34=24|49=CLIENT_X|52=20230405-19:56:31.987|56=SERVER_A|10=005|8=FIX.4.4|9=60|35=0|34=25|49=CLIENT_X|52=20230405-19:56:52.159|56=SERVER_A|10=000|8=FIX.4.4|9=60|35=0|34=26|49=CLIENT_X|52=20230405-19:57:12.345|56=SERVER_A|10=251|8=FIX.4.4|9=60|35=0|34=27|49=CLIENT_X|52=20230405-19:57:32.524|56=SERVER_A|10=253|8=FIX.4.4|9=60|35=0|34=28|49=CLIENT_X|52=20230405-19:57:52.728|56=SERVER_A|10=006|8=FIX.4.4|9=72|35=A|34=29|49=CLIENT_X|52=20230405-19:57:59.486|56=SERVER_A|98=0|108=20|10=059|8=FIX.4.4|9=72|35=A|34=30|49=CLIENT_X|52=20230405-19:58:41.746|56=SERVER_A|98=0|108=20|10=042|8=FIX.4.4|9=72|35=A|34=31|49=CLIENT_X|52=20230405-19:59:05.666|56=SERVER_A|98=0|108=20|10=045|8=FIX.4.4|9=169|35=D|34=32|49=CLIENT_X|52=20230405-19:59:19.000|56=SERVER_A|1=123|11=7fa2a7cf-7a71-4ea4-af61-464a82062164|38=100|40=1|44=25|54=1|55=PETR4|60=20230405-16:59:18.996|453=0|10=033|8=FIX.4.4|9=60|35=0|34=33|49=CLIENT_X|52=20230405-19:59:39.211|56=SERVER_A|10=252|8=FIX.4.4|9=60|35=0|34=34|49=CLIENT_X|52=20230405-19:59:59.392|56=SERVER_A|10=009|8=FIX.4.4|9=60|35=0|34=35|49=CLIENT_X|52=20230405-20:00:19.556|56=SERVER_A|10=242|8=FIX.4.4|9=60|35=0|34=36|49=CLIENT_X|52=20230405-20:00:39.768|56=SERVER_A|10=250|8=FIX.4.4|9=60|35=0|34=37|49=CLIENT_X|52=20230405-20:00:59.933|56=SERVER_A|10=247|8=FIX.4.4|9=60|35=0|34=38|49=CLIENT_X|52=20230405-20:01:20.069|56=SERVER_A|10=237|8=FIX.4.4|9=60|35=0|34=39|49=CLIENT_X|52=20230405-20:01:40.260|56=SERVER_A|10=233|8=FIX.4.4|9=60|35=0|34=40|49=CLIENT_X|52=20230405-20:02:00.446|56=SERVER_A|10=228|8=FIX.4.4|9=60|35=0|34=41|49=CLIENT_X|52=20230405-20:02:20.636|56=SERVER_A|10=232|8=FIX.4.4|9=60|35=0|34=42|49=CLIENT_X|52=20230405-20:02:40.818|56=SERVER_A|10=237|8=FIX.4.4|9=60|35=0|34=43|49=CLIENT_X|52=20230405-20:03:00.968|56=SERVER_A|10=241|8=FIX.4.4|9=60|35=0|34=44|49=CLIENT_X|52=20230405-20:03:21.113|56=SERVER_A|10=227|8=FIX.4.4|9=60|35=0|34=45|49=CLIENT_X|52=20230405-20:03:41.305|56=SERVER_A|10=233|8=FIX.4.4|9=60|35=0|34=46|49=CLIENT_X|52=20230405-20:04:01.479|56=SERVER_A|10=243|8=FIX.4.4|9=60|35=0|34=47|49=CLIENT_X|52=20230405-20:04:21.660|56=SERVER_A|10=238|8=FIX.4.4|9=60|35=0|34=48|49=CLIENT_X|52=20230405-20:04:41.846|56=SERVER_A|10=247|8=FIX.4.4|9=60|35=0|34=49|49=CLIENT_X|52=20230405-20:05:02.046|56=SERVER_A|10=238|8=FIX.4.4|9=72|35=A|34=50|49=CLIENT_X|52=20230405-20:10:01.495|56=SERVER_A|98=0|108=20|10=021|8=FIX.4.4|9=134|35=D|34=51|49=CLIENT_X|52=20230405-20:10:20.912|56=SERVER_A|1=123|11=1|38=100|40=1|44=25|54=1|55=PETR4|60=20230405-17:10:20.910|453=0|10=220|8=FIX.4.4|9=134|35=D|34=52|49=CLIENT_X|52=20230405-20:10:20.914|56=SERVER_A|1=123|11=2|38=100|40=1|44=25|54=1|55=PETR4|60=20230405-17:10:20.910|453=0|10=224|8=FIX.4.4|9=134|35=D|34=53|49=CLIENT_X|52=20230405-20:10:20.915|56=SERVER_A|1=123|11=3|38=100|40=1|44=25|54=1|55=PETR4|60=20230405-17:10:20.910|453=0|10=227|8=FIX.4.4|9=134|35=D|34=54|49=CLIENT_X|52=20230405-20:10:20.916|56=SERVER_A|1=123|11=4|38=100|40=1|44=25|54=1|55=PETR4|60=20230405-17:10:20.910|453=0|10=230|8=FIX.4.4|9=134|35=D|34=55|49=CLIENT_X|52=20230405-20:10:20.916|56=SERVER_A|1=123|11=5|38=100|40=1|44=25|54=1|55=PETR4|60=20230405-17:10:20.910|453=0|10=232|8=FIX.4.4|9=134|35=D|34=56|49=CLIENT_X|52=20230405-20:10:20.917|56=SERVER_A|1=123|11=6|38=100|40=1|44=25|54=1|55=PETR4|60=20230405-17:10:20.910|453=0|10=235|8=FIX.4.4|9=134|35=D|34=57|49=CLIENT_X|52=20230405-20:10:20.918|56=SERVER_A|1=123|11=7|38=100|40=1|44=25|54=1|55=PETR4|60=20230405-17:10:20.910|453=0|10=238|8=FIX.4.4|9=134|35=D|34=58|49=CLIENT_X|52=20230405-20:10:20.919|56=SERVER_A|1=123|11=8|38=100|40=1|44=25|54=1|55=PETR4|60=20230405-17:10:20.910|453=0|10=241|8=FIX.4.4|9=134|35=D|34=59|49=CLIENT_X|52=20230405-20:10:20.919|56=SERVER_A|1=123|11=9|38=100|40=1|44=25|54=1|55=PETR4|60=20230405-17:10:20.910|453=0|10=243|8=FIX.4.4|9=135|35=D|34=60|49=CLIENT_X|52=20230405-20:10:20.920|56=SERVER_A|1=123|11=10|38=100|40=1|44=25|54=1|55=PETR4|60=20230405-17:10:20.910|453=0|10=012|8=FIX.4.4|9=60|35=0|34=61|49=CLIENT_X|52=20230405-20:10:41.140|56=SERVER_A|10=226|8=FIX.4.4|9=60|35=0|34=62|49=CLIENT_X|52=20230405-20:11:01.329|56=SERVER_A|10=233|8=FIX.4.4|9=60|35=0|34=63|49=CLIENT_X|52=20230405-20:11:21.490|56=SERVER_A|10=235|8=FIX.4.4|9=60|35=0|34=64|49=CLIENT_X|52=20230405-20:11:41.685|56=SERVER_A|10=244|8=FIX.4.4|9=60|35=0|34=65|49=CLIENT_X|52=20230405-20:12:01.898|56=SERVER_A|10=248|8=FIX.4.4|9=60|35=0|34=66|49=CLIENT_X|52=20230405-20:12:22.074|56=SERVER_A|10=238|8=FIX.4.4|9=60|35=0|34=67|49=CLIENT_X|52=20230405-20:12:42.258|56=SERVER_A|10=245|8=FIX.4.4|9=60|35=0|34=68|49=CLIENT_X|52=20230405-20:13:02.439|56=SERVER_A|10=244|8=FIX.4.4|9=72|35=A|34=69|49=CLIENT_X|52=20230405-20:13:26.079|56=SERVER_A|98=0|108=20|10=039|8=FIX.4.4|9=60|35=0|34=70|49=CLIENT_X|52=20230405-20:13:46.424|56=SERVER_A|10=239|8=FIX.4.4|9=169|35=D|34=71|49=CLIENT_X|52=20230405-20:13:47.427|56=SERVER_A|1=123|11=06715a18-61ee-4c94-8fe4-ce4a90631f55|38=100|40=1|44=25|54=1|55=PETR4|60=20230405-17:13:47.424|453=0|10=235|8=FIX.4.4|9=134|35=D|34=72|49=CLIENT_X|52=20230405-20:14:02.121|56=SERVER_A|1=123|11=1|38=100|40=1|44=25|54=1|55=PETR4|60=20230405-17:14:02.121|453=0|10=217|8=FIX.4.4|9=134|35=D|34=73|49=CLIENT_X|52=20230405-20:14:02.122|56=SERVER_A|1=123|11=2|38=100|40=1|44=25|54=1|55=PETR4|60=20230405-17:14:02.121|453=0|10=220|8=FIX.4.4|9=134|35=D|34=74|49=CLIENT_X|52=20230405-20:14:02.123|56=SERVER_A|1=123|11=3|38=100|40=1|44=25|54=1|55=PETR4|60=20230405-17:14:02.121|453=0|10=223|8=FIX.4.4|9=134|35=D|34=75|49=CLIENT_X|52=20230405-20:14:02.124|56=SERVER_A|1=123|11=4|38=100|40=1|44=25|54=1|55=PETR4|60=20230405-17:14:02.121|453=0|10=226|8=FIX.4.4|9=134|35=D|34=76|49=CLIENT_X|52=20230405-20:14:02.125|56=SERVER_A|1=123|11=5|38=100|40=1|44=25|54=1|55=PETR4|60=20230405-17:14:02.121|453=0|10=229|8=FIX.4.4|9=134|35=D|34=77|49=CLIENT_X|52=20230405-20:14:02.125|56=SERVER_A|1=123|11=6|38=100|40=1|44=25|54=1|55=PETR4|60=20230405-17:14:02.121|453=0|10=231|8=FIX.4.4|9=134|35=D|34=78|49=CLIENT_X|52=20230405-20:14:02.126|56=SERVER_A|1=123|11=7|38=100|40=1|44=25|54=1|55=PETR4|60=20230405-17:14:02.121|453=0|10=234|8=FIX.4.4|9=134|35=D|34=79|49=CLIENT_X|52=20230405-20:14:02.127|56=SERVER_A|1=123|11=8|38=100|40=1|44=25|54=1|55=PETR4|60=20230405-17:14:02.121|453=0|10=237|8=FIX.4.4|9=134|35=D|34=80|49=CLIENT_X|52=20230405-20:14:02.128|56=SERVER_A|1=123|11=9|38=100|40=1|44=25|54=1|55=PETR4|60=20230405-17:14:02.121|453=0|10=231|8=FIX.4.4|9=135|35=D|34=81|49=CLIENT_X|52=20230405-20:14:02.129|56=SERVER_A|1=123|11=10|38=100|40=1|44=25|54=1|55=PETR4|60=20230405-17:14:02.121|453=0|10=018|8=FIX.4.4|9=60|35=0|34=82|49=CLIENT_X|52=20230405-20:14:22.333|56=SERVER_A|10=236|8=FIX.4.4|9=60|35=0|34=83|49=CLIENT_X|52=20230405-20:14:42.523|56=SERVER_A|10=240|8=FIX.4.4|9=134|35=D|34=84|49=CLIENT_X|52=20230405-20:15:02.352|56=SERVER_A|1=123|11=1|38=100|40=1|44=25|54=1|55=PETR4|60=20230405-17:15:02.352|453=0|10=234|8=FIX.4.4|9=134|35=D|34=85|49=CLIENT_X|52=20230405-20:15:02.353|56=SERVER_A|1=123|11=2|38=100|40=1|44=25|54=1|55=PETR4|60=20230405-17:15:02.352|453=0|10=237|8=FIX.4.4|9=134|35=D|34=86|49=CLIENT_X|52=20230405-20:15:02.354|56=SERVER_A|1=123|11=3|38=100|40=1|44=25|54=1|55=PETR4|60=20230405-17:15:02.352|453=0|10=240|8=FIX.4.4|9=134|35=D|34=87|49=CLIENT_X|52=20230405-20:15:02.355|56=SERVER_A|1=123|11=4|38=100|40=1|44=25|54=1|55=PETR4|60=20230405-17:15:02.352|453=0|10=243|8=FIX.4.4|9=134|35=D|34=88|49=CLIENT_X|52=20230405-20:15:02.356|56=SERVER_A|1=123|11=5|38=100|40=1|44=25|54=1|55=PETR4|60=20230405-17:15:02.352|453=0|10=246|8=FIX.4.4|9=134|35=D|34=89|49=CLIENT_X|52=20230405-20:15:02.357|56=SERVER_A|1=123|11=6|38=100|40=1|44=25|54=1|55=PETR4|60=20230405-17:15:02.352|453=0|10=249|8=FIX.4.4|9=134|35=D|34=90|49=CLIENT_X|52=20230405-20:15:02.358|56=SERVER_A|1=123|11=7|38=100|40=1|44=25|54=1|55=PETR4|60=20230405-17:15:02.352|453=0|10=243|8=FIX.4.4|9=134|35=D|34=91|49=CLIENT_X|52=20230405-20:15:02.358|56=SERVER_A|1=123|11=8|38=100|40=1|44=25|54=1|55=PETR4|60=20230405-17:15:02.352|453=0|10=245|8=FIX.4.4|9=134|35=D|34=92|49=CLIENT_X|52=20230405-20:15:02.359|56=SERVER_A|1=123|11=9|38=100|40=1|44=25|54=1|55=PETR4|60=20230405-17:15:02.352|453=0|10=248|8=FIX.4.4|9=135|35=D|34=93|49=CLIENT_X|52=20230405-20:15:02.360|56=SERVER_A|1=123|11=10|38=100|40=1|44=25|54=1|55=PETR4|60=20230405-17:15:02.352|453=0|10=026|8=FIX.4.4|9=135|35=D|34=94|49=CLIENT_X|52=20230405-20:15:02.363|56=SERVER_A|1=123|11=11|38=100|40=1|44=25|54=1|55=PETR4|60=20230405-17:15:02.352|453=0|10=031|8=FIX.4.4|9=135|35=D|34=95|49=CLIENT_X|52=20230405-20:15:02.364|56=SERVER_A|1=123|11=12|38=100|40=1|44=25|54=1|55=PETR4|60=20230405-17:15:02.352|453=0|10=034|8=FIX.4.4|9=135|35=D|34=96|49=CLIENT_X|52=20230405-20:15:02.366|56=SERVER_A|1=123|11=13|38=100|40=1|44=25|54=1|55=PETR4|60=20230405-17:15:02.352|453=0|10=038|8=FIX.4.4|9=135|35=D|34=97|49=CLIENT_X|52=20230405-20:15:02.366|56=SERVER_A|1=123|11=14|38=100|40=1|44=25|54=1|55=PETR4|60=20230405-17:15:02.352|453=0|10=040|8=FIX.4.4|9=135|35=D|34=98|49=CLIENT_X|52=20230405-20:15:02.367|56=SERVER_A|1=123|11=15|38=100|40=1|44=25|54=1|55=PETR4|60=20230405-17:15:02.352|453=0|10=043|8=FIX.4.4|9=135|35=D|34=99|49=CLIENT_X|52=20230405-20:15:02.368|56=SERVER_A|1=123|11=16|38=100|40=1|44=25|54=1|55=PETR4|60=20230405-17:15:02.352|453=0|10=046|8=FIX.4.4|9=136|35=D|34=100|49=CLIENT_X|52=20230405-20:15:02.370|56=SERVER_A|1=123|11=17|38=100|40=1|44=25|54=1|55=PETR4|60=20230405-17:15:02.352|453=0|10=072|8=FIX.4.4|9=136|35=D|34=101|49=CLIENT_X|52=20230405-20:15:02.373|56=SERVER_A|1=123|11=18|38=100|40=1|44=25|54=1|55=PETR4|60=20230405-17:15:02.352|453=0|10=077|8=FIX.4.4|9=136|35=D|34=102|49=CLIENT_X|52=20230405-20:15:02.374|56=SERVER_A|1=123|11=19|38=100|40=1|44=25|54=1|55=PETR4|60=20230405-17:15:02.352|453=0|10=080|8=FIX.4.4|9=136|35=D|34=103|49=CLIENT_X|52=20230405-20:15:02.381|56=SERVER_A|1=123|11=20|38=100|40=1|44=25|54=1|55=PETR4|60=20230405-17:15:02.352|453=0|10=071|8=FIX.4.4|9=136|35=D|34=104|49=CLIENT_X|52=20230405-20:15:02.382|56=SERVER_A|1=123|11=21|38=100|40=1|44=25|54=1|55=PETR4|60=20230405-17:15:02.352|453=0|10=074|8=FIX.4.4|9=136|35=D|34=105|49=CLIENT_X|52=20230405-20:15:02.384|56=SERVER_A|1=123|11=22|38=100|40=1|44=25|54=1|55=PETR4|60=20230405-17:15:02.352|453=0|10=078|8=FIX.4.4|9=136|35=D|34=106|49=CLIENT_X|52=20230405-20:15:02.384|56=SERVER_A|1=123|11=23|38=100|40=1|44=25|54=1|55=PETR4|60=20230405-17:15:02.352|453=0|10=080|8=FIX.4.4|9=136|35=D|34=107|49=CLIENT_X|52=20230405-20:15:02.385|56=SERVER_A|1=123|11=24|38=100|40=1|44=25|54=1|55=PETR4|60=20230405-17:15:02.352|453=0|10=083|8=FIX.4.4|9=136|35=D|34=108|49=CLIENT_X|52=20230405-20:15:02.387|56=SERVER_A|1=123|11=25|38=100|40=1|44=25|54=1|55=PETR4|60=20230405-17:15:02.352|453=0|10=087|8=FIX.4.4|9=136|35=D|34=109|49=CLIENT_X|52=20230405-20:15:02.388|56=SERVER_A|1=123|11=26|38=100|40=1|44=25|54=1|55=PETR4|60=20230405-17:15:02.352|453=0|10=090|8=FIX.4.4|9=136|35=D|34=110|49=CLIENT_X|52=20230405-20:15:02.390|56=SERVER_A|1=123|11=27|38=100|40=1|44=25|54=1|55=PETR4|60=20230405-17:15:02.352|453=0|10=076|8=FIX.4.4|9=136|35=D|34=111|49=CLIENT_X|52=20230405-20:15:02.391|56=SERVER_A|1=123|11=28|38=100|40=1|44=25|54=1|55=PETR4|60=20230405-17:15:02.352|453=0|10=079|8=FIX.4.4|9=136|35=D|34=112|49=CLIENT_X|52=20230405-20:15:02.395|56=SERVER_A|1=123|11=29|38=100|40=1|44=25|54=1|55=PETR4|60=20230405-17:15:02.352|453=0|10=085|8=FIX.4.4|9=136|35=D|34=113|49=CLIENT_X|52=20230405-20:15:02.396|56=SERVER_A|1=123|11=30|38=100|40=1|44=25|54=1|55=PETR4|60=20230405-17:15:02.352|453=0|10=079|8=FIX.4.4|9=136|35=D|34=114|49=CLIENT_X|52=20230405-20:15:02.398|56=SERVER_A|1=123|11=31|38=100|40=1|44=25|54=1|55=PETR4|60=20230405-17:15:02.352|453=0|10=083|8=FIX.4.4|9=136|35=D|34=115|49=CLIENT_X|52=20230405-20:15:02.399|56=SERVER_A|1=123|11=32|38=100|40=1|44=25|54=1|55=PETR4|60=20230405-17:15:02.352|453=0|10=086|8=FIX.4.4|9=136|35=D|34=116|49=CLIENT_X|52=20230405-20:15:02.399|56=SERVER_A|1=123|11=33|38=100|40=1|44=25|54=1|55=PETR4|60=20230405-17:15:02.352|453=0|10=088|8=FIX.4.4|9=136|35=D|34=117|49=CLIENT_X|52=20230405-20:15:02.400|56=SERVER_A|1=123|11=34|38=100|40=1|44=25|54=1|55=PETR4|60=20230405-17:15:02.352|453=0|10=073|8=FIX.4.4|9=136|35=D|34=118|49=CLIENT_X|52=20230405-20:15:02.401|56=SERVER_A|1=123|11=35|38=100|40=1|44=25|54=1|55=PETR4|60=20230405-17:15:02.352|453=0|10=076|8=FIX.4.4|9=136|35=D|34=119|49=CLIENT_X|52=20230405-20:15:02.402|56=SERVER_A|1=123|11=36|38=100|40=1|44=25|54=1|55=PETR4|60=20230405-17:15:02.352|453=0|10=079|8=FIX.4.4|9=136|35=D|34=120|49=CLIENT_X|52=20230405-20:15:02.403|56=SERVER_A|1=123|11=37|38=100|40=1|44=25|54=1|55=PETR4|60=20230405-17:15:02.352|453=0|10=073|8=FIX.4.4|9=136|35=D|34=121|49=CLIENT_X|52=20230405-20:15:02.406|56=SERVER_A|1=123|11=38|38=100|40=1|44=25|54=1|55=PETR4|60=20230405-17:15:02.352|453=0|10=078|8=FIX.4.4|9=136|35=D|34=122|49=CLIENT_X|52=20230405-20:15:02.406|56=SERVER_A|1=123|11=39|38=100|40=1|44=25|54=1|55=PETR4|60=20230405-17:15:02.352|453=0|10=080|8=FIX.4.4|9=136|35=D|34=123|49=CLIENT_X|52=20230405-20:15:02.407|56=SERVER_A|1=123|11=40|38=100|40=1|44=25|54=1|55=PETR4|60=20230405-17:15:02.352|453=0|10=074|8=FIX.4.4|9=136|35=D|34=124|49=CLIENT_X|52=20230405-20:15:02.413|56=SERVER_A|1=123|11=41|38=100|40=1|44=25|54=1|55=PETR4|60=20230405-17:15:02.352|453=0|10=073|8=FIX.4.4|9=136|35=D|34=125|49=CLIENT_X|52=20230405-20:15:02.414|56=SERVER_A|1=123|11=42|38=100|40=1|44=25|54=1|55=PETR4|60=20230405-17:15:02.352|453=0|10=076|8=FIX.4.4|9=136|35=D|34=126|49=CLIENT_X|52=20230405-20:15:02.416|56=SERVER_A|1=123|11=43|38=100|40=1|44=25|54=1|55=PETR4|60=20230405-17:15:02.352|453=0|10=080|8=FIX.4.4|9=136|35=D|34=127|49=CLIENT_X|52=20230405-20:15:02.417|56=SERVER_A|1=123|11=44|38=100|40=1|44=25|54=1|55=PETR4|60=20230405-17:15:02.352|453=0|10=083|8=FIX.4.4|9=136|35=D|34=128|49=CLIENT_X|52=20230405-20:15:02.418|56=SERVER_A|1=123|11=45|38=100|40=1|44=25|54=1|55=PETR4|60=20230405-17:15:02.352|453=0|10=086|8=FIX.4.4|9=136|35=D|34=129|49=CLIENT_X|52=20230405-20:15:02.420|56=SERVER_A|1=123|11=46|38=100|40=1|44=25|54=1|55=PETR4|60=20230405-17:15:02.352|453=0|10=081|8=FIX.4.4|9=136|35=D|34=130|49=CLIENT_X|52=20230405-20:15:02.421|56=SERVER_A|1=123|11=47|38=100|40=1|44=25|54=1|55=PETR4|60=20230405-17:15:02.352|453=0|10=075|8=FIX.4.4|9=136|35=D|34=131|49=CLIENT_X|52=20230405-20:15:02.422|56=SERVER_A|1=123|11=48|38=100|40=1|44=25|54=1|55=PETR4|60=20230405-17:15:02.352|453=0|10=078|8=FIX.4.4|9=136|35=D|34=132|49=CLIENT_X|52=20230405-20:15:02.427|56=SERVER_A|1=123|11=49|38=100|40=1|44=25|54=1|55=PETR4|60=20230405-17:15:02.352|453=0|10=085|8=FIX.4.4|9=136|35=D|34=133|49=CLIENT_X|52=20230405-20:15:02.429|56=SERVER_A|1=123|11=50|38=100|40=1|44=25|54=1|55=PETR4|60=20230405-17:15:02.352|453=0|10=080|8=FIX.4.4|9=136|35=D|34=134|49=CLIENT_X|52=20230405-20:15:02.431|56=SERVER_A|1=123|11=51|38=100|40=1|44=25|54=1|55=PETR4|60=20230405-17:15:02.352|453=0|10=075|8=FIX.4.4|9=136|35=D|34=135|49=CLIENT_X|52=20230405-20:15:02.438|56=SERVER_A|1=123|11=52|38=100|40=1|44=25|54=1|55=PETR4|60=20230405-17:15:02.352|453=0|10=084|8=FIX.4.4|9=136|35=D|34=136|49=CLIENT_X|52=20230405-20:15:02.442|56=SERVER_A|1=123|11=53|38=100|40=1|44=25|54=1|55=PETR4|60=20230405-17:15:02.352|453=0|10=081|8=FIX.4.4|9=136|35=D|34=137|49=CLIENT_X|52=20230405-20:15:02.445|56=SERVER_A|1=123|11=54|38=100|40=1|44=25|54=1|55=PETR4|60=20230405-17:15:02.352|453=0|10=086|8=FIX.4.4|9=136|35=D|34=138|49=CLIENT_X|52=20230405-20:15:02.447|56=SERVER_A|1=123|11=55|38=100|40=1|44=25|54=1|55=PETR4|60=20230405-17:15:02.352|453=0|10=090|8=FIX.4.4|9=136|35=D|34=139|49=CLIENT_X|52=20230405-20:15:02.451|56=SERVER_A|1=123|11=56|38=100|40=1|44=25|54=1|55=PETR4|60=20230405-17:15:02.352|453=0|10=087|8=FIX.4.4|9=136|35=D|34=140|49=CLIENT_X|52=20230405-20:15:02.457|56=SERVER_A|1=123|11=57|38=100|40=1|44=25|54=1|55=PETR4|60=20230405-17:15:02.352|453=0|10=086|8=FIX.4.4|9=136|35=D|34=141|49=CLIENT_X|52=20230405-20:15:02.459|56=SERVER_A|1=123|11=58|38=100|40=1|44=25|54=1|55=PETR4|60=20230405-17:15:02.352|453=0|10=090|8=FIX.4.4|9=136|35=D|34=142|49=CLIENT_X|52=20230405-20:15:02.459|56=SERVER_A|1=123|11=59|38=100|40=1|44=25|54=1|55=PETR4|60=20230405-17:15:02.352|453=0|10=092|8=FIX.4.4|9=136|35=D|34=143|49=CLIENT_X|52=20230405-20:15:02.462|56=SERVER_A|1=123|11=60|38=100|40=1|44=25|54=1|55=PETR4|60=20230405-17:15:02.352|453=0|10=079|8=FIX.4.4|9=136|35=D|34=144|49=CLIENT_X|52=20230405-20:15:02.463|56=SERVER_A|1=123|11=61|38=100|40=1|44=25|54=1|55=PETR4|60=20230405-17:15:02.352|453=0|10=082|8=FIX.4.4|9=136|35=D|34=145|49=CLIENT_X|52=20230405-20:15:02.465|56=SERVER_A|1=123|11=62|38=100|40=1|44=25|54=1|55=PETR4|60=20230405-17:15:02.352|453=0|10=086|8=FIX.4.4|9=136|35=D|34=146|49=CLIENT_X|52=20230405-20:15:02.466|56=SERVER_A|1=123|11=63|38=100|40=1|44=25|54=1|55=PETR4|60=20230405-17:15:02.352|453=0|10=089|8=FIX.4.4|9=136|35=D|34=147|49=CLIENT_X|52=20230405-20:15:02.467|56=SERVER_A|1=123|11=64|38=100|40=1|44=25|54=1|55=PETR4|60=20230405-17:15:02.352|453=0|10=092|8=FIX.4.4|9=136|35=D|34=148|49=CLIENT_X|52=20230405-20:15:02.467|56=SERVER_A|1=123|11=65|38=100|40=1|44=25|54=1|55=PETR4|60=20230405-17:15:02.352|453=0|10=094|8=FIX.4.4|9=136|35=D|34=149|49=CLIENT_X|52=20230405-20:15:02.476|56=SERVER_A|1=123|11=66|38=100|40=1|44=25|54=1|55=PETR4|60=20230405-17:15:02.352|453=0|10=096|8=FIX.4.4|9=136|35=D|34=150|49=CLIENT_X|52=20230405-20:15:02.478|56=SERVER_A|1=123|11=67|38=100|40=1|44=25|54=1|55=PETR4|60=20230405-17:15:02.352|453=0|10=091|8=FIX.4.4|9=136|35=D|34=151|49=CLIENT_X|52=20230405-20:15:02.480|56=SERVER_A|1=123|11=68|38=100|40=1|44=25|54=1|55=PETR4|60=20230405-17:15:02.352|453=0|10=086|8=FIX.4.4|9=136|35=D|34=152|49=CLIENT_X|52=20230405-20:15:02.480|56=SERVER_A|1=123|11=69|38=100|40=1|44=25|54=1|55=PETR4|60=20230405-17:15:02.352|453=0|10=088|8=FIX.4.4|9=136|35=D|34=153|49=CLIENT_X|52=20230405-20:15:02.481|56=SERVER_A|1=123|11=70|38=100|40=1|44=25|54=1|55=PETR4|60=20230405-17:15:02.352|453=0|10=082|8=FIX.4.4|9=136|35=D|34=154|49=CLIENT_X|52=20230405-20:15:02.482|56=SERVER_A|1=123|11=71|38=100|40=1|44=25|54=1|55=PETR4|60=20230405-17:15:02.352|453=0|10=085|8=FIX.4.4|9=136|35=D|34=155|49=CLIENT_X|52=20230405-20:15:02.483|56=SERVER_A|1=123|11=72|38=100|40=1|44=25|54=1|55=PETR4|60=20230405-17:15:02.352|453=0|10=088|8=FIX.4.4|9=136|35=D|34=156|49=CLIENT_X|52=20230405-20:15:02.484|56=SERVER_A|1=123|11=73|38=100|40=1|44=25|54=1|55=PETR4|60=20230405-17:15:02.352|453=0|10=091|8=FIX.4.4|9=136|35=D|34=157|49=CLIENT_X|52=20230405-20:15:02.486|56=SERVER_A|1=123|11=74|38=100|40=1|44=25|54=1|55=PETR4|60=20230405-17:15:02.352|453=0|10=095|8=FIX.4.4|9=136|35=D|34=158|49=CLIENT_X|52=20230405-20:15:02.488|56=SERVER_A|1=123|11=75|38=100|40=1|44=25|54=1|55=PETR4|60=20230405-17:15:02.352|453=0|10=099|8=FIX.4.4|9=136|35=D|34=159|49=CLIENT_X|52=20230405-20:15:02.490|56=SERVER_A|1=123|11=76|38=100|40=1|44=25|54=1|55=PETR4|60=20230405-17:15:02.352|453=0|10=094|8=FIX.4.4|9=136|35=D|34=160|49=CLIENT_X|52=20230405-20:15:02.491|56=SERVER_A|1=123|11=77|38=100|40=1|44=25|54=1|55=PETR4|60=20230405-17:15:02.352|453=0|10=088|8=FIX.4.4|9=136|35=D|34=161|49=CLIENT_X|52=20230405-20:15:02.492|56=SERVER_A|1=123|11=78|38=100|40=1|44=25|54=1|55=PETR4|60=20230405-17:15:02.352|453=0|10=091|8=FIX.4.4|9=136|35=D|34=162|49=CLIENT_X|52=20230405-20:15:02.492|56=SERVER_A|1=123|11=79|38=100|40=1|44=25|54=1|55=PETR4|60=20230405-17:15:02.352|453=0|10=093|8=FIX.4.4|9=136|35=D|34=163|49=CLIENT_X|52=20230405-20:15:02.493|56=SERVER_A|1=123|11=80|38=100|40=1|44=25|54=1|55=PETR4|60=20230405-17:15:02.352|453=0|10=087|8=FIX.4.4|9=136|35=D|34=164|49=CLIENT_X|52=20230405-20:15:02.494|56=SERVER_A|1=123|11=81|38=100|40=1|44=25|54=1|55=PETR4|60=20230405-17:15:02.352|453=0|10=090|8=FIX.4.4|9=136|35=D|34=165|49=CLIENT_X|52=20230405-20:15:02.495|56=SERVER_A|1=123|11=82|38=100|40=1|44=25|54=1|55=PETR4|60=20230405-17:15:02.352|453=0|10=093|8=FIX.4.4|9=136|35=D|34=166|49=CLIENT_X|52=20230405-20:15:02.496|56=SERVER_A|1=123|11=83|38=100|40=1|44=25|54=1|55=PETR4|60=20230405-17:15:02.352|453=0|10=096|8=FIX.4.4|9=136|35=D|34=167|49=CLIENT_X|52=20230405-20:15:02.497|56=SERVER_A|1=123|11=84|38=100|40=1|44=25|54=1|55=PETR4|60=20230405-17:15:02.352|453=0|10=099|8=FIX.4.4|9=136|35=D|34=168|49=CLIENT_X|52=20230405-20:15:02.497|56=SERVER_A|1=123|11=85|38=100|40=1|44=25|54=1|55=PETR4|60=20230405-17:15:02.352|453=0|10=101|8=FIX.4.4|9=136|35=D|34=169|49=CLIENT_X|52=20230405-20:15:02.498|56=SERVER_A|1=123|11=86|38=100|40=1|44=25|54=1|55=PETR4|60=20230405-17:15:02.352|453=0|10=104|8=FIX.4.4|9=136|35=D|34=170|49=CLIENT_X|52=20230405-20:15:02.508|56=SERVER_A|1=123|11=87|38=100|40=1|44=25|54=1|55=PETR4|60=20230405-17:15:02.352|453=0|10=089|8=FIX.4.4|9=136|35=D|34=171|49=CLIENT_X|52=20230405-20:15:02.509|56=SERVER_A|1=123|11=88|38=100|40=1|44=25|54=1|55=PETR4|60=20230405-17:15:02.352|453=0|10=092|8=FIX.4.4|9=136|35=D|34=172|49=CLIENT_X|52=20230405-20:15:02.511|56=SERVER_A|1=123|11=89|38=100|40=1|44=25|54=1|55=PETR4|60=20230405-17:15:02.352|453=0|10=087|8=FIX.4.4|9=136|35=D|34=173|49=CLIENT_X|52=20230405-20:15:02.513|56=SERVER_A|1=123|11=90|38=100|40=1|44=25|54=1|55=PETR4|60=20230405-17:15:02.352|453=0|10=082|8=FIX.4.4|9=136|35=D|34=174|49=CLIENT_X|52=20230405-20:15:02.513|56=SERVER_A|1=123|11=91|38=100|40=1|44=25|54=1|55=PETR4|60=20230405-17:15:02.352|453=0|10=084|8=FIX.4.4|9=136|35=D|34=175|49=CLIENT_X|52=20230405-20:15:02.514|56=SERVER_A|1=123|11=92|38=100|40=1|44=25|54=1|55=PETR4|60=20230405-17:15:02.352|453=0|10=087|8=FIX.4.4|9=136|35=D|34=176|49=CLIENT_X|52=20230405-20:15:02.515|56=SERVER_A|1=123|11=93|38=100|40=1|44=25|54=1|55=PETR4|60=20230405-17:15:02.352|453=0|10=090|8=FIX.4.4|9=136|35=D|34=177|49=CLIENT_X|52=20230405-20:15:02.516|56=SERVER_A|1=123|11=94|38=100|40=1|44=25|54=1|55=PETR4|60=20230405-17:15:02.352|453=0|10=093|8=FIX.4.4|9=136|35=D|34=178|49=CLIENT_X|52=20230405-20:15:02.517|56=SERVER_A|1=123|11=95|38=100|40=1|44=25|54=1|55=PETR4|60=20230405-17:15:02.352|453=0|10=096|8=FIX.4.4|9=136|35=D|34=179|49=CLIENT_X|52=20230405-20:15:02.517|56=SERVER_A|1=123|11=96|38=100|40=1|44=25|54=1|55=PETR4|60=20230405-17:15:02.352|453=0|10=098|8=FIX.4.4|9=136|35=D|34=180|49=CLIENT_X|52=20230405-20:15:02.518|56=SERVER_A|1=123|11=97|38=100|40=1|44=25|54=1|55=PETR4|60=20230405-17:15:02.352|453=0|10=092|8=FIX.4.4|9=136|35=D|34=181|49=CLIENT_X|52=20230405-20:15:02.521|56=SERVER_A|1=123|11=98|38=100|40=1|44=25|54=1|55=PETR4|60=20230405-17:15:02.352|453=0|10=088|8=FIX.4.4|9=136|35=D|34=182|49=CLIENT_X|52=20230405-20:15:02.522|56=SERVER_A|1=123|11=99|38=100|40=1|44=25|54=1|55=PETR4|60=20230405-17:15:02.352|453=0|10=091|8=FIX.4.4|9=137|35=D|34=183|49=CLIENT_X|52=20230405-20:15:02.524|56=SERVER_A|1=123|11=100|38=100|40=1|44=25|54=1|55=PETR4|60=20230405-17:15:02.352|453=0|10=126|8=FIX.4.4|9=137|35=D|34=184|49=CLIENT_X|52=20230405-20:15:02.524|56=SERVER_A|1=123|11=101|38=100|40=1|44=25|54=1|55=PETR4|60=20230405-17:15:02.352|453=0|10=128|8=FIX.4.4|9=137|35=D|34=185|49=CLIENT_X|52=20230405-20:15:02.525|56=SERVER_A|1=123|11=102|38=100|40=1|44=25|54=1|55=PETR4|60=20230405-17:15:02.352|453=0|10=131|8=FIX.4.4|9=137|35=D|34=186|49=CLIENT_X|52=20230405-20:15:02.526|56=SERVER_A|1=123|11=103|38=100|40=1|44=25|54=1|55=PETR4|60=20230405-17:15:02.352|453=0|10=134|8=FIX.4.4|9=137|35=D|34=187|49=CLIENT_X|52=20230405-20:15:02.527|56=SERVER_A|1=123|11=104|38=100|40=1|44=25|54=1|55=PETR4|60=20230405-17:15:02.352|453=0|10=137|8=FIX.4.4|9=137|35=D|34=188|49=CLIENT_X|52=20230405-20:15:02.528|56=SERVER_A|1=123|11=105|38=100|40=1|44=25|54=1|55=PETR4|60=20230405-17:15:02.352|453=0|10=140|8=FIX.4.4|9=137|35=D|34=189|49=CLIENT_X|52=20230405-20:15:02.529|56=SERVER_A|1=123|11=106|38=100|40=1|44=25|54=1|55=PETR4|60=20230405-17:15:02.352|453=0|10=143|8=FIX.4.4|9=137|35=D|34=190|49=CLIENT_X|52=20230405-20:15:02.529|56=SERVER_A|1=123|11=107|38=100|40=1|44=25|54=1|55=PETR4|60=20230405-17:15:02.352|453=0|10=136|8=FIX.4.4|9=137|35=D|34=191|49=CLIENT_X|52=20230405-20:15:02.530|56=SERVER_A|1=123|11=108|38=100|40=1|44=25|54=1|55=PETR4|60=20230405-17:15:02.352|453=0|10=130|8=FIX.4.4|9=137|35=D|34=192|49=CLIENT_X|52=20230405-20:15:02.540|56=SERVER_A|1=123|11=109|38=100|40=1|44=25|54=1|55=PETR4|60=20230405-17:15:02.352|453=0|10=133|8=FIX.4.4|9=137|35=D|34=193|49=CLIENT_X|52=20230405-20:15:02.542|56=SERVER_A|1=123|11=110|38=100|40=1|44=25|54=1|55=PETR4|60=20230405-17:15:02.352|453=0|10=128|8=FIX.4.4|9=137|35=D|34=194|49=CLIENT_X|52=20230405-20:15:02.544|56=SERVER_A|1=123|11=111|38=100|40=1|44=25|54=1|55=PETR4|60=20230405-17:15:02.352|453=0|10=132|8=FIX.4.4|9=137|35=D|34=195|49=CLIENT_X|52=20230405-20:15:02.544|56=SERVER_A|1=123|11=112|38=100|40=1|44=25|54=1|55=PETR4|60=20230405-17:15:02.352|453=0|10=134|8=FIX.4.4|9=137|35=D|34=196|49=CLIENT_X|52=20230405-20:15:02.545|56=SERVER_A|1=123|11=113|38=100|40=1|44=25|54=1|55=PETR4|60=20230405-17:15:02.352|453=0|10=137|8=FIX.4.4|9=137|35=D|34=197|49=CLIENT_X|52=20230405-20:15:02.546|56=SERVER_A|1=123|11=114|38=100|40=1|44=25|54=1|55=PETR4|60=20230405-17:15:02.352|453=0|10=140|8=FIX.4.4|9=137|35=D|34=198|49=CLIENT_X|52=20230405-20:15:02.547|56=SERVER_A|1=123|11=115|38=100|40=1|44=25|54=1|55=PETR4|60=20230405-17:15:02.352|453=0|10=143|8=FIX.4.4|9=137|35=D|34=199|49=CLIENT_X|52=20230405-20:15:02.548|56=SERVER_A|1=123|11=116|38=100|40=1|44=25|54=1|55=PETR4|60=20230405-17:15:02.352|453=0|10=146|8=FIX.4.4|9=137|35=D|34=200|49=CLIENT_X|52=20230405-20:15:02.550|56=SERVER_A|1=123|11=117|38=100|40=1|44=25|54=1|55=PETR4|60=20230405-17:15:02.352|453=0|10=123|8=FIX.4.4|9=137|35=D|34=201|49=CLIENT_X|52=20230405-20:15:02.550|56=SERVER_A|1=123|11=118|38=100|40=1|44=25|54=1|55=PETR4|60=20230405-17:15:02.352|453=0|10=125|8=FIX.4.4|9=137|35=D|34=202|49=CLIENT_X|52=20230405-20:15:02.551|56=SERVER_A|1=123|11=119|38=100|40=1|44=25|54=1|55=PETR4|60=20230405-17:15:02.352|453=0|10=128|8=FIX.4.4|9=137|35=D|34=203|49=CLIENT_X|52=20230405-20:15:02.552|56=SERVER_A|1=123|11=120|38=100|40=1|44=25|54=1|55=PETR4|60=20230405-17:15:02.352|453=0|10=122|8=FIX.4.4|9=137|35=D|34=204|49=CLIENT_X|52=20230405-20:15:02.555|56=SERVER_A|1=123|11=121|38=100|40=1|44=25|54=1|55=PETR4|60=20230405-17:15:02.352|453=0|10=127|8=FIX.4.4|9=137|35=D|34=205|49=CLIENT_X|52=20230405-20:15:02.556|56=SERVER_A|1=123|11=122|38=100|40=1|44=25|54=1|55=PETR4|60=20230405-17:15:02.352|453=0|10=130|8=FIX.4.4|9=137|35=D|34=206|49=CLIENT_X|52=20230405-20:15:02.558|56=SERVER_A|1=123|11=123|38=100|40=1|44=25|54=1|55=PETR4|60=20230405-17:15:02.352|453=0|10=134|8=FIX.4.4|9=137|35=D|34=207|49=CLIENT_X|52=20230405-20:15:02.559|56=SERVER_A|1=123|11=124|38=100|40=1|44=25|54=1|55=PETR4|60=20230405-17:15:02.352|453=0|10=137|8=FIX.4.4|9=137|35=D|34=208|49=CLIENT_X|52=20230405-20:15:02.561|56=SERVER_A|1=123|11=125|38=100|40=1|44=25|54=1|55=PETR4|60=20230405-17:15:02.352|453=0|10=132|8=FIX.4.4|9=137|35=D|34=209|49=CLIENT_X|52=20230405-20:15:02.568|56=SERVER_A|1=123|11=126|38=100|40=1|44=25|54=1|55=PETR4|60=20230405-17:15:02.352|453=0|10=141|8=FIX.4.4|9=137|35=D|34=210|49=CLIENT_X|52=20230405-20:15:02.569|56=SERVER_A|1=123|11=127|38=100|40=1|44=25|54=1|55=PETR4|60=20230405-17:15:02.352|453=0|10=135|8=FIX.4.4|9=137|35=D|34=211|49=CLIENT_X|52=20230405-20:15:02.572|56=SERVER_A|1=123|11=128|38=100|40=1|44=25|54=1|55=PETR4|60=20230405-17:15:02.352|453=0|10=131|8=FIX.4.4|9=137|35=D|34=212|49=CLIENT_X|52=20230405-20:15:02.573|56=SERVER_A|1=123|11=129|38=100|40=1|44=25|54=1|55=PETR4|60=20230405-17:15:02.352|453=0|10=134|8=FIX.4.4|9=137|35=D|34=213|49=CLIENT_X|52=20230405-20:15:02.575|56=SERVER_A|1=123|11=130|38=100|40=1|44=25|54=1|55=PETR4|60=20230405-17:15:02.352|453=0|10=129|8=FIX.4.4|9=137|35=D|34=214|49=CLIENT_X|52=20230405-20:15:02.576|56=SERVER_A|1=123|11=131|38=100|40=1|44=25|54=1|55=PETR4|60=20230405-17:15:02.352|453=0|10=132|8=FIX.4.4|9=137|35=D|34=215|49=CLIENT_X|52=20230405-20:15:02.577|56=SERVER_A|1=123|11=132|38=100|40=1|44=25|54=1|55=PETR4|60=20230405-17:15:02.352|453=0|10=135|8=FIX.4.4|9=137|35=D|34=216|49=CLIENT_X|52=20230405-20:15:02.582|56=SERVER_A|1=123|11=133|38=100|40=1|44=25|54=1|55=PETR4|60=20230405-17:15:02.352|453=0|10=133|8=FIX.4.4|9=137|35=D|34=217|49=CLIENT_X|52=20230405-20:15:02.583|56=SERVER_A|1=123|11=134|38=100|40=1|44=25|54=1|55=PETR4|60=20230405-17:15:02.352|453=0|10=136|8=FIX.4.4|9=137|35=D|34=218|49=CLIENT_X|52=20230405-20:15:02.585|56=SERVER_A|1=123|11=135|38=100|40=1|44=25|54=1|55=PETR4|60=20230405-17:15:02.352|453=0|10=140|8=FIX.4.4|9=137|35=D|34=219|49=CLIENT_X|52=20230405-20:15:02.585|56=SERVER_A|1=123|11=136|38=100|40=1|44=25|54=1|55=PETR4|60=20230405-17:15:02.352|453=0|10=142|8=FIX.4.4|9=137|35=D|34=220|49=CLIENT_X|52=20230405-20:15:02.586|56=SERVER_A|1=123|11=137|38=100|40=1|44=25|54=1|55=PETR4|60=20230405-17:15:02.352|453=0|10=136|8=FIX.4.4|9=137|35=D|34=221|49=CLIENT_X|52=20230405-20:15:02.589|56=SERVER_A|1=123|11=138|38=100|40=1|44=25|54=1|55=PETR4|60=20230405-17:15:02.352|453=0|10=141|8=FIX.4.4|9=137|35=D|34=222|49=CLIENT_X|52=20230405-20:15:02.589|56=SERVER_A|1=123|11=139|38=100|40=1|44=25|54=1|55=PETR4|60=20230405-17:15:02.352|453=0|10=143|8=FIX.4.4|9=137|35=D|34=223|49=CLIENT_X|52=20230405-20:15:02.590|56=SERVER_A|1=123|11=140|38=100|40=1|44=25|54=1|55=PETR4|60=20230405-17:15:02.352|453=0|10=128|8=FIX.4.4|9=137|35=D|34=224|49=CLIENT_X|52=20230405-20:15:02.596|56=SERVER_A|1=123|11=141|38=100|40=1|44=25|54=1|55=PETR4|60=20230405-17:15:02.352|453=0|10=136|8=FIX.4.4|9=137|35=D|34=225|49=CLIENT_X|52=20230405-20:15:02.596|56=SERVER_A|1=123|11=142|38=100|40=1|44=25|54=1|55=PETR4|60=20230405-17:15:02.352|453=0|10=138|8=FIX.4.4|9=137|35=D|34=226|49=CLIENT_X|52=20230405-20:15:02.598|56=SERVER_A|1=123|11=143|38=100|40=1|44=25|54=1|55=PETR4|60=20230405-17:15:02.352|453=0|10=142|8=FIX.4.4|9=137|35=D|34=227|49=CLIENT_X|52=20230405-20:15:02.599|56=SERVER_A|1=123|11=144|38=100|40=1|44=25|54=1|55=PETR4|60=20230405-17:15:02.352|453=0|10=145|8=FIX.4.4|9=137|35=D|34=228|49=CLIENT_X|52=20230405-20:15:02.601|56=SERVER_A|1=123|11=145|38=100|40=1|44=25|54=1|55=PETR4|60=20230405-17:15:02.352|453=0|10=131|8=FIX.4.4|9=137|35=D|34=229|49=CLIENT_X|52=20230405-20:15:02.601|56=SERVER_A|1=123|11=146|38=100|40=1|44=25|54=1|55=PETR4|60=20230405-17:15:02.352|453=0|10=133|8=FIX.4.4|9=137|35=D|34=230|49=CLIENT_X|52=20230405-20:15:02.602|56=SERVER_A|1=123|11=147|38=100|40=1|44=25|54=1|55=PETR4|60=20230405-17:15:02.352|453=0|10=127|8=FIX.4.4|9=137|35=D|34=231|49=CLIENT_X|52=20230405-20:15:02.604|56=SERVER_A|1=123|11=148|38=100|40=1|44=25|54=1|55=PETR4|60=20230405-17:15:02.352|453=0|10=131|8=FIX.4.4|9=137|35=D|34=232|49=CLIENT_X|52=20230405-20:15:02.605|56=SERVER_A|1=123|11=149|38=100|40=1|44=25|54=1|55=PETR4|60=20230405-17:15:02.352|453=0|10=134|8=FIX.4.4|9=137|35=D|34=233|49=CLIENT_X|52=20230405-20:15:02.606|56=SERVER_A|1=123|11=150|38=100|40=1|44=25|54=1|55=PETR4|60=20230405-17:15:02.352|453=0|10=128|8=FIX.4.4|9=137|35=D|34=234|49=CLIENT_X|52=20230405-20:15:02.607|56=SERVER_A|1=123|11=151|38=100|40=1|44=25|54=1|55=PETR4|60=20230405-17:15:02.352|453=0|10=131|8=FIX.4.4|9=137|35=D|34=235|49=CLIENT_X|52=20230405-20:15:02.614|56=SERVER_A|1=123|11=152|38=100|40=1|44=25|54=1|55=PETR4|60=20230405-17:15:02.352|453=0|10=131|8=FIX.4.4|9=137|35=D|34=236|49=CLIENT_X|52=20230405-20:15:02.616|56=SERVER_A|1=123|11=153|38=100|40=1|44=25|54=1|55=PETR4|60=20230405-17:15:02.352|453=0|10=135|8=FIX.4.4|9=137|35=D|34=237|49=CLIENT_X|52=20230405-20:15:02.616|56=SERVER_A|1=123|11=154|38=100|40=1|44=25|54=1|55=PETR4|60=20230405-17:15:02.352|453=0|10=137|8=FIX.4.4|9=137|35=D|34=238|49=CLIENT_X|52=20230405-20:15:02.618|56=SERVER_A|1=123|11=155|38=100|40=1|44=25|54=1|55=PETR4|60=20230405-17:15:02.352|453=0|10=141|8=FIX.4.4|9=137|35=D|34=239|49=CLIENT_X|52=20230405-20:15:02.619|56=SERVER_A|1=123|11=156|38=100|40=1|44=25|54=1|55=PETR4|60=20230405-17:15:02.352|453=0|10=144|8=FIX.4.4|9=137|35=D|34=240|49=CLIENT_X|52=20230405-20:15:02.620|56=SERVER_A|1=123|11=157|38=100|40=1|44=25|54=1|55=PETR4|60=20230405-17:15:02.352|453=0|10=129|8=FIX.4.4|9=137|35=D|34=241|49=CLIENT_X|52=20230405-20:15:02.622|56=SERVER_A|1=123|11=158|38=100|40=1|44=25|54=1|55=PETR4|60=20230405-17:15:02.352|453=0|10=133|8=FIX.4.4|9=137|35=D|34=242|49=CLIENT_X|52=20230405-20:15:02.626|56=SERVER_A|1=123|11=159|38=100|40=1|44=25|54=1|55=PETR4|60=20230405-17:15:02.352|453=0|10=139|8=FIX.4.4|9=137|35=D|34=243|49=CLIENT_X|52=20230405-20:15:02.628|56=SERVER_A|1=123|11=160|38=100|40=1|44=25|54=1|55=PETR4|60=20230405-17:15:02.352|453=0|10=134|8=FIX.4.4|9=137|35=D|34=244|49=CLIENT_X|52=20230405-20:15:02.630|56=SERVER_A|1=123|11=161|38=100|40=1|44=25|54=1|55=PETR4|60=20230405-17:15:02.352|453=0|10=129|8=FIX.4.4|9=137|35=D|34=245|49=CLIENT_X|52=20230405-20:15:02.631|56=SERVER_A|1=123|11=162|38=100|40=1|44=25|54=1|55=PETR4|60=20230405-17:15:02.352|453=0|10=132|8=FIX.4.4|9=137|35=D|34=246|49=CLIENT_X|52=20230405-20:15:02.633|56=SERVER_A|1=123|11=163|38=100|40=1|44=25|54=1|55=PETR4|60=20230405-17:15:02.352|453=0|10=136|8=FIX.4.4|9=137|35=D|34=247|49=CLIENT_X|52=20230405-20:15:02.633|56=SERVER_A|1=123|11=164|38=100|40=1|44=25|54=1|55=PETR4|60=20230405-17:15:02.352|453=0|10=138|8=FIX.4.4|9=137|35=D|34=248|49=CLIENT_X|52=20230405-20:15:02.636|56=SERVER_A|1=123|11=165|38=100|40=1|44=25|54=1|55=PETR4|60=20230405-17:15:02.352|453=0|10=143|8=FIX.4.4|9=137|35=D|34=249|49=CLIENT_X|52=20230405-20:15:02.637|56=SERVER_A|1=123|11=166|38=100|40=1|44=25|54=1|55=PETR4|60=20230405-17:15:02.352|453=0|10=146|8=FIX.4.4|9=137|35=D|34=250|49=CLIENT_X|52=20230405-20:15:02.644|56=SERVER_A|1=123|11=167|38=100|40=1|44=25|54=1|55=PETR4|60=20230405-17:15:02.352|453=0|10=137|8=FIX.4.4|9=137|35=D|34=251|49=CLIENT_X|52=20230405-20:15:02.646|56=SERVER_A|1=123|11=168|38=100|40=1|44=25|54=1|55=PETR4|60=20230405-17:15:02.352|453=0|10=141|8=FIX.4.4|9=137|35=D|34=252|49=CLIENT_X|52=20230405-20:15:02.648|56=SERVER_A|1=123|11=169|38=100|40=1|44=25|54=1|55=PETR4|60=20230405-17:15:02.352|453=0|10=145|8=FIX.4.4|9=137|35=D|34=253|49=CLIENT_X|52=20230405-20:15:02.651|56=SERVER_A|1=123|11=170|38=100|40=1|44=25|54=1|55=PETR4|60=20230405-17:15:02.352|453=0|10=132|8=FIX.4.4|9=137|35=D|34=254|49=CLIENT_X|52=20230405-20:15:02.651|56=SERVER_A|1=123|11=171|38=100|40=1|44=25|54=1|55=PETR4|60=20230405-17:15:02.352|453=0|10=134|8=FIX.4.4|9=137|35=D|34=255|49=CLIENT_X|52=20230405-20:15:02.659|56=SERVER_A|1=123|11=172|38=100|40=1|44=25|54=1|55=PETR4|60=20230405-17:15:02.352|453=0|10=144|8=FIX.4.4|9=137|35=D|34=256|49=CLIENT_X|52=20230405-20:15:02.660|56=SERVER_A|1=123|11=173|38=100|40=1|44=25|54=1|55=PETR4|60=20230405-17:15:02.352|453=0|10=138|8=FIX.4.4|9=137|35=D|34=257|49=CLIENT_X|52=20230405-20:15:02.663|56=SERVER_A|1=123|11=174|38=100|40=1|44=25|54=1|55=PETR4|60=20230405-17:15:02.352|453=0|10=143|8=FIX.4.4|9=137|35=D|34=258|49=CLIENT_X|52=20230405-20:15:02.664|56=SERVER_A|1=123|11=175|38=100|40=1|44=25|54=1|55=PETR4|60=20230405-17:15:02.352|453=0|10=146|8=FIX.4.4|9=137|35=D|34=259|49=CLIENT_X|52=20230405-20:15:02.667|56=SERVER_A|1=123|11=176|38=100|40=1|44=25|54=1|55=PETR4|60=20230405-17:15:02.352|453=0|10=151|8=FIX.4.4|9=137|35=D|34=260|49=CLIENT_X|52=20230405-20:15:02.668|56=SERVER_A|1=123|11=177|38=100|40=1|44=25|54=1|55=PETR4|60=20230405-17:15:02.352|453=0|10=145|8=FIX.4.4|9=137|35=D|34=261|49=CLIENT_X|52=20230405-20:15:02.676|56=SERVER_A|1=123|11=178|38=100|40=1|44=25|54=1|55=PETR4|60=20230405-17:15:02.352|453=0|10=146|8=FIX.4.4|9=137|35=D|34=262|49=CLIENT_X|52=20230405-20:15:02.677|56=SERVER_A|1=123|11=179|38=100|40=1|44=25|54=1|55=PETR4|60=20230405-17:15:02.352|453=0|10=149|8=FIX.4.4|9=137|35=D|34=263|49=CLIENT_X|52=20230405-20:15:02.679|56=SERVER_A|1=123|11=180|38=100|40=1|44=25|54=1|55=PETR4|60=20230405-17:15:02.352|453=0|10=144|8=FIX.4.4|9=137|35=D|34=264|49=CLIENT_X|52=20230405-20:15:02.680|56=SERVER_A|1=123|11=181|38=100|40=1|44=25|54=1|55=PETR4|60=20230405-17:15:02.352|453=0|10=138|8=FIX.4.4|9=137|35=D|34=265|49=CLIENT_X|52=20230405-20:15:02.681|56=SERVER_A|1=123|11=182|38=100|40=1|44=25|54=1|55=PETR4|60=20230405-17:15:02.352|453=0|10=141|8=FIX.4.4|9=137|35=D|34=266|49=CLIENT_X|52=20230405-20:15:02.681|56=SERVER_A|1=123|11=183|38=100|40=1|44=25|54=1|55=PETR4|60=20230405-17:15:02.352|453=0|10=143|8=FIX.4.4|9=137|35=D|34=267|49=CLIENT_X|52=20230405-20:15:02.683|56=SERVER_A|1=123|11=184|38=100|40=1|44=25|54=1|55=PETR4|60=20230405-17:15:02.352|453=0|10=147|8=FIX.4.4|9=137|35=D|34=268|49=CLIENT_X|52=20230405-20:15:02.684|56=SERVER_A|1=123|11=185|38=100|40=1|44=25|54=1|55=PETR4|60=20230405-17:15:02.352|453=0|10=150|8=FIX.4.4|9=137|35=D|34=269|49=CLIENT_X|52=20230405-20:15:02.691|56=SERVER_A|1=123|11=186|38=100|40=1|44=25|54=1|55=PETR4|60=20230405-17:15:02.352|453=0|10=150|8=FIX.4.4|9=137|35=D|34=270|49=CLIENT_X|52=20230405-20:15:02.692|56=SERVER_A|1=123|11=187|38=100|40=1|44=25|54=1|55=PETR4|60=20230405-17:15:02.352|453=0|10=144|8=FIX.4.4|9=137|35=D|34=271|49=CLIENT_X|52=20230405-20:15:02.695|56=SERVER_A|1=123|11=188|38=100|40=1|44=25|54=1|55=PETR4|60=20230405-17:15:02.352|453=0|10=149|8=FIX.4.4|9=137|35=D|34=272|49=CLIENT_X|52=20230405-20:15:02.696|56=SERVER_A|1=123|11=189|38=100|40=1|44=25|54=1|55=PETR4|60=20230405-17:15:02.352|453=0|10=152|8=FIX.4.4|9=137|35=D|34=273|49=CLIENT_X|52=20230405-20:15:02.698|56=SERVER_A|1=123|11=190|38=100|40=1|44=25|54=1|55=PETR4|60=20230405-17:15:02.352|453=0|10=147|8=FIX.4.4|9=137|35=D|34=274|49=CLIENT_X|52=20230405-20:15:02.699|56=SERVER_A|1=123|11=191|38=100|40=1|44=25|54=1|55=PETR4|60=20230405-17:15:02.352|453=0|10=150|8=FIX.4.4|9=137|35=D|34=275|49=CLIENT_X|52=20230405-20:15:02.703|56=SERVER_A|1=123|11=192|38=100|40=1|44=25|54=1|55=PETR4|60=20230405-17:15:02.352|453=0|10=138|8=FIX.4.4|9=137|35=D|34=276|49=CLIENT_X|52=20230405-20:15:02.705|56=SERVER_A|1=123|11=193|38=100|40=1|44=25|54=1|55=PETR4|60=20230405-17:15:02.352|453=0|10=142|8=FIX.4.4|9=137|35=D|34=277|49=CLIENT_X|52=20230405-20:15:02.707|56=SERVER_A|1=123|11=194|38=100|40=1|44=25|54=1|55=PETR4|60=20230405-17:15:02.352|453=0|10=146|8=FIX.4.4|9=137|35=D|34=278|49=CLIENT_X|52=20230405-20:15:02.708|56=SERVER_A|1=123|11=195|38=100|40=1|44=25|54=1|55=PETR4|60=20230405-17:15:02.352|453=0|10=149|8=FIX.4.4|9=137|35=D|34=279|49=CLIENT_X|52=20230405-20:15:02.710|56=SERVER_A|1=123|11=196|38=100|40=1|44=25|54=1|55=PETR4|60=20230405-17:15:02.352|453=0|10=144|8=FIX.4.4|9=137|35=D|34=280|49=CLIENT_X|52=20230405-20:15:02.710|56=SERVER_A|1=123|11=197|38=100|40=1|44=25|54=1|55=PETR4|60=20230405-17:15:02.352|453=0|10=137|8=FIX.4.4|9=137|35=D|34=281|49=CLIENT_X|52=20230405-20:15:02.713|56=SERVER_A|1=123|11=198|38=100|40=1|44=25|54=1|55=PETR4|60=20230405-17:15:02.352|453=0|10=142|8=FIX.4.4|9=137|35=D|34=282|49=CLIENT_X|52=20230405-20:15:02.714|56=SERVER_A|1=123|11=199|38=100|40=1|44=25|54=1|55=PETR4|60=20230405-17:15:02.352|453=0|10=145|8=FIX.4.4|9=137|35=D|34=283|49=CLIENT_X|52=20230405-20:15:02.722|56=SERVER_A|1=123|11=200|38=100|40=1|44=25|54=1|55=PETR4|60=20230405-17:15:02.352|453=0|10=128|8=FIX.4.4|9=137|35=D|34=284|49=CLIENT_X|52=20230405-20:15:02.725|56=SERVER_A|1=123|11=201|38=100|40=1|44=25|54=1|55=PETR4|60=20230405-17:15:02.352|453=0|10=133|8=FIX.4.4|9=137|35=D|34=285|49=CLIENT_X|52=20230405-20:15:02.726|56=SERVER_A|1=123|11=202|38=100|40=1|44=25|54=1|55=PETR4|60=20230405-17:15:02.352|453=0|10=136|8=FIX.4.4|9=137|35=D|34=286|49=CLIENT_X|52=20230405-20:15:02.729|56=SERVER_A|1=123|11=203|38=100|40=1|44=25|54=1|55=PETR4|60=20230405-17:15:02.352|453=0|10=141|8=FIX.4.4|9=137|35=D|34=287|49=CLIENT_X|52=20230405-20:15:02.733|56=SERVER_A|1=123|11=204|38=100|40=1|44=25|54=1|55=PETR4|60=20230405-17:15:02.352|453=0|10=138|8=FIX.4.4|9=137|35=D|34=288|49=CLIENT_X|52=20230405-20:15:02.734|56=SERVER_A|1=123|11=205|38=100|40=1|44=25|54=1|55=PETR4|60=20230405-17:15:02.352|453=0|10=141|8=FIX.4.4|9=137|35=D|34=289|49=CLIENT_X|52=20230405-20:15:02.739|56=SERVER_A|1=123|11=206|38=100|40=1|44=25|54=1|55=PETR4|60=20230405-17:15:02.352|453=0|10=148|8=FIX.4.4|9=137|35=D|34=290|49=CLIENT_X|52=20230405-20:15:02.740|56=SERVER_A|1=123|11=207|38=100|40=1|44=25|54=1|55=PETR4|60=20230405-17:15:02.352|453=0|10=133|8=FIX.4.4|9=137|35=D|34=291|49=CLIENT_X|52=20230405-20:15:02.742|56=SERVER_A|1=123|11=208|38=100|40=1|44=25|54=1|55=PETR4|60=20230405-17:15:02.352|453=0|10=137|8=FIX.4.4|9=137|35=D|34=292|49=CLIENT_X|52=20230405-20:15:02.743|56=SERVER_A|1=123|11=209|38=100|40=1|44=25|54=1|55=PETR4|60=20230405-17:15:02.352|453=0|10=140|8=FIX.4.4|9=137|35=D|34=293|49=CLIENT_X|52=20230405-20:15:02.744|56=SERVER_A|1=123|11=210|38=100|40=1|44=25|54=1|55=PETR4|60=20230405-17:15:02.352|453=0|10=134|8=FIX.4.4|9=137|35=D|34=294|49=CLIENT_X|52=20230405-20:15:02.745|56=SERVER_A|1=123|11=211|38=100|40=1|44=25|54=1|55=PETR4|60=20230405-17:15:02.352|453=0|10=137|8=FIX.4.4|9=137|35=D|34=295|49=CLIENT_X|52=20230405-20:15:02.748|56=SERVER_A|1=123|11=212|38=100|40=1|44=25|54=1|55=PETR4|60=20230405-17:15:02.352|453=0|10=142|8=FIX.4.4|9=137|35=D|34=296|49=CLIENT_X|52=20230405-20:15:02.749|56=SERVER_A|1=123|11=213|38=100|40=1|44=25|54=1|55=PETR4|60=20230405-17:15:02.352|453=0|10=145|8=FIX.4.4|9=137|35=D|34=297|49=CLIENT_X|52=20230405-20:15:02.750|56=SERVER_A|1=123|11=214|38=100|40=1|44=25|54=1|55=PETR4|60=20230405-17:15:02.352|453=0|10=139|8=FIX.4.4|9=137|35=D|34=298|49=CLIENT_X|52=20230405-20:15:02.751|56=SERVER_A|1=123|11=215|38=100|40=1|44=25|54=1|55=PETR4|60=20230405-17:15:02.352|453=0|10=142|8=FIX.4.4|9=137|35=D|34=299|49=CLIENT_X|52=20230405-20:15:02.752|56=SERVER_A|1=123|11=216|38=100|40=1|44=25|54=1|55=PETR4|60=20230405-17:15:02.352|453=0|10=145|8=FIX.4.4|9=137|35=D|34=300|49=CLIENT_X|52=20230405-20:15:02.754|56=SERVER_A|1=123|11=217|38=100|40=1|44=25|54=1|55=PETR4|60=20230405-17:15:02.352|453=0|10=131|8=FIX.4.4|9=137|35=D|34=301|49=CLIENT_X|52=20230405-20:15:02.757|56=SERVER_A|1=123|11=218|38=100|40=1|44=25|54=1|55=PETR4|60=20230405-17:15:02.352|453=0|10=136|8=FIX.4.4|9=137|35=D|34=302|49=CLIENT_X|52=20230405-20:15:02.758|56=SERVER_A|1=123|11=219|38=100|40=1|44=25|54=1|55=PETR4|60=20230405-17:15:02.352|453=0|10=139|8=FIX.4.4|9=137|35=D|34=303|49=CLIENT_X|52=20230405-20:15:02.759|56=SERVER_A|1=123|11=220|38=100|40=1|44=25|54=1|55=PETR4|60=20230405-17:15:02.352|453=0|10=133|8=FIX.4.4|9=137|35=D|34=304|49=CLIENT_X|52=20230405-20:15:02.760|56=SERVER_A|1=123|11=221|38=100|40=1|44=25|54=1|55=PETR4|60=20230405-17:15:02.352|453=0|10=127|8=FIX.4.4|9=137|35=D|34=305|49=CLIENT_X|52=20230405-20:15:02.761|56=SERVER_A|1=123|11=222|38=100|40=1|44=25|54=1|55=PETR4|60=20230405-17:15:02.352|453=0|10=130|8=FIX.4.4|9=137|35=D|34=306|49=CLIENT_X|52=20230405-20:15:02.765|56=SERVER_A|1=123|11=223|38=100|40=1|44=25|54=1|55=PETR4|60=20230405-17:15:02.352|453=0|10=136|8=FIX.4.4|9=137|35=D|34=307|49=CLIENT_X|52=20230405-20:15:02.766|56=SERVER_A|1=123|11=224|38=100|40=1|44=25|54=1|55=PETR4|60=20230405-17:15:02.352|453=0|10=139|8=FIX.4.4|9=137|35=D|34=308|49=CLIENT_X|52=20230405-20:15:02.769|56=SERVER_A|1=123|11=225|38=100|40=1|44=25|54=1|55=PETR4|60=20230405-17:15:02.352|453=0|10=144|8=FIX.4.4|9=137|35=D|34=309|49=CLIENT_X|52=20230405-20:15:02.771|56=SERVER_A|1=123|11=226|38=100|40=1|44=25|54=1|55=PETR4|60=20230405-17:15:02.352|453=0|10=139|8=FIX.4.4|9=137|35=D|34=310|49=CLIENT_X|52=20230405-20:15:02.773|56=SERVER_A|1=123|11=227|38=100|40=1|44=25|54=1|55=PETR4|60=20230405-17:15:02.352|453=0|10=134|8=FIX.4.4|9=137|35=D|34=311|49=CLIENT_X|52=20230405-20:15:02.774|56=SERVER_A|1=123|11=228|38=100|40=1|44=25|54=1|55=PETR4|60=20230405-17:15:02.352|453=0|10=137|8=FIX.4.4|9=137|35=D|34=312|49=CLIENT_X|52=20230405-20:15:02.774|56=SERVER_A|1=123|11=229|38=100|40=1|44=25|54=1|55=PETR4|60=20230405-17:15:02.352|453=0|10=139|8=FIX.4.4|9=137|35=D|34=313|49=CLIENT_X|52=20230405-20:15:02.775|56=SERVER_A|1=123|11=230|38=100|40=1|44=25|54=1|55=PETR4|60=20230405-17:15:02.352|453=0|10=133|8=FIX.4.4|9=137|35=D|34=314|49=CLIENT_X|52=20230405-20:15:02.776|56=SERVER_A|1=123|11=231|38=100|40=1|44=25|54=1|55=PETR4|60=20230405-17:15:02.352|453=0|10=136|8=FIX.4.4|9=137|35=D|34=315|49=CLIENT_X|52=20230405-20:15:02.783|56=SERVER_A|1=123|11=232|38=100|40=1|44=25|54=1|55=PETR4|60=20230405-17:15:02.352|453=0|10=136|8=FIX.4.4|9=137|35=D|34=316|49=CLIENT_X|52=20230405-20:15:02.784|56=SERVER_A|1=123|11=233|38=100|40=1|44=25|54=1|55=PETR4|60=20230405-17:15:02.352|453=0|10=139|8=FIX.4.4|9=137|35=D|34=317|49=CLIENT_X|52=20230405-20:15:02.788|56=SERVER_A|1=123|11=234|38=100|40=1|44=25|54=1|55=PETR4|60=20230405-17:15:02.352|453=0|10=145|8=FIX.4.4|9=137|35=D|34=318|49=CLIENT_X|52=20230405-20:15:02.789|56=SERVER_A|1=123|11=235|38=100|40=1|44=25|54=1|55=PETR4|60=20230405-17:15:02.352|453=0|10=148|8=FIX.4.4|9=137|35=D|34=319|49=CLIENT_X|52=20230405-20:15:02.791|56=SERVER_A|1=123|11=236|38=100|40=1|44=25|54=1|55=PETR4|60=20230405-17:15:02.352|453=0|10=143|8=FIX.4.4|9=137|35=D|34=320|49=CLIENT_X|52=20230405-20:15:02.792|56=SERVER_A|1=123|11=237|38=100|40=1|44=25|54=1|55=PETR4|60=20230405-17:15:02.352|453=0|10=137|8=FIX.4.4|9=137|35=D|34=321|49=CLIENT_X|52=20230405-20:15:02.797|56=SERVER_A|1=123|11=238|38=100|40=1|44=25|54=1|55=PETR4|60=20230405-17:15:02.352|453=0|10=144|8=FIX.4.4|9=137|35=D|34=322|49=CLIENT_X|52=20230405-20:15:02.798|56=SERVER_A|1=123|11=239|38=100|40=1|44=25|54=1|55=PETR4|60=20230405-17:15:02.352|453=0|10=147|8=FIX.4.4|9=137|35=D|34=323|49=CLIENT_X|52=20230405-20:15:02.800|56=SERVER_A|1=123|11=240|38=100|40=1|44=25|54=1|55=PETR4|60=20230405-17:15:02.352|453=0|10=124|8=FIX.4.4|9=137|35=D|34=324|49=CLIENT_X|52=20230405-20:15:02.802|56=SERVER_A|1=123|11=241|38=100|40=1|44=25|54=1|55=PETR4|60=20230405-17:15:02.352|453=0|10=128|8=FIX.4.4|9=137|35=D|34=325|49=CLIENT_X|52=20230405-20:15:02.803|56=SERVER_A|1=123|11=242|38=100|40=1|44=25|54=1|55=PETR4|60=20230405-17:15:02.352|453=0|10=131|8=FIX.4.4|9=137|35=D|34=326|49=CLIENT_X|52=20230405-20:15:02.806|56=SERVER_A|1=123|11=243|38=100|40=1|44=25|54=1|55=PETR4|60=20230405-17:15:02.352|453=0|10=136|8=FIX.4.4|9=137|35=D|34=327|49=CLIENT_X|52=20230405-20:15:02.806|56=SERVER_A|1=123|11=244|38=100|40=1|44=25|54=1|55=PETR4|60=20230405-17:15:02.352|453=0|10=138|8=FIX.4.4|9=137|35=D|34=328|49=CLIENT_X|52=20230405-20:15:02.807|56=SERVER_A|1=123|11=245|38=100|40=1|44=25|54=1|55=PETR4|60=20230405-17:15:02.352|453=0|10=141|8=FIX.4.4|9=137|35=D|34=329|49=CLIENT_X|52=20230405-20:15:02.809|56=SERVER_A|1=123|11=246|38=100|40=1|44=25|54=1|55=PETR4|60=20230405-17:15:02.352|453=0|10=145|8=FIX.4.4|9=137|35=D|34=330|49=CLIENT_X|52=20230405-20:15:02.813|56=SERVER_A|1=123|11=247|38=100|40=1|44=25|54=1|55=PETR4|60=20230405-17:15:02.352|453=0|10=133|8=FIX.4.4|9=137|35=D|34=331|49=CLIENT_X|52=20230405-20:15:02.814|56=SERVER_A|1=123|11=248|38=100|40=1|44=25|54=1|55=PETR4|60=20230405-17:15:02.352|453=0|10=136|8=FIX.4.4|9=137|35=D|34=332|49=CLIENT_X|52=20230405-20:15:02.815|56=SERVER_A|1=123|11=249|38=100|40=1|44=25|54=1|55=PETR4|60=20230405-17:15:02.352|453=0|10=139|8=FIX.4.4|9=137|35=D|34=333|49=CLIENT_X|52=20230405-20:15:02.816|56=SERVER_A|1=123|11=250|38=100|40=1|44=25|54=1|55=PETR4|60=20230405-17:15:02.352|453=0|10=133|8=FIX.4.4|9=137|35=D|34=334|49=CLIENT_X|52=20230405-20:15:02.816|56=SERVER_A|1=123|11=251|38=100|40=1|44=25|54=1|55=PETR4|60=20230405-17:15:02.352|453=0|10=135|8=FIX.4.4|9=137|35=D|34=335|49=CLIENT_X|52=20230405-20:15:02.817|56=SERVER_A|1=123|11=252|38=100|40=1|44=25|54=1|55=PETR4|60=20230405-17:15:02.352|453=0|10=138|8=FIX.4.4|9=137|35=D|34=336|49=CLIENT_X|52=20230405-20:15:02.818|56=SERVER_A|1=123|11=253|38=100|40=1|44=25|54=1|55=PETR4|60=20230405-17:15:02.352|453=0|10=141|8=FIX.4.4|9=137|35=D|34=337|49=CLIENT_X|52=20230405-20:15:02.819|56=SERVER_A|1=123|11=254|38=100|40=1|44=25|54=1|55=PETR4|60=20230405-17:15:02.352|453=0|10=144|8=FIX.4.4|9=137|35=D|34=338|49=CLIENT_X|52=20230405-20:15:02.821|56=SERVER_A|1=123|11=255|38=100|40=1|44=25|54=1|55=PETR4|60=20230405-17:15:02.352|453=0|10=139|8=FIX.4.4|9=137|35=D|34=339|49=CLIENT_X|52=20230405-20:15:02.822|56=SERVER_A|1=123|11=256|38=100|40=1|44=25|54=1|55=PETR4|60=20230405-17:15:02.352|453=0|10=142|8=FIX.4.4|9=137|35=D|34=340|49=CLIENT_X|52=20230405-20:15:02.828|56=SERVER_A|1=123|11=257|38=100|40=1|44=25|54=1|55=PETR4|60=20230405-17:15:02.352|453=0|10=141|8=FIX.4.4|9=137|35=D|34=341|49=CLIENT_X|52=20230405-20:15:02.828|56=SERVER_A|1=123|11=258|38=100|40=1|44=25|54=1|55=PETR4|60=20230405-17:15:02.352|453=0|10=143|8=FIX.4.4|9=137|35=D|34=342|49=CLIENT_X|52=20230405-20:15:02.831|56=SERVER_A|1=123|11=259|38=100|40=1|44=25|54=1|55=PETR4|60=20230405-17:15:02.352|453=0|10=139|8=FIX.4.4|9=137|35=D|34=343|49=CLIENT_X|52=20230405-20:15:02.831|56=SERVER_A|1=123|11=260|38=100|40=1|44=25|54=1|55=PETR4|60=20230405-17:15:02.352|453=0|10=132|8=FIX.4.4|9=137|35=D|34=344|49=CLIENT_X|52=20230405-20:15:02.833|56=SERVER_A|1=123|11=261|38=100|40=1|44=25|54=1|55=PETR4|60=20230405-17:15:02.352|453=0|10=136|8=FIX.4.4|9=137|35=D|34=345|49=CLIENT_X|52=20230405-20:15:02.834|56=SERVER_A|1=123|11=262|38=100|40=1|44=25|54=1|55=PETR4|60=20230405-17:15:02.352|453=0|10=139|8=FIX.4.4|9=137|35=D|34=346|49=CLIENT_X|52=20230405-20:15:02.834|56=SERVER_A|1=123|11=263|38=100|40=1|44=25|54=1|55=PETR4|60=20230405-17:15:02.352|453=0|10=141|8=FIX.4.4|9=137|35=D|34=347|49=CLIENT_X|52=20230405-20:15:02.836|56=SERVER_A|1=123|11=264|38=100|40=1|44=25|54=1|55=PETR4|60=20230405-17:15:02.352|453=0|10=145|8=FIX.4.4|9=137|35=D|34=348|49=CLIENT_X|52=20230405-20:15:02.837|56=SERVER_A|1=123|11=265|38=100|40=1|44=25|54=1|55=PETR4|60=20230405-17:15:02.352|453=0|10=148|8=FIX.4.4|9=137|35=D|34=349|49=CLIENT_X|52=20230405-20:15:02.840|56=SERVER_A|1=123|11=266|38=100|40=1|44=25|54=1|55=PETR4|60=20230405-17:15:02.352|453=0|10=144|8=FIX.4.4|9=137|35=D|34=350|49=CLIENT_X|52=20230405-20:15:02.846|56=SERVER_A|1=123|11=267|38=100|40=1|44=25|54=1|55=PETR4|60=20230405-17:15:02.352|453=0|10=143|8=FIX.4.4|9=137|35=D|34=351|49=CLIENT_X|52=20230405-20:15:02.846|56=SERVER_A|1=123|11=268|38=100|40=1|44=25|54=1|55=PETR4|60=20230405-17:15:02.352|453=0|10=145|8=FIX.4.4|9=137|35=D|34=352|49=CLIENT_X|52=20230405-20:15:02.848|56=SERVER_A|1=123|11=269|38=100|40=1|44=25|54=1|55=PETR4|60=20230405-17:15:02.352|453=0|10=149|8=FIX.4.4|9=137|35=D|34=353|49=CLIENT_X|52=20230405-20:15:02.849|56=SERVER_A|1=123|11=270|38=100|40=1|44=25|54=1|55=PETR4|60=20230405-17:15:02.352|453=0|10=143|8=FIX.4.4|9=137|35=D|34=354|49=CLIENT_X|52=20230405-20:15:02.850|56=SERVER_A|1=123|11=271|38=100|40=1|44=25|54=1|55=PETR4|60=20230405-17:15:02.352|453=0|10=137|8=FIX.4.4|9=137|35=D|34=355|49=CLIENT_X|52=20230405-20:15:02.851|56=SERVER_A|1=123|11=272|38=100|40=1|44=25|54=1|55=PETR4|60=20230405-17:15:02.352|453=0|10=140|8=FIX.4.4|9=137|35=D|34=356|49=CLIENT_X|52=20230405-20:15:02.853|56=SERVER_A|1=123|11=273|38=100|40=1|44=25|54=1|55=PETR4|60=20230405-17:15:02.352|453=0|10=144|8=FIX.4.4|9=137|35=D|34=357|49=CLIENT_X|52=20230405-20:15:02.856|56=SERVER_A|1=123|11=274|38=100|40=1|44=25|54=1|55=PETR4|60=20230405-17:15:02.352|453=0|10=149|8=FIX.4.4|9=137|35=D|34=358|49=CLIENT_X|52=20230405-20:15:02.860|56=SERVER_A|1=123|11=275|38=100|40=1|44=25|54=1|55=PETR4|60=20230405-17:15:02.352|453=0|10=146|8=FIX.4.4|9=137|35=D|34=359|49=CLIENT_X|52=20230405-20:15:02.865|56=SERVER_A|1=123|11=276|38=100|40=1|44=25|54=1|55=PETR4|60=20230405-17:15:02.352|453=0|10=153|8=FIX.4.4|9=137|35=D|34=360|49=CLIENT_X|52=20230405-20:15:02.867|56=SERVER_A|1=123|11=277|38=100|40=1|44=25|54=1|55=PETR4|60=20230405-17:15:02.352|453=0|10=148|8=FIX.4.4|9=137|35=D|34=361|49=CLIENT_X|52=20230405-20:15:02.868|56=SERVER_A|1=123|11=278|38=100|40=1|44=25|54=1|55=PETR4|60=20230405-17:15:02.352|453=0|10=151|8=FIX.4.4|9=137|35=D|34=362|49=CLIENT_X|52=20230405-20:15:02.870|56=SERVER_A|1=123|11=279|38=100|40=1|44=25|54=1|55=PETR4|60=20230405-17:15:02.352|453=0|10=146|8=FIX.4.4|9=137|35=D|34=363|49=CLIENT_X|52=20230405-20:15:02.876|56=SERVER_A|1=123|11=280|38=100|40=1|44=25|54=1|55=PETR4|60=20230405-17:15:02.352|453=0|10=145|8=FIX.4.4|9=137|35=D|34=364|49=CLIENT_X|52=20230405-20:15:02.878|56=SERVER_A|1=123|11=281|38=100|40=1|44=25|54=1|55=PETR4|60=20230405-17:15:02.352|453=0|10=149|8=FIX.4.4|9=137|35=D|34=365|49=CLIENT_X|52=20230405-20:15:02.881|56=SERVER_A|1=123|11=282|38=100|40=1|44=25|54=1|55=PETR4|60=20230405-17:15:02.352|453=0|10=145|8=FIX.4.4|9=137|35=D|34=366|49=CLIENT_X|52=20230405-20:15:02.882|56=SERVER_A|1=123|11=283|38=100|40=1|44=25|54=1|55=PETR4|60=20230405-17:15:02.352|453=0|10=148|8=FIX.4.4|9=137|35=D|34=367|49=CLIENT_X|52=20230405-20:15:02.885|56=SERVER_A|1=123|11=284|38=100|40=1|44=25|54=1|55=PETR4|60=20230405-17:15:02.352|453=0|10=153|8=FIX.4.4|9=137|35=D|34=368|49=CLIENT_X|52=20230405-20:15:02.888|56=SERVER_A|1=123|11=285|38=100|40=1|44=25|54=1|55=PETR4|60=20230405-17:15:02.352|453=0|10=158|8=FIX.4.4|9=137|35=D|34=369|49=CLIENT_X|52=20230405-20:15:02.893|56=SERVER_A|1=123|11=286|38=100|40=1|44=25|54=1|55=PETR4|60=20230405-17:15:02.352|453=0|10=156|8=FIX.4.4|9=137|35=D|34=370|49=CLIENT_X|52=20230405-20:15:02.894|56=SERVER_A|1=123|11=287|38=100|40=1|44=25|54=1|55=PETR4|60=20230405-17:15:02.352|453=0|10=150|8=FIX.4.4|9=137|35=D|34=371|49=CLIENT_X|52=20230405-20:15:02.896|56=SERVER_A|1=123|11=288|38=100|40=1|44=25|54=1|55=PETR4|60=20230405-17:15:02.352|453=0|10=154|8=FIX.4.4|9=137|35=D|34=372|49=CLIENT_X|52=20230405-20:15:02.897|56=SERVER_A|1=123|11=289|38=100|40=1|44=25|54=1|55=PETR4|60=20230405-17:15:02.352|453=0|10=157|8=FIX.4.4|9=137|35=D|34=373|49=CLIENT_X|52=20230405-20:15:02.899|56=SERVER_A|1=123|11=290|38=100|40=1|44=25|54=1|55=PETR4|60=20230405-17:15:02.352|453=0|10=152|8=FIX.4.4|9=137|35=D|34=374|49=CLIENT_X|52=20230405-20:15:02.900|56=SERVER_A|1=123|11=291|38=100|40=1|44=25|54=1|55=PETR4|60=20230405-17:15:02.352|453=0|10=137|8=FIX.4.4|9=137|35=D|34=375|49=CLIENT_X|52=20230405-20:15:02.901|56=SERVER_A|1=123|11=292|38=100|40=1|44=25|54=1|55=PETR4|60=20230405-17:15:02.352|453=0|10=140|8=FIX.4.4|9=137|35=D|34=376|49=CLIENT_X|52=20230405-20:15:02.901|56=SERVER_A|1=123|11=293|38=100|40=1|44=25|54=1|55=PETR4|60=20230405-17:15:02.352|453=0|10=142|8=FIX.4.4|9=137|35=D|34=377|49=CLIENT_X|52=20230405-20:15:02.902|56=SERVER_A|1=123|11=294|38=100|40=1|44=25|54=1|55=PETR4|60=20230405-17:15:02.352|453=0|10=145|8=FIX.4.4|9=137|35=D|34=378|49=CLIENT_X|52=20230405-20:15:02.909|56=SERVER_A|1=123|11=295|38=100|40=1|44=25|54=1|55=PETR4|60=20230405-17:15:02.352|453=0|10=154|8=FIX.4.4|9=137|35=D|34=379|49=CLIENT_X|52=20230405-20:15:02.910|56=SERVER_A|1=123|11=296|38=100|40=1|44=25|54=1|55=PETR4|60=20230405-17:15:02.352|453=0|10=148|8=FIX.4.4|9=137|35=D|34=380|49=CLIENT_X|52=20230405-20:15:02.913|56=SERVER_A|1=123|11=297|38=100|40=1|44=25|54=1|55=PETR4|60=20230405-17:15:02.352|453=0|10=144|8=FIX.4.4|9=137|35=D|34=381|49=CLIENT_X|52=20230405-20:15:02.914|56=SERVER_A|1=123|11=298|38=100|40=1|44=25|54=1|55=PETR4|60=20230405-17:15:02.352|453=0|10=147|8=FIX.4.4|9=137|35=D|34=382|49=CLIENT_X|52=20230405-20:15:02.917|56=SERVER_A|1=123|11=299|38=100|40=1|44=25|54=1|55=PETR4|60=20230405-17:15:02.352|453=0|10=152|8=FIX.4.4|9=137|35=D|34=383|49=CLIENT_X|52=20230405-20:15:02.918|56=SERVER_A|1=123|11=300|38=100|40=1|44=25|54=1|55=PETR4|60=20230405-17:15:02.352|453=0|10=137|8=FIX.4.4|9=137|35=D|34=384|49=CLIENT_X|52=20230405-20:15:02.923|56=SERVER_A|1=123|11=301|38=100|40=1|44=25|54=1|55=PETR4|60=20230405-17:15:02.352|453=0|10=135|8=FIX.4.4|9=137|35=D|34=385|49=CLIENT_X|52=20230405-20:15:02.924|56=SERVER_A|1=123|11=302|38=100|40=1|44=25|54=1|55=PETR4|60=20230405-17:15:02.352|453=0|10=138|8=FIX.4.4|9=137|35=D|34=386|49=CLIENT_X|52=20230405-20:15:02.925|56=SERVER_A|1=123|11=303|38=100|40=1|44=25|54=1|55=PETR4|60=20230405-17:15:02.352|453=0|10=141|8=FIX.4.4|9=137|35=D|34=387|49=CLIENT_X|52=20230405-20:15:02.926|56=SERVER_A|1=123|11=304|38=100|40=1|44=25|54=1|55=PETR4|60=20230405-17:15:02.352|453=0|10=144|8=FIX.4.4|9=137|35=D|34=388|49=CLIENT_X|52=20230405-20:15:02.927|56=SERVER_A|1=123|11=305|38=100|40=1|44=25|54=1|55=PETR4|60=20230405-17:15:02.352|453=0|10=147|8=FIX.4.4|9=137|35=D|34=389|49=CLIENT_X|52=20230405-20:15:02.930|56=SERVER_A|1=123|11=306|38=100|40=1|44=25|54=1|55=PETR4|60=20230405-17:15:02.352|453=0|10=143|8=FIX.4.4|9=137|35=D|34=390|49=CLIENT_X|52=20230405-20:15:02.931|56=SERVER_A|1=123|11=307|38=100|40=1|44=25|54=1|55=PETR4|60=20230405-17:15:02.352|453=0|10=137|8=FIX.4.4|9=137|35=D|34=391|49=CLIENT_X|52=20230405-20:15:02.934|56=SERVER_A|1=123|11=308|38=100|40=1|44=25|54=1|55=PETR4|60=20230405-17:15:02.352|453=0|10=142|8=FIX.4.4|9=137|35=D|34=392|49=CLIENT_X|52=20230405-20:15:02.942|56=SERVER_A|1=123|11=309|38=100|40=1|44=25|54=1|55=PETR4|60=20230405-17:15:02.352|453=0|10=143|8=FIX.4.4|9=137|35=D|34=393|49=CLIENT_X|52=20230405-20:15:02.944|56=SERVER_A|1=123|11=310|38=100|40=1|44=25|54=1|55=PETR4|60=20230405-17:15:02.352|453=0|10=138|8=FIX.4.4|9=137|35=D|34=394|49=CLIENT_X|52=20230405-20:15:02.944|56=SERVER_A|1=123|11=311|38=100|40=1|44=25|54=1|55=PETR4|60=20230405-17:15:02.352|453=0|10=140|8=FIX.4.4|9=137|35=D|34=395|49=CLIENT_X|52=20230405-20:15:02.945|56=SERVER_A|1=123|11=312|38=100|40=1|44=25|54=1|55=PETR4|60=20230405-17:15:02.352|453=0|10=143|8=FIX.4.4|9=137|35=D|34=396|49=CLIENT_X|52=20230405-20:15:02.946|56=SERVER_A|1=123|11=313|38=100|40=1|44=25|54=1|55=PETR4|60=20230405-17:15:02.352|453=0|10=146|8=FIX.4.4|9=137|35=D|34=397|49=CLIENT_X|52=20230405-20:15:02.947|56=SERVER_A|1=123|11=314|38=100|40=1|44=25|54=1|55=PETR4|60=20230405-17:15:02.352|453=0|10=149|8=FIX.4.4|9=137|35=D|34=398|49=CLIENT_X|52=20230405-20:15:02.948|56=SERVER_A|1=123|11=315|38=100|40=1|44=25|54=1|55=PETR4|60=20230405-17:15:02.352|453=0|10=152|8=FIX.4.4|9=137|35=D|34=399|49=CLIENT_X|52=20230405-20:15:02.949|56=SERVER_A|1=123|11=316|38=100|40=1|44=25|54=1|55=PETR4|60=20230405-17:15:02.352|453=0|10=155|8=FIX.4.4|9=137|35=D|34=400|49=CLIENT_X|52=20230405-20:15:02.954|56=SERVER_A|1=123|11=317|38=100|40=1|44=25|54=1|55=PETR4|60=20230405-17:15:02.352|453=0|10=135|8=FIX.4.4|9=137|35=D|34=401|49=CLIENT_X|52=20230405-20:15:02.958|56=SERVER_A|1=123|11=318|38=100|40=1|44=25|54=1|55=PETR4|60=20230405-17:15:02.352|453=0|10=141|8=FIX.4.4|9=137|35=D|34=402|49=CLIENT_X|52=20230405-20:15:02.959|56=SERVER_A|1=123|11=319|38=100|40=1|44=25|54=1|55=PETR4|60=20230405-17:15:02.352|453=0|10=144|8=FIX.4.4|9=137|35=D|34=403|49=CLIENT_X|52=20230405-20:15:02.960|56=SERVER_A|1=123|11=320|38=100|40=1|44=25|54=1|55=PETR4|60=20230405-17:15:02.352|453=0|10=129|8=FIX.4.4|9=137|35=D|34=404|49=CLIENT_X|52=20230405-20:15:02.961|56=SERVER_A|1=123|11=321|38=100|40=1|44=25|54=1|55=PETR4|60=20230405-17:15:02.352|453=0|10=132|8=FIX.4.4|9=137|35=D|34=405|49=CLIENT_X|52=20230405-20:15:02.961|56=SERVER_A|1=123|11=322|38=100|40=1|44=25|54=1|55=PETR4|60=20230405-17:15:02.352|453=0|10=134|8=FIX.4.4|9=137|35=D|34=406|49=CLIENT_X|52=20230405-20:15:02.962|56=SERVER_A|1=123|11=323|38=100|40=1|44=25|54=1|55=PETR4|60=20230405-17:15:02.352|453=0|10=137|8=FIX.4.4|9=137|35=D|34=407|49=CLIENT_X|52=20230405-20:15:02.963|56=SERVER_A|1=123|11=324|38=100|40=1|44=25|54=1|55=PETR4|60=20230405-17:15:02.352|453=0|10=140|8=FIX.4.4|9=137|35=D|34=408|49=CLIENT_X|52=20230405-20:15:02.964|56=SERVER_A|1=123|11=325|38=100|40=1|44=25|54=1|55=PETR4|60=20230405-17:15:02.352|453=0|10=143|8=FIX.4.4|9=137|35=D|34=409|49=CLIENT_X|52=20230405-20:15:02.965|56=SERVER_A|1=123|11=326|38=100|40=1|44=25|54=1|55=PETR4|60=20230405-17:15:02.352|453=0|10=146|8=FIX.4.4|9=137|35=D|34=410|49=CLIENT_X|52=20230405-20:15:02.969|56=SERVER_A|1=123|11=327|38=100|40=1|44=25|54=1|55=PETR4|60=20230405-17:15:02.352|453=0|10=143|8=FIX.4.4|9=137|35=D|34=411|49=CLIENT_X|52=20230405-20:15:02.970|56=SERVER_A|1=123|11=328|38=100|40=1|44=25|54=1|55=PETR4|60=20230405-17:15:02.352|453=0|10=137|8=FIX.4.4|9=137|35=D|34=412|49=CLIENT_X|52=20230405-20:15:02.972|56=SERVER_A|1=123|11=329|38=100|40=1|44=25|54=1|55=PETR4|60=20230405-17:15:02.352|453=0|10=141|8=FIX.4.4|9=137|35=D|34=413|49=CLIENT_X|52=20230405-20:15:02.973|56=SERVER_A|1=123|11=330|38=100|40=1|44=25|54=1|55=PETR4|60=20230405-17:15:02.352|453=0|10=135|8=FIX.4.4|9=137|35=D|34=414|49=CLIENT_X|52=20230405-20:15:02.976|56=SERVER_A|1=123|11=331|38=100|40=1|44=25|54=1|55=PETR4|60=20230405-17:15:02.352|453=0|10=140|8=FIX.4.4|9=137|35=D|34=415|49=CLIENT_X|52=20230405-20:15:02.977|56=SERVER_A|1=123|11=332|38=100|40=1|44=25|54=1|55=PETR4|60=20230405-17:15:02.352|453=0|10=143|8=FIX.4.4|9=137|35=D|34=416|49=CLIENT_X|52=20230405-20:15:02.979|56=SERVER_A|1=123|11=333|38=100|40=1|44=25|54=1|55=PETR4|60=20230405-17:15:02.352|453=0|10=147|8=FIX.4.4|9=137|35=D|34=417|49=CLIENT_X|52=20230405-20:15:02.979|56=SERVER_A|1=123|11=334|38=100|40=1|44=25|54=1|55=PETR4|60=20230405-17:15:02.352|453=0|10=149|8=FIX.4.4|9=137|35=D|34=418|49=CLIENT_X|52=20230405-20:15:02.980|56=SERVER_A|1=123|11=335|38=100|40=1|44=25|54=1|55=PETR4|60=20230405-17:15:02.352|453=0|10=143|8=FIX.4.4|9=137|35=D|34=419|49=CLIENT_X|52=20230405-20:15:02.984|56=SERVER_A|1=123|11=336|38=100|40=1|44=25|54=1|55=PETR4|60=20230405-17:15:02.352|453=0|10=149|8=FIX.4.4|9=137|35=D|34=420|49=CLIENT_X|52=20230405-20:15:02.985|56=SERVER_A|1=123|11=337|38=100|40=1|44=25|54=1|55=PETR4|60=20230405-17:15:02.352|453=0|10=143|8=FIX.4.4|9=137|35=D|34=421|49=CLIENT_X|52=20230405-20:15:02.989|56=SERVER_A|1=123|11=338|38=100|40=1|44=25|54=1|55=PETR4|60=20230405-17:15:02.352|453=0|10=149|8=FIX.4.4|9=137|35=D|34=422|49=CLIENT_X|52=20230405-20:15:02.989|56=SERVER_A|1=123|11=339|38=100|40=1|44=25|54=1|55=PETR4|60=20230405-17:15:02.352|453=0|10=151|8=FIX.4.4|9=137|35=D|34=423|49=CLIENT_X|52=20230405-20:15:02.992|56=SERVER_A|1=123|11=340|38=100|40=1|44=25|54=1|55=PETR4|60=20230405-17:15:02.352|453=0|10=138|8=FIX.4.4|9=137|35=D|34=424|49=CLIENT_X|52=20230405-20:15:02.993|56=SERVER_A|1=123|11=341|38=100|40=1|44=25|54=1|55=PETR4|60=20230405-17:15:02.352|453=0|10=141|8=FIX.4.4|9=137|35=D|34=425|49=CLIENT_X|52=20230405-20:15:02.994|56=SERVER_A|1=123|11=342|38=100|40=1|44=25|54=1|55=PETR4|60=20230405-17:15:02.352|453=0|10=144|8=FIX.4.4|9=137|35=D|34=426|49=CLIENT_X|52=20230405-20:15:02.995|56=SERVER_A|1=123|11=343|38=100|40=1|44=25|54=1|55=PETR4|60=20230405-17:15:02.352|453=0|10=147|8=FIX.4.4|9=137|35=D|34=427|49=CLIENT_X|52=20230405-20:15:02.999|56=SERVER_A|1=123|11=344|38=100|40=1|44=25|54=1|55=PETR4|60=20230405-17:15:02.352|453=0|10=153|8=FIX.4.4|9=137|35=D|34=428|49=CLIENT_X|52=20230405-20:15:03.001|56=SERVER_A|1=123|11=345|38=100|40=1|44=25|54=1|55=PETR4|60=20230405-17:15:02.352|453=0|10=130|8=FIX.4.4|9=137|35=D|34=429|49=CLIENT_X|52=20230405-20:15:03.002|56=SERVER_A|1=123|11=346|38=100|40=1|44=25|54=1|55=PETR4|60=20230405-17:15:02.352|453=0|10=133|8=FIX.4.4|9=137|35=D|34=430|49=CLIENT_X|52=20230405-20:15:03.003|56=SERVER_A|1=123|11=347|38=100|40=1|44=25|54=1|55=PETR4|60=20230405-17:15:02.352|453=0|10=127|8=FIX.4.4|9=137|35=D|34=431|49=CLIENT_X|52=20230405-20:15:03.004|56=SERVER_A|1=123|11=348|38=100|40=1|44=25|54=1|55=PETR4|60=20230405-17:15:02.352|453=0|10=130|8=FIX.4.4|9=137|35=D|34=432|49=CLIENT_X|52=20230405-20:15:03.005|56=SERVER_A|1=123|11=349|38=100|40=1|44=25|54=1|55=PETR4|60=20230405-17:15:02.352|453=0|10=133|8=FIX.4.4|9=137|35=D|34=433|49=CLIENT_X|52=20230405-20:15:03.006|56=SERVER_A|1=123|11=350|38=100|40=1|44=25|54=1|55=PETR4|60=20230405-17:15:02.352|453=0|10=127|8=FIX.4.4|9=137|35=D|34=434|49=CLIENT_X|52=20230405-20:15:03.008|56=SERVER_A|1=123|11=351|38=100|40=1|44=25|54=1|55=PETR4|60=20230405-17:15:02.352|453=0|10=131|8=FIX.4.4|9=137|35=D|34=435|49=CLIENT_X|52=20230405-20:15:03.009|56=SERVER_A|1=123|11=352|38=100|40=1|44=25|54=1|55=PETR4|60=20230405-17:15:02.352|453=0|10=134|8=FIX.4.4|9=137|35=D|34=436|49=CLIENT_X|52=20230405-20:15:03.010|56=SERVER_A|1=123|11=353|38=100|40=1|44=25|54=1|55=PETR4|60=20230405-17:15:02.352|453=0|10=128|8=FIX.4.4|9=137|35=D|34=437|49=CLIENT_X|52=20230405-20:15:03.010|56=SERVER_A|1=123|11=354|38=100|40=1|44=25|54=1|55=PETR4|60=20230405-17:15:02.352|453=0|10=130|8=FIX.4.4|9=137|35=D|34=438|49=CLIENT_X|52=20230405-20:15:03.014|56=SERVER_A|1=123|11=355|38=100|40=1|44=25|54=1|55=PETR4|60=20230405-17:15:02.352|453=0|10=136|8=FIX.4.4|9=137|35=D|34=439|49=CLIENT_X|52=20230405-20:15:03.015|56=SERVER_A|1=123|11=356|38=100|40=1|44=25|54=1|55=PETR4|60=20230405-17:15:02.352|453=0|10=139|8=FIX.4.4|9=137|35=D|34=440|49=CLIENT_X|52=20230405-20:15:03.017|56=SERVER_A|1=123|11=357|38=100|40=1|44=25|54=1|55=PETR4|60=20230405-17:15:02.352|453=0|10=134|8=FIX.4.4|9=137|35=D|34=441|49=CLIENT_X|52=20230405-20:15:03.018|56=SERVER_A|1=123|11=358|38=100|40=1|44=25|54=1|55=PETR4|60=20230405-17:15:02.352|453=0|10=137|8=FIX.4.4|9=137|35=D|34=442|49=CLIENT_X|52=20230405-20:15:03.021|56=SERVER_A|1=123|11=359|38=100|40=1|44=25|54=1|55=PETR4|60=20230405-17:15:02.352|453=0|10=133|8=FIX.4.4|9=137|35=D|34=443|49=CLIENT_X|52=20230405-20:15:03.022|56=SERVER_A|1=123|11=360|38=100|40=1|44=25|54=1|55=PETR4|60=20230405-17:15:02.352|453=0|10=127|8=FIX.4.4|9=137|35=D|34=444|49=CLIENT_X|52=20230405-20:15:03.023|56=SERVER_A|1=123|11=361|38=100|40=1|44=25|54=1|55=PETR4|60=20230405-17:15:02.352|453=0|10=130|8=FIX.4.4|9=137|35=D|34=445|49=CLIENT_X|52=20230405-20:15:03.024|56=SERVER_A|1=123|11=362|38=100|40=1|44=25|54=1|55=PETR4|60=20230405-17:15:02.352|453=0|10=133|8=FIX.4.4|9=137|35=D|34=446|49=CLIENT_X|52=20230405-20:15:03.024|56=SERVER_A|1=123|11=363|38=100|40=1|44=25|54=1|55=PETR4|60=20230405-17:15:02.352|453=0|10=135|8=FIX.4.4|9=137|35=D|34=447|49=CLIENT_X|52=20230405-20:15:03.025|56=SERVER_A|1=123|11=364|38=100|40=1|44=25|54=1|55=PETR4|60=20230405-17:15:02.352|453=0|10=138|8=FIX.4.4|9=137|35=D|34=448|49=CLIENT_X|52=20230405-20:15:03.026|56=SERVER_A|1=123|11=365|38=100|40=1|44=25|54=1|55=PETR4|60=20230405-17:15:02.352|453=0|10=141|8=FIX.4.4|9=137|35=D|34=449|49=CLIENT_X|52=20230405-20:15:03.031|56=SERVER_A|1=123|11=366|38=100|40=1|44=25|54=1|55=PETR4|60=20230405-17:15:02.352|453=0|10=139|8=FIX.4.4|9=137|35=D|34=450|49=CLIENT_X|52=20230405-20:15:03.032|56=SERVER_A|1=123|11=367|38=100|40=1|44=25|54=1|55=PETR4|60=20230405-17:15:02.352|453=0|10=133|8=FIX.4.4|9=137|35=D|34=451|49=CLIENT_X|52=20230405-20:15:03.036|56=SERVER_A|1=123|11=368|38=100|40=1|44=25|54=1|55=PETR4|60=20230405-17:15:02.352|453=0|10=139|8=FIX.4.4|9=137|35=D|34=452|49=CLIENT_X|52=20230405-20:15:03.038|56=SERVER_A|1=123|11=369|38=100|40=1|44=25|54=1|55=PETR4|60=20230405-17:15:02.352|453=0|10=143|8=FIX.4.4|9=137|35=D|34=453|49=CLIENT_X|52=20230405-20:15:03.039|56=SERVER_A|1=123|11=370|38=100|40=1|44=25|54=1|55=PETR4|60=20230405-17:15:02.352|453=0|10=137|8=FIX.4.4|9=137|35=D|34=454|49=CLIENT_X|52=20230405-20:15:03.040|56=SERVER_A|1=123|11=371|38=100|40=1|44=25|54=1|55=PETR4|60=20230405-17:15:02.352|453=0|10=131|8=FIX.4.4|9=137|35=D|34=455|49=CLIENT_X|52=20230405-20:15:03.041|56=SERVER_A|1=123|11=372|38=100|40=1|44=25|54=1|55=PETR4|60=20230405-17:15:02.352|453=0|10=134|8=FIX.4.4|9=137|35=D|34=456|49=CLIENT_X|52=20230405-20:15:03.042|56=SERVER_A|1=123|11=373|38=100|40=1|44=25|54=1|55=PETR4|60=20230405-17:15:02.352|453=0|10=137|8=FIX.4.4|9=137|35=D|34=457|49=CLIENT_X|52=20230405-20:15:03.046|56=SERVER_A|1=123|11=374|38=100|40=1|44=25|54=1|55=PETR4|60=20230405-17:15:02.352|453=0|10=143|8=FIX.4.4|9=137|35=D|34=458|49=CLIENT_X|52=20230405-20:15:03.046|56=SERVER_A|1=123|11=375|38=100|40=1|44=25|54=1|55=PETR4|60=20230405-17:15:02.352|453=0|10=145|8=FIX.4.4|9=137|35=D|34=459|49=CLIENT_X|52=20230405-20:15:03.049|56=SERVER_A|1=123|11=376|38=100|40=1|44=25|54=1|55=PETR4|60=20230405-17:15:02.352|453=0|10=150|8=FIX.4.4|9=137|35=D|34=460|49=CLIENT_X|52=20230405-20:15:03.050|56=SERVER_A|1=123|11=377|38=100|40=1|44=25|54=1|55=PETR4|60=20230405-17:15:02.352|453=0|10=135|8=FIX.4.4|9=137|35=D|34=461|49=CLIENT_X|52=20230405-20:15:03.052|56=SERVER_A|1=123|11=378|38=100|40=1|44=25|54=1|55=PETR4|60=20230405-17:15:02.352|453=0|10=139|8=FIX.4.4|9=137|35=D|34=462|49=CLIENT_X|52=20230405-20:15:03.054|56=SERVER_A|1=123|11=379|38=100|40=1|44=25|54=1|55=PETR4|60=20230405-17:15:02.352|453=0|10=143|8=FIX.4.4|9=137|35=D|34=463|49=CLIENT_X|52=20230405-20:15:03.055|56=SERVER_A|1=123|11=380|38=100|40=1|44=25|54=1|55=PETR4|60=20230405-17:15:02.352|453=0|10=137|8=FIX.4.4|9=137|35=D|34=464|49=CLIENT_X|52=20230405-20:15:03.058|56=SERVER_A|1=123|11=381|38=100|40=1|44=25|54=1|55=PETR4|60=20230405-17:15:02.352|453=0|10=142|8=FIX.4.4|9=137|35=D|34=465|49=CLIENT_X|52=20230405-20:15:03.065|56=SERVER_A|1=123|11=382|38=100|40=1|44=25|54=1|55=PETR4|60=20230405-17:15:02.352|453=0|10=142|8=FIX.4.4|9=137|35=D|34=466|49=CLIENT_X|52=20230405-20:15:03.067|56=SERVER_A|1=123|11=383|38=100|40=1|44=25|54=1|55=PETR4|60=20230405-17:15:02.352|453=0|10=146|8=FIX.4.4|9=137|35=D|34=467|49=CLIENT_X|52=20230405-20:15:03.071|56=SERVER_A|1=123|11=384|38=100|40=1|44=25|54=1|55=PETR4|60=20230405-17:15:02.352|453=0|10=143|8=FIX.4.4|9=137|35=D|34=468|49=CLIENT_X|52=20230405-20:15:03.074|56=SERVER_A|1=123|11=385|38=100|40=1|44=25|54=1|55=PETR4|60=20230405-17:15:02.352|453=0|10=148|8=FIX.4.4|9=137|35=D|34=469|49=CLIENT_X|52=20230405-20:15:03.078|56=SERVER_A|1=123|11=386|38=100|40=1|44=25|54=1|55=PETR4|60=20230405-17:15:02.352|453=0|10=154|8=FIX.4.4|9=137|35=D|34=470|49=CLIENT_X|52=20230405-20:15:03.079|56=SERVER_A|1=123|11=387|38=100|40=1|44=25|54=1|55=PETR4|60=20230405-17:15:02.352|453=0|10=148|8=FIX.4.4|9=137|35=D|34=471|49=CLIENT_X|52=20230405-20:15:03.084|56=SERVER_A|1=123|11=388|38=100|40=1|44=25|54=1|55=PETR4|60=20230405-17:15:02.352|453=0|10=146|8=FIX.4.4|9=137|35=D|34=472|49=CLIENT_X|52=20230405-20:15:03.085|56=SERVER_A|1=123|11=389|38=100|40=1|44=25|54=1|55=PETR4|60=20230405-17:15:02.352|453=0|10=149|8=FIX.4.4|9=137|35=D|34=473|49=CLIENT_X|52=20230405-20:15:03.088|56=SERVER_A|1=123|11=390|38=100|40=1|44=25|54=1|55=PETR4|60=20230405-17:15:02.352|453=0|10=145|8=FIX.4.4|9=137|35=D|34=474|49=CLIENT_X|52=20230405-20:15:03.094|56=SERVER_A|1=123|11=391|38=100|40=1|44=25|54=1|55=PETR4|60=20230405-17:15:02.352|453=0|10=144|8=FIX.4.4|9=137|35=D|34=475|49=CLIENT_X|52=20230405-20:15:03.095|56=SERVER_A|1=123|11=392|38=100|40=1|44=25|54=1|55=PETR4|60=20230405-17:15:02.352|453=0|10=147|8=FIX.4.4|9=137|35=D|34=476|49=CLIENT_X|52=20230405-20:15:03.096|56=SERVER_A|1=123|11=393|38=100|40=1|44=25|54=1|55=PETR4|60=20230405-17:15:02.352|453=0|10=150|8=FIX.4.4|9=137|35=D|34=477|49=CLIENT_X|52=20230405-20:15:03.096|56=SERVER_A|1=123|11=394|38=100|40=1|44=25|54=1|55=PETR4|60=20230405-17:15:02.352|453=0|10=152|8=FIX.4.4|9=137|35=D|34=478|49=CLIENT_X|52=20230405-20:15:03.099|56=SERVER_A|1=123|11=395|38=100|40=1|44=25|54=1|55=PETR4|60=20230405-17:15:02.352|453=0|10=157|8=FIX.4.4|9=137|35=D|34=479|49=CLIENT_X|52=20230405-20:15:03.101|56=SERVER_A|1=123|11=396|38=100|40=1|44=25|54=1|55=PETR4|60=20230405-17:15:02.352|453=0|10=143|8=FIX.4.4|9=137|35=D|34=480|49=CLIENT_X|52=20230405-20:15:03.102|56=SERVER_A|1=123|11=397|38=100|40=1|44=25|54=1|55=PETR4|60=20230405-17:15:02.352|453=0|10=137|8=FIX.4.4|9=137|35=D|34=481|49=CLIENT_X|52=20230405-20:15:03.103|56=SERVER_A|1=123|11=398|38=100|40=1|44=25|54=1|55=PETR4|60=20230405-17:15:02.352|453=0|10=140|8=FIX.4.4|9=137|35=D|34=482|49=CLIENT_X|52=20230405-20:15:03.111|56=SERVER_A|1=123|11=399|38=100|40=1|44=25|54=1|55=PETR4|60=20230405-17:15:02.352|453=0|10=141|8=FIX.4.4|9=137|35=D|34=483|49=CLIENT_X|52=20230405-20:15:03.112|56=SERVER_A|1=123|11=400|38=100|40=1|44=25|54=1|55=PETR4|60=20230405-17:15:02.352|453=0|10=126|8=FIX.4.4|9=137|35=D|34=484|49=CLIENT_X|52=20230405-20:15:03.112|56=SERVER_A|1=123|11=401|38=100|40=1|44=25|54=1|55=PETR4|60=20230405-17:15:02.352|453=0|10=128|8=FIX.4.4|9=137|35=D|34=485|49=CLIENT_X|52=20230405-20:15:03.116|56=SERVER_A|1=123|11=402|38=100|40=1|44=25|54=1|55=PETR4|60=20230405-17:15:02.352|453=0|10=134|8=FIX.4.4|9=137|35=D|34=486|49=CLIENT_X|52=20230405-20:15:03.117|56=SERVER_A|1=123|11=403|38=100|40=1|44=25|54=1|55=PETR4|60=20230405-17:15:02.352|453=0|10=137|8=FIX.4.4|9=137|35=D|34=487|49=CLIENT_X|52=20230405-20:15:03.119|56=SERVER_A|1=123|11=404|38=100|40=1|44=25|54=1|55=PETR4|60=20230405-17:15:02.352|453=0|10=141|8=FIX.4.4|9=137|35=D|34=488|49=CLIENT_X|52=20230405-20:15:03.121|56=SERVER_A|1=123|11=405|38=100|40=1|44=25|54=1|55=PETR4|60=20230405-17:15:02.352|453=0|10=136|8=FIX.4.4|9=137|35=D|34=489|49=CLIENT_X|52=20230405-20:15:03.126|56=SERVER_A|1=123|11=406|38=100|40=1|44=25|54=1|55=PETR4|60=20230405-17:15:02.352|453=0|10=143|8=FIX.4.4|9=137|35=D|34=490|49=CLIENT_X|52=20230405-20:15:03.128|56=SERVER_A|1=123|11=407|38=100|40=1|44=25|54=1|55=PETR4|60=20230405-17:15:02.352|453=0|10=138|8=FIX.4.4|9=137|35=D|34=491|49=CLIENT_X|52=20230405-20:15:03.129|56=SERVER_A|1=123|11=408|38=100|40=1|44=25|54=1|55=PETR4|60=20230405-17:15:02.352|453=0|10=141|8=FIX.4.4|9=137|35=D|34=492|49=CLIENT_X|52=20230405-20:15:03.130|56=SERVER_A|1=123|11=409|38=100|40=1|44=25|54=1|55=PETR4|60=20230405-17:15:02.352|453=0|10=135|8=FIX.4.4|9=137|35=D|34=493|49=CLIENT_X|52=20230405-20:15:03.131|56=SERVER_A|1=123|11=410|38=100|40=1|44=25|54=1|55=PETR4|60=20230405-17:15:02.352|453=0|10=129|8=FIX.4.4|9=137|35=D|34=494|49=CLIENT_X|52=20230405-20:15:03.132|56=SERVER_A|1=123|11=411|38=100|40=1|44=25|54=1|55=PETR4|60=20230405-17:15:02.352|453=0|10=132|8=FIX.4.4|9=137|35=D|34=495|49=CLIENT_X|52=20230405-20:15:03.133|56=SERVER_A|1=123|11=412|38=100|40=1|44=25|54=1|55=PETR4|60=20230405-17:15:02.352|453=0|10=135|8=FIX.4.4|9=137|35=D|34=496|49=CLIENT_X|52=20230405-20:15:03.134|56=SERVER_A|1=123|11=413|38=100|40=1|44=25|54=1|55=PETR4|60=20230405-17:15:02.352|453=0|10=138|8=FIX.4.4|9=137|35=D|34=497|49=CLIENT_X|52=20230405-20:15:03.135|56=SERVER_A|1=123|11=414|38=100|40=1|44=25|54=1|55=PETR4|60=20230405-17:15:02.352|453=0|10=141|8=FIX.4.4|9=137|35=D|34=498|49=CLIENT_X|52=20230405-20:15:03.143|56=SERVER_A|1=123|11=415|38=100|40=1|44=25|54=1|55=PETR4|60=20230405-17:15:02.352|453=0|10=142|8=FIX.4.4|9=137|35=D|34=499|49=CLIENT_X|52=20230405-20:15:03.143|56=SERVER_A|1=123|11=416|38=100|40=1|44=25|54=1|55=PETR4|60=20230405-17:15:02.352|453=0|10=144|8=FIX.4.4|9=137|35=D|34=500|49=CLIENT_X|52=20230405-20:15:03.146|56=SERVER_A|1=123|11=417|38=100|40=1|44=25|54=1|55=PETR4|60=20230405-17:15:02.352|453=0|10=131|8=FIX.4.4|9=137|35=D|34=501|49=CLIENT_X|52=20230405-20:15:03.147|56=SERVER_A|1=123|11=418|38=100|40=1|44=25|54=1|55=PETR4|60=20230405-17:15:02.352|453=0|10=134|8=FIX.4.4|9=137|35=D|34=502|49=CLIENT_X|52=20230405-20:15:03.148|56=SERVER_A|1=123|11=419|38=100|40=1|44=25|54=1|55=PETR4|60=20230405-17:15:02.352|453=0|10=137|8=FIX.4.4|9=137|35=D|34=503|49=CLIENT_X|52=20230405-20:15:03.149|56=SERVER_A|1=123|11=420|38=100|40=1|44=25|54=1|55=PETR4|60=20230405-17:15:02.352|453=0|10=131|8=FIX.4.4|9=137|35=D|34=504|49=CLIENT_X|52=20230405-20:15:03.150|56=SERVER_A|1=123|11=421|38=100|40=1|44=25|54=1|55=PETR4|60=20230405-17:15:02.352|453=0|10=125|8=FIX.4.4|9=137|35=D|34=505|49=CLIENT_X|52=20230405-20:15:03.150|56=SERVER_A|1=123|11=422|38=100|40=1|44=25|54=1|55=PETR4|60=20230405-17:15:02.352|453=0|10=127|8=FIX.4.4|9=137|35=D|34=506|49=CLIENT_X|52=20230405-20:15:03.151|56=SERVER_A|1=123|11=423|38=100|40=1|44=25|54=1|55=PETR4|60=20230405-17:15:02.352|453=0|10=130|8=FIX.4.4|9=137|35=D|34=507|49=CLIENT_X|52=20230405-20:15:03.158|56=SERVER_A|1=123|11=424|38=100|40=1|44=25|54=1|55=PETR4|60=20230405-17:15:02.352|453=0|10=139|8=FIX.4.4|9=137|35=D|34=508|49=CLIENT_X|52=20230405-20:15:03.159|56=SERVER_A|1=123|11=425|38=100|40=1|44=25|54=1|55=PETR4|60=20230405-17:15:02.352|453=0|10=142|8=FIX.4.4|9=137|35=D|34=509|49=CLIENT_X|52=20230405-20:15:03.160|56=SERVER_A|1=123|11=426|38=100|40=1|44=25|54=1|55=PETR4|60=20230405-17:15:02.352|453=0|10=136|8=FIX.4.4|9=137|35=D|34=510|49=CLIENT_X|52=20230405-20:15:03.161|56=SERVER_A|1=123|11=427|38=100|40=1|44=25|54=1|55=PETR4|60=20230405-17:15:02.352|453=0|10=130|8=FIX.4.4|9=137|35=D|34=511|49=CLIENT_X|52=20230405-20:15:03.162|56=SERVER_A|1=123|11=428|38=100|40=1|44=25|54=1|55=PETR4|60=20230405-17:15:02.352|453=0|10=133|8=FIX.4.4|9=137|35=D|34=512|49=CLIENT_X|52=20230405-20:15:03.163|56=SERVER_A|1=123|11=429|38=100|40=1|44=25|54=1|55=PETR4|60=20230405-17:15:02.352|453=0|10=136|8=FIX.4.4|9=137|35=D|34=513|49=CLIENT_X|52=20230405-20:15:03.163|56=SERVER_A|1=123|11=430|38=100|40=1|44=25|54=1|55=PETR4|60=20230405-17:15:02.352|453=0|10=129|8=FIX.4.4|9=137|35=D|34=514|49=CLIENT_X|52=20230405-20:15:03.166|56=SERVER_A|1=123|11=431|38=100|40=1|44=25|54=1|55=PETR4|60=20230405-17:15:02.352|453=0|10=134|8=FIX.4.4|9=137|35=D|34=515|49=CLIENT_X|52=20230405-20:15:03.167|56=SERVER_A|1=123|11=432|38=100|40=1|44=25|54=1|55=PETR4|60=20230405-17:15:02.352|453=0|10=137|8=FIX.4.4|9=137|35=D|34=516|49=CLIENT_X|52=20230405-20:15:03.173|56=SERVER_A|1=123|11=433|38=100|40=1|44=25|54=1|55=PETR4|60=20230405-17:15:02.352|453=0|10=136|8=FIX.4.4|9=137|35=D|34=517|49=CLIENT_X|52=20230405-20:15:03.174|56=SERVER_A|1=123|11=434|38=100|40=1|44=25|54=1|55=PETR4|60=20230405-17:15:02.352|453=0|10=139|8=FIX.4.4|9=137|35=D|34=518|49=CLIENT_X|52=20230405-20:15:03.176|56=SERVER_A|1=123|11=435|38=100|40=1|44=25|54=1|55=PETR4|60=20230405-17:15:02.352|453=0|10=143|8=FIX.4.4|9=137|35=D|34=519|49=CLIENT_X|52=20230405-20:15:03.177|56=SERVER_A|1=123|11=436|38=100|40=1|44=25|54=1|55=PETR4|60=20230405-17:15:02.352|453=0|10=146|8=FIX.4.4|9=137|35=D|34=520|49=CLIENT_X|52=20230405-20:15:03.177|56=SERVER_A|1=123|11=437|38=100|40=1|44=25|54=1|55=PETR4|60=20230405-17:15:02.352|453=0|10=139|8=FIX.4.4|9=137|35=D|34=521|49=CLIENT_X|52=20230405-20:15:03.178|56=SERVER_A|1=123|11=438|38=100|40=1|44=25|54=1|55=PETR4|60=20230405-17:15:02.352|453=0|10=142|8=FIX.4.4|9=137|35=D|34=522|49=CLIENT_X|52=20230405-20:15:03.179|56=SERVER_A|1=123|11=439|38=100|40=1|44=25|54=1|55=PETR4|60=20230405-17:15:02.352|453=0|10=145|8=FIX.4.4|9=137|35=D|34=523|49=CLIENT_X|52=20230405-20:15:03.179|56=SERVER_A|1=123|11=440|38=100|40=1|44=25|54=1|55=PETR4|60=20230405-17:15:02.352|453=0|10=138|8=FIX.4.4|9=137|35=D|34=524|49=CLIENT_X|52=20230405-20:15:03.180|56=SERVER_A|1=123|11=441|38=100|40=1|44=25|54=1|55=PETR4|60=20230405-17:15:02.352|453=0|10=132|8=FIX.4.4|9=137|35=D|34=525|49=CLIENT_X|52=20230405-20:15:03.181|56=SERVER_A|1=123|11=442|38=100|40=1|44=25|54=1|55=PETR4|60=20230405-17:15:02.352|453=0|10=135|8=FIX.4.4|9=137|35=D|34=526|49=CLIENT_X|52=20230405-20:15:03.186|56=SERVER_A|1=123|11=443|38=100|40=1|44=25|54=1|55=PETR4|60=20230405-17:15:02.352|453=0|10=142|8=FIX.4.4|9=137|35=D|34=527|49=CLIENT_X|52=20230405-20:15:03.189|56=SERVER_A|1=123|11=444|38=100|40=1|44=25|54=1|55=PETR4|60=20230405-17:15:02.352|453=0|10=147|8=FIX.4.4|9=137|35=D|34=528|49=CLIENT_X|52=20230405-20:15:03.191|56=SERVER_A|1=123|11=445|38=100|40=1|44=25|54=1|55=PETR4|60=20230405-17:15:02.352|453=0|10=142|8=FIX.4.4|9=137|35=D|34=529|49=CLIENT_X|52=20230405-20:15:03.192|56=SERVER_A|1=123|11=446|38=100|40=1|44=25|54=1|55=PETR4|60=20230405-17:15:02.352|453=0|10=145|8=FIX.4.4|9=137|35=D|34=530|49=CLIENT_X|52=20230405-20:15:03.194|56=SERVER_A|1=123|11=447|38=100|40=1|44=25|54=1|55=PETR4|60=20230405-17:15:02.352|453=0|10=140|8=FIX.4.4|9=137|35=D|34=531|49=CLIENT_X|52=20230405-20:15:03.194|56=SERVER_A|1=123|11=448|38=100|40=1|44=25|54=1|55=PETR4|60=20230405-17:15:02.352|453=0|10=142|8=FIX.4.4|9=137|35=D|34=532|49=CLIENT_X|52=20230405-20:15:03.195|56=SERVER_A|1=123|11=449|38=100|40=1|44=25|54=1|55=PETR4|60=20230405-17:15:02.352|453=0|10=145|8=FIX.4.4|9=137|35=D|34=533|49=CLIENT_X|52=20230405-20:15:03.196|56=SERVER_A|1=123|11=450|38=100|40=1|44=25|54=1|55=PETR4|60=20230405-17:15:02.352|453=0|10=139|8=FIX.4.4|9=137|35=D|34=534|49=CLIENT_X|52=20230405-20:15:03.197|56=SERVER_A|1=123|11=451|38=100|40=1|44=25|54=1|55=PETR4|60=20230405-17:15:02.352|453=0|10=142|8=FIX.4.4|9=137|35=D|34=535|49=CLIENT_X|52=20230405-20:15:03.198|56=SERVER_A|1=123|11=452|38=100|40=1|44=25|54=1|55=PETR4|60=20230405-17:15:02.352|453=0|10=145|8=FIX.4.4|9=137|35=D|34=536|49=CLIENT_X|52=20230405-20:15:03.203|56=SERVER_A|1=123|11=453|38=100|40=1|44=25|54=1|55=PETR4|60=20230405-17:15:02.352|453=0|10=134|8=FIX.4.4|9=137|35=D|34=537|49=CLIENT_X|52=20230405-20:15:03.205|56=SERVER_A|1=123|11=454|38=100|40=1|44=25|54=1|55=PETR4|60=20230405-17:15:02.352|453=0|10=138|8=FIX.4.4|9=137|35=D|34=538|49=CLIENT_X|52=20230405-20:15:03.209|56=SERVER_A|1=123|11=455|38=100|40=1|44=25|54=1|55=PETR4|60=20230405-17:15:02.352|453=0|10=144|8=FIX.4.4|9=137|35=D|34=539|49=CLIENT_X|52=20230405-20:15:03.210|56=SERVER_A|1=123|11=456|38=100|40=1|44=25|54=1|55=PETR4|60=20230405-17:15:02.352|453=0|10=138|8=FIX.4.4|9=137|35=D|34=540|49=CLIENT_X|52=20230405-20:15:03.211|56=SERVER_A|1=123|11=457|38=100|40=1|44=25|54=1|55=PETR4|60=20230405-17:15:02.352|453=0|10=132|8=FIX.4.4|9=137|35=D|34=541|49=CLIENT_X|52=20230405-20:15:03.213|56=SERVER_A|1=123|11=458|38=100|40=1|44=25|54=1|55=PETR4|60=20230405-17:15:02.352|453=0|10=136|8=FIX.4.4|9=137|35=D|34=542|49=CLIENT_X|52=20230405-20:15:03.217|56=SERVER_A|1=123|11=459|38=100|40=1|44=25|54=1|55=PETR4|60=20230405-17:15:02.352|453=0|10=142|8=FIX.4.4|9=137|35=D|34=543|49=CLIENT_X|52=20230405-20:15:03.218|56=SERVER_A|1=123|11=460|38=100|40=1|44=25|54=1|55=PETR4|60=20230405-17:15:02.352|453=0|10=136|8=FIX.4.4|9=137|35=D|34=544|49=CLIENT_X|52=20230405-20:15:03.221|56=SERVER_A|1=123|11=461|38=100|40=1|44=25|54=1|55=PETR4|60=20230405-17:15:02.352|453=0|10=132|8=FIX.4.4|9=137|35=D|34=545|49=CLIENT_X|52=20230405-20:15:03.223|56=SERVER_A|1=123|11=462|38=100|40=1|44=25|54=1|55=PETR4|60=20230405-17:15:02.352|453=0|10=136|8=FIX.4.4|9=137|35=D|34=546|49=CLIENT_X|52=20230405-20:15:03.225|56=SERVER_A|1=123|11=463|38=100|40=1|44=25|54=1|55=PETR4|60=20230405-17:15:02.352|453=0|10=140|8=FIX.4.4|9=137|35=D|34=547|49=CLIENT_X|52=20230405-20:15:03.225|56=SERVER_A|1=123|11=464|38=100|40=1|44=25|54=1|55=PETR4|60=20230405-17:15:02.352|453=0|10=142|8=FIX.4.4|9=137|35=D|34=548|49=CLIENT_X|52=20230405-20:15:03.226|56=SERVER_A|1=123|11=465|38=100|40=1|44=25|54=1|55=PETR4|60=20230405-17:15:02.352|453=0|10=145|8=FIX.4.4|9=137|35=D|34=549|49=CLIENT_X|52=20230405-20:15:03.227|56=SERVER_A|1=123|11=466|38=100|40=1|44=25|54=1|55=PETR4|60=20230405-17:15:02.352|453=0|10=148|8=FIX.4.4|9=137|35=D|34=550|49=CLIENT_X|52=20230405-20:15:03.228|56=SERVER_A|1=123|11=467|38=100|40=1|44=25|54=1|55=PETR4|60=20230405-17:15:02.352|453=0|10=142|8=FIX.4.4|9=137|35=D|34=551|49=CLIENT_X|52=20230405-20:15:03.233|56=SERVER_A|1=123|11=468|38=100|40=1|44=25|54=1|55=PETR4|60=20230405-17:15:02.352|453=0|10=140|8=FIX.4.4|9=137|35=D|34=552|49=CLIENT_X|52=20230405-20:15:03.234|56=SERVER_A|1=123|11=469|38=100|40=1|44=25|54=1|55=PETR4|60=20230405-17:15:02.352|453=0|10=143|8=FIX.4.4|9=137|35=D|34=553|49=CLIENT_X|52=20230405-20:15:03.235|56=SERVER_A|1=123|11=470|38=100|40=1|44=25|54=1|55=PETR4|60=20230405-17:15:02.352|453=0|10=137|8=FIX.4.4|9=137|35=D|34=554|49=CLIENT_X|52=20230405-20:15:03.236|56=SERVER_A|1=123|11=471|38=100|40=1|44=25|54=1|55=PETR4|60=20230405-17:15:02.352|453=0|10=140|8=FIX.4.4|9=137|35=D|34=555|49=CLIENT_X|52=20230405-20:15:03.239|56=SERVER_A|1=123|11=472|38=100|40=1|44=25|54=1|55=PETR4|60=20230405-17:15:02.352|453=0|10=145|8=FIX.4.4|9=137|35=D|34=556|49=CLIENT_X|52=20230405-20:15:03.240|56=SERVER_A|1=123|11=473|38=100|40=1|44=25|54=1|55=PETR4|60=20230405-17:15:02.352|453=0|10=139|8=FIX.4.4|9=137|35=D|34=557|49=CLIENT_X|52=20230405-20:15:03.242|56=SERVER_A|1=123|11=474|38=100|40=1|44=25|54=1|55=PETR4|60=20230405-17:15:02.352|453=0|10=143|8=FIX.4.4|9=137|35=D|34=558|49=CLIENT_X|52=20230405-20:15:03.243|56=SERVER_A|1=123|11=475|38=100|40=1|44=25|54=1|55=PETR4|60=20230405-17:15:02.352|453=0|10=146|8=FIX.4.4|9=137|35=D|34=559|49=CLIENT_X|52=20230405-20:15:03.247|56=SERVER_A|1=123|11=476|38=100|40=1|44=25|54=1|55=PETR4|60=20230405-17:15:02.352|453=0|10=152|8=FIX.4.4|9=137|35=D|34=560|49=CLIENT_X|52=20230405-20:15:03.248|56=SERVER_A|1=123|11=477|38=100|40=1|44=25|54=1|55=PETR4|60=20230405-17:15:02.352|453=0|10=146|8=FIX.4.4|9=137|35=D|34=561|49=CLIENT_X|52=20230405-20:15:03.249|56=SERVER_A|1=123|11=478|38=100|40=1|44=25|54=1|55=PETR4|60=20230405-17:15:02.352|453=0|10=149|8=FIX.4.4|9=137|35=D|34=562|49=CLIENT_X|52=20230405-20:15:03.250|56=SERVER_A|1=123|11=479|38=100|40=1|44=25|54=1|55=PETR4|60=20230405-17:15:02.352|453=0|10=143|8=FIX.4.4|9=137|35=D|34=563|49=CLIENT_X|52=20230405-20:15:03.252|56=SERVER_A|1=123|11=480|38=100|40=1|44=25|54=1|55=PETR4|60=20230405-17:15:02.352|453=0|10=138|8=FIX.4.4|9=137|35=D|34=564|49=CLIENT_X|52=20230405-20:15:03.253|56=SERVER_A|1=123|11=481|38=100|40=1|44=25|54=1|55=PETR4|60=20230405-17:15:02.352|453=0|10=141|8=FIX.4.4|9=137|35=D|34=565|49=CLIENT_X|52=20230405-20:15:03.255|56=SERVER_A|1=123|11=482|38=100|40=1|44=25|54=1|55=PETR4|60=20230405-17:15:02.352|453=0|10=145|8=FIX.4.4|9=137|35=D|34=566|49=CLIENT_X|52=20230405-20:15:03.257|56=SERVER_A|1=123|11=483|38=100|40=1|44=25|54=1|55=PETR4|60=20230405-17:15:02.352|453=0|10=149|8=FIX.4.4|9=137|35=D|34=567|49=CLIENT_X|52=20230405-20:15:03.258|56=SERVER_A|1=123|11=484|38=100|40=1|44=25|54=1|55=PETR4|60=20230405-17:15:02.352|453=0|10=152|8=FIX.4.4|9=137|35=D|34=568|49=CLIENT_X|52=20230405-20:15:03.264|56=SERVER_A|1=123|11=485|38=100|40=1|44=25|54=1|55=PETR4|60=20230405-17:15:02.352|453=0|10=151|8=FIX.4.4|9=137|35=D|34=569|49=CLIENT_X|52=20230405-20:15:03.265|56=SERVER_A|1=123|11=486|38=100|40=1|44=25|54=1|55=PETR4|60=20230405-17:15:02.352|453=0|10=154|8=FIX.4.4|9=137|35=D|34=570|49=CLIENT_X|52=20230405-20:15:03.267|56=SERVER_A|1=123|11=487|38=100|40=1|44=25|54=1|55=PETR4|60=20230405-17:15:02.352|453=0|10=149|8=FIX.4.4|9=137|35=D|34=571|49=CLIENT_X|52=20230405-20:15:03.268|56=SERVER_A|1=123|11=488|38=100|40=1|44=25|54=1|55=PETR4|60=20230405-17:15:02.352|453=0|10=152|8=FIX.4.4|9=137|35=D|34=572|49=CLIENT_X|52=20230405-20:15:03.269|56=SERVER_A|1=123|11=489|38=100|40=1|44=25|54=1|55=PETR4|60=20230405-17:15:02.352|453=0|10=155|8=FIX.4.4|9=137|35=D|34=573|49=CLIENT_X|52=20230405-20:15:03.270|56=SERVER_A|1=123|11=490|38=100|40=1|44=25|54=1|55=PETR4|60=20230405-17:15:02.352|453=0|10=140|8=FIX.4.4|9=137|35=D|34=574|49=CLIENT_X|52=20230405-20:15:03.271|56=SERVER_A|1=123|11=491|38=100|40=1|44=25|54=1|55=PETR4|60=20230405-17:15:02.352|453=0|10=143|8=FIX.4.4|9=137|35=D|34=575|49=CLIENT_X|52=20230405-20:15:03.278|56=SERVER_A|1=123|11=492|38=100|40=1|44=25|54=1|55=PETR4|60=20230405-17:15:02.352|453=0|10=152|8=FIX.4.4|9=137|35=D|34=576|49=CLIENT_X|52=20230405-20:15:03.279|56=SERVER_A|1=123|11=493|38=100|40=1|44=25|54=1|55=PETR4|60=20230405-17:15:02.352|453=0|10=155|8=FIX.4.4|9=137|35=D|34=577|49=CLIENT_X|52=20230405-20:15:03.284|56=SERVER_A|1=123|11=494|38=100|40=1|44=25|54=1|55=PETR4|60=20230405-17:15:02.352|453=0|10=153|8=FIX.4.4|9=137|35=D|34=578|49=CLIENT_X|52=20230405-20:15:03.286|56=SERVER_A|1=123|11=495|38=100|40=1|44=25|54=1|55=PETR4|60=20230405-17:15:02.352|453=0|10=157|8=FIX.4.4|9=137|35=D|34=579|49=CLIENT_X|52=20230405-20:15:03.289|56=SERVER_A|1=123|11=496|38=100|40=1|44=25|54=1|55=PETR4|60=20230405-17:15:02.352|453=0|10=162|8=FIX.4.4|9=137|35=D|34=580|49=CLIENT_X|52=20230405-20:15:03.293|56=SERVER_A|1=123|11=497|38=100|40=1|44=25|54=1|55=PETR4|60=20230405-17:15:02.352|453=0|10=150|8=FIX.4.4|9=137|35=D|34=581|49=CLIENT_X|52=20230405-20:15:03.295|56=SERVER_A|1=123|11=498|38=100|40=1|44=25|54=1|55=PETR4|60=20230405-17:15:02.352|453=0|10=154|8=FIX.4.4|9=137|35=D|34=582|49=CLIENT_X|52=20230405-20:15:03.297|56=SERVER_A|1=123|11=499|38=100|40=1|44=25|54=1|55=PETR4|60=20230405-17:15:02.352|453=0|10=158|8=FIX.4.4|9=137|35=D|34=583|49=CLIENT_X|52=20230405-20:15:03.301|56=SERVER_A|1=123|11=500|38=100|40=1|44=25|54=1|55=PETR4|60=20230405-17:15:02.352|453=0|10=128|8=FIX.4.4|9=137|35=D|34=584|49=CLIENT_X|52=20230405-20:15:03.303|56=SERVER_A|1=123|11=501|38=100|40=1|44=25|54=1|55=PETR4|60=20230405-17:15:02.352|453=0|10=132|8=FIX.4.4|9=137|35=D|34=585|49=CLIENT_X|52=20230405-20:15:03.309|56=SERVER_A|1=123|11=502|38=100|40=1|44=25|54=1|55=PETR4|60=20230405-17:15:02.352|453=0|10=140|8=FIX.4.4|9=137|35=D|34=586|49=CLIENT_X|52=20230405-20:15:03.311|56=SERVER_A|1=123|11=503|38=100|40=1|44=25|54=1|55=PETR4|60=20230405-17:15:02.352|453=0|10=135|8=FIX.4.4|9=137|35=D|34=587|49=CLIENT_X|52=20230405-20:15:03.312|56=SERVER_A|1=123|11=504|38=100|40=1|44=25|54=1|55=PETR4|60=20230405-17:15:02.352|453=0|10=138|8=FIX.4.4|9=137|35=D|34=588|49=CLIENT_X|52=20230405-20:15:03.315|56=SERVER_A|1=123|11=505|38=100|40=1|44=25|54=1|55=PETR4|60=20230405-17:15:02.352|453=0|10=143|8=FIX.4.4|9=137|35=D|34=589|49=CLIENT_X|52=20230405-20:15:03.315|56=SERVER_A|1=123|11=506|38=100|40=1|44=25|54=1|55=PETR4|60=20230405-17:15:02.352|453=0|10=145|8=FIX.4.4|9=137|35=D|34=590|49=CLIENT_X|52=20230405-20:15:03.316|56=SERVER_A|1=123|11=507|38=100|40=1|44=25|54=1|55=PETR4|60=20230405-17:15:02.352|453=0|10=139|8=FIX.4.4|9=137|35=D|34=591|49=CLIENT_X|52=20230405-20:15:03.320|56=SERVER_A|1=123|11=508|38=100|40=1|44=25|54=1|55=PETR4|60=20230405-17:15:02.352|453=0|10=136|8=FIX.4.4|9=137|35=D|34=592|49=CLIENT_X|52=20230405-20:15:03.328|56=SERVER_A|1=123|11=509|38=100|40=1|44=25|54=1|55=PETR4|60=20230405-17:15:02.352|453=0|10=146|8=FIX.4.4|9=137|35=D|34=593|49=CLIENT_X|52=20230405-20:15:03.329|56=SERVER_A|1=123|11=510|38=100|40=1|44=25|54=1|55=PETR4|60=20230405-17:15:02.352|453=0|10=140|8=FIX.4.4|9=137|35=D|34=594|49=CLIENT_X|52=20230405-20:15:03.332|56=SERVER_A|1=123|11=511|38=100|40=1|44=25|54=1|55=PETR4|60=20230405-17:15:02.352|453=0|10=136|8=FIX.4.4|9=137|35=D|34=595|49=CLIENT_X|52=20230405-20:15:03.332|56=SERVER_A|1=123|11=512|38=100|40=1|44=25|54=1|55=PETR4|60=20230405-17:15:02.352|453=0|10=138|8=FIX.4.4|9=137|35=D|34=596|49=CLIENT_X|52=20230405-20:15:03.335|56=SERVER_A|1=123|11=513|38=100|40=1|44=25|54=1|55=PETR4|60=20230405-17:15:02.352|453=0|10=143|8=FIX.4.4|9=137|35=D|34=597|49=CLIENT_X|52=20230405-20:15:03.336|56=SERVER_A|1=123|11=514|38=100|40=1|44=25|54=1|55=PETR4|60=20230405-17:15:02.352|453=0|10=146|8=FIX.4.4|9=137|35=D|34=598|49=CLIENT_X|52=20230405-20:15:03.342|56=SERVER_A|1=123|11=515|38=100|40=1|44=25|54=1|55=PETR4|60=20230405-17:15:02.352|453=0|10=145|8=FIX.4.4|9=137|35=D|34=599|49=CLIENT_X|52=20230405-20:15:03.343|56=SERVER_A|1=123|11=516|38=100|40=1|44=25|54=1|55=PETR4|60=20230405-17:15:02.352|453=0|10=148|8=FIX.4.4|9=137|35=D|34=600|49=CLIENT_X|52=20230405-20:15:03.346|56=SERVER_A|1=123|11=517|38=100|40=1|44=25|54=1|55=PETR4|60=20230405-17:15:02.352|453=0|10=135|8=FIX.4.4|9=137|35=D|34=601|49=CLIENT_X|52=20230405-20:15:03.348|56=SERVER_A|1=123|11=518|38=100|40=1|44=25|54=1|55=PETR4|60=20230405-17:15:02.352|453=0|10=139|8=FIX.4.4|9=137|35=D|34=602|49=CLIENT_X|52=20230405-20:15:03.348|56=SERVER_A|1=123|11=519|38=100|40=1|44=25|54=1|55=PETR4|60=20230405-17:15:02.352|453=0|10=141|8=FIX.4.4|9=137|35=D|34=603|49=CLIENT_X|52=20230405-20:15:03.349|56=SERVER_A|1=123|11=520|38=100|40=1|44=25|54=1|55=PETR4|60=20230405-17:15:02.352|453=0|10=135|8=FIX.4.4|9=137|35=D|34=604|49=CLIENT_X|52=20230405-20:15:03.350|56=SERVER_A|1=123|11=521|38=100|40=1|44=25|54=1|55=PETR4|60=20230405-17:15:02.352|453=0|10=129|8=FIX.4.4|9=137|35=D|34=605|49=CLIENT_X|52=20230405-20:15:03.351|56=SERVER_A|1=123|11=522|38=100|40=1|44=25|54=1|55=PETR4|60=20230405-17:15:02.352|453=0|10=132|8=FIX.4.4|9=137|35=D|34=606|49=CLIENT_X|52=20230405-20:15:03.357|56=SERVER_A|1=123|11=523|38=100|40=1|44=25|54=1|55=PETR4|60=20230405-17:15:02.352|453=0|10=140|8=FIX.4.4|9=137|35=D|34=607|49=CLIENT_X|52=20230405-20:15:03.359|56=SERVER_A|1=123|11=524|38=100|40=1|44=25|54=1|55=PETR4|60=20230405-17:15:02.352|453=0|10=144|8=FIX.4.4|9=137|35=D|34=608|49=CLIENT_X|52=20230405-20:15:03.359|56=SERVER_A|1=123|11=525|38=100|40=1|44=25|54=1|55=PETR4|60=20230405-17:15:02.352|453=0|10=146|8=FIX.4.4|9=137|35=D|34=609|49=CLIENT_X|52=20230405-20:15:03.362|56=SERVER_A|1=123|11=526|38=100|40=1|44=25|54=1|55=PETR4|60=20230405-17:15:02.352|453=0|10=142|8=FIX.4.4|9=137|35=D|34=610|49=CLIENT_X|52=20230405-20:15:03.363|56=SERVER_A|1=123|11=527|38=100|40=1|44=25|54=1|55=PETR4|60=20230405-17:15:02.352|453=0|10=136|8=FIX.4.4|9=137|35=D|34=611|49=CLIENT_X|52=20230405-20:15:03.365|56=SERVER_A|1=123|11=528|38=100|40=1|44=25|54=1|55=PETR4|60=20230405-17:15:02.352|453=0|10=140|8=FIX.4.4|9=137|35=D|34=612|49=CLIENT_X|52=20230405-20:15:03.370|56=SERVER_A|1=123|11=529|38=100|40=1|44=25|54=1|55=PETR4|60=20230405-17:15:02.352|453=0|10=138|8=FIX.4.4|9=137|35=D|34=613|49=CLIENT_X|52=20230405-20:15:03.377|56=SERVER_A|1=123|11=530|38=100|40=1|44=25|54=1|55=PETR4|60=20230405-17:15:02.352|453=0|10=138|8=FIX.4.4|9=137|35=D|34=614|49=CLIENT_X|52=20230405-20:15:03.378|56=SERVER_A|1=123|11=531|38=100|40=1|44=25|54=1|55=PETR4|60=20230405-17:15:02.352|453=0|10=141|8=FIX.4.4|9=137|35=D|34=615|49=CLIENT_X|52=20230405-20:15:03.378|56=SERVER_A|1=123|11=532|38=100|40=1|44=25|54=1|55=PETR4|60=20230405-17:15:02.352|453=0|10=143|8=FIX.4.4|9=137|35=D|34=616|49=CLIENT_X|52=20230405-20:15:03.379|56=SERVER_A|1=123|11=533|38=100|40=1|44=25|54=1|55=PETR4|60=20230405-17:15:02.352|453=0|10=146|8=FIX.4.4|9=137|35=D|34=617|49=CLIENT_X|52=20230405-20:15:03.380|56=SERVER_A|1=123|11=534|38=100|40=1|44=25|54=1|55=PETR4|60=20230405-17:15:02.352|453=0|10=140|8=FIX.4.4|9=137|35=D|34=618|49=CLIENT_X|52=20230405-20:15:03.381|56=SERVER_A|1=123|11=535|38=100|40=1|44=25|54=1|55=PETR4|60=20230405-17:15:02.352|453=0|10=143|8=FIX.4.4|9=137|35=D|34=619|49=CLIENT_X|52=20230405-20:15:03.384|56=SERVER_A|1=123|11=536|38=100|40=1|44=25|54=1|55=PETR4|60=20230405-17:15:02.352|453=0|10=148|8=FIX.4.4|9=137|35=D|34=620|49=CLIENT_X|52=20230405-20:15:03.385|56=SERVER_A|1=123|11=537|38=100|40=1|44=25|54=1|55=PETR4|60=20230405-17:15:02.352|453=0|10=142|8=FIX.4.4|9=137|35=D|34=621|49=CLIENT_X|52=20230405-20:15:03.386|56=SERVER_A|1=123|11=538|38=100|40=1|44=25|54=1|55=PETR4|60=20230405-17:15:02.352|453=0|10=145|8=FIX.4.4|9=137|35=D|34=622|49=CLIENT_X|52=20230405-20:15:03.387|56=SERVER_A|1=123|11=539|38=100|40=1|44=25|54=1|55=PETR4|60=20230405-17:15:02.352|453=0|10=148|8=FIX.4.4|9=137|35=D|34=623|49=CLIENT_X|52=20230405-20:15:03.391|56=SERVER_A|1=123|11=540|38=100|40=1|44=25|54=1|55=PETR4|60=20230405-17:15:02.352|453=0|10=136|8=FIX.4.4|9=137|35=D|34=624|49=CLIENT_X|52=20230405-20:15:03.392|56=SERVER_A|1=123|11=541|38=100|40=1|44=25|54=1|55=PETR4|60=20230405-17:15:02.352|453=0|10=139|8=FIX.4.4|9=137|35=D|34=625|49=CLIENT_X|52=20230405-20:15:03.393|56=SERVER_A|1=123|11=542|38=100|40=1|44=25|54=1|55=PETR4|60=20230405-17:15:02.352|453=0|10=142|8=FIX.4.4|9=137|35=D|34=626|49=CLIENT_X|52=20230405-20:15:03.394|56=SERVER_A|1=123|11=543|38=100|40=1|44=25|54=1|55=PETR4|60=20230405-17:15:02.352|453=0|10=145|8=FIX.4.4|9=137|35=D|34=627|49=CLIENT_X|52=20230405-20:15:03.395|56=SERVER_A|1=123|11=544|38=100|40=1|44=25|54=1|55=PETR4|60=20230405-17:15:02.352|453=0|10=148|8=FIX.4.4|9=137|35=D|34=628|49=CLIENT_X|52=20230405-20:15:03.395|56=SERVER_A|1=123|11=545|38=100|40=1|44=25|54=1|55=PETR4|60=20230405-17:15:02.352|453=0|10=150|8=FIX.4.4|9=137|35=D|34=629|49=CLIENT_X|52=20230405-20:15:03.396|56=SERVER_A|1=123|11=546|38=100|40=1|44=25|54=1|55=PETR4|60=20230405-17:15:02.352|453=0|10=153|8=FIX.4.4|9=137|35=D|34=630|49=CLIENT_X|52=20230405-20:15:03.402|56=SERVER_A|1=123|11=547|38=100|40=1|44=25|54=1|55=PETR4|60=20230405-17:15:02.352|453=0|10=134|8=FIX.4.4|9=137|35=D|34=631|49=CLIENT_X|52=20230405-20:15:03.404|56=SERVER_A|1=123|11=548|38=100|40=1|44=25|54=1|55=PETR4|60=20230405-17:15:02.352|453=0|10=138|8=FIX.4.4|9=137|35=D|34=632|49=CLIENT_X|52=20230405-20:15:03.406|56=SERVER_A|1=123|11=549|38=100|40=1|44=25|54=1|55=PETR4|60=20230405-17:15:02.352|453=0|10=142|8=FIX.4.4|9=137|35=D|34=633|49=CLIENT_X|52=20230405-20:15:03.408|56=SERVER_A|1=123|11=550|38=100|40=1|44=25|54=1|55=PETR4|60=20230405-17:15:02.352|453=0|10=137|8=FIX.4.4|9=137|35=D|34=634|49=CLIENT_X|52=20230405-20:15:03.409|56=SERVER_A|1=123|11=551|38=100|40=1|44=25|54=1|55=PETR4|60=20230405-17:15:02.352|453=0|10=140|8=FIX.4.4|9=137|35=D|34=635|49=CLIENT_X|52=20230405-20:15:03.410|56=SERVER_A|1=123|11=552|38=100|40=1|44=25|54=1|55=PETR4|60=20230405-17:15:02.352|453=0|10=134|8=FIX.4.4|9=137|35=D|34=636|49=CLIENT_X|52=20230405-20:15:03.411|56=SERVER_A|1=123|11=553|38=100|40=1|44=25|54=1|55=PETR4|60=20230405-17:15:02.352|453=0|10=137|8=FIX.4.4|9=137|35=D|34=637|49=CLIENT_X|52=20230405-20:15:03.415|56=SERVER_A|1=123|11=554|38=100|40=1|44=25|54=1|55=PETR4|60=20230405-17:15:02.352|453=0|10=143|8=FIX.4.4|9=137|35=D|34=638|49=CLIENT_X|52=20230405-20:15:03.416|56=SERVER_A|1=123|11=555|38=100|40=1|44=25|54=1|55=PETR4|60=20230405-17:15:02.352|453=0|10=146|8=FIX.4.4|9=137|35=D|34=639|49=CLIENT_X|52=20230405-20:15:03.418|56=SERVER_A|1=123|11=556|38=100|40=1|44=25|54=1|55=PETR4|60=20230405-17:15:02.352|453=0|10=150|8=FIX.4.4|9=137|35=D|34=640|49=CLIENT_X|52=20230405-20:15:03.419|56=SERVER_A|1=123|11=557|38=100|40=1|44=25|54=1|55=PETR4|60=20230405-17:15:02.352|453=0|10=144|8=FIX.4.4|9=137|35=D|34=641|49=CLIENT_X|52=20230405-20:15:03.422|56=SERVER_A|1=123|11=558|38=100|40=1|44=25|54=1|55=PETR4|60=20230405-17:15:02.352|453=0|10=140|8=FIX.4.4|9=137|35=D|34=642|49=CLIENT_X|52=20230405-20:15:03.423|56=SERVER_A|1=123|11=559|38=100|40=1|44=25|54=1|55=PETR4|60=20230405-17:15:02.352|453=0|10=143|8=FIX.4.4|9=137|35=D|34=643|49=CLIENT_X|52=20230405-20:15:03.425|56=SERVER_A|1=123|11=560|38=100|40=1|44=25|54=1|55=PETR4|60=20230405-17:15:02.352|453=0|10=138|8=FIX.4.4|9=137|35=D|34=644|49=CLIENT_X|52=20230405-20:15:03.426|56=SERVER_A|1=123|11=561|38=100|40=1|44=25|54=1|55=PETR4|60=20230405-17:15:02.352|453=0|10=141|8=FIX.4.4|9=137|35=D|34=645|49=CLIENT_X|52=20230405-20:15:03.431|56=SERVER_A|1=123|11=562|38=100|40=1|44=25|54=1|55=PETR4|60=20230405-17:15:02.352|453=0|10=139|8=FIX.4.4|9=137|35=D|34=646|49=CLIENT_X|52=20230405-20:15:03.432|56=SERVER_A|1=123|11=563|38=100|40=1|44=25|54=1|55=PETR4|60=20230405-17:15:02.352|453=0|10=142|8=FIX.4.4|9=137|35=D|34=647|49=CLIENT_X|52=20230405-20:15:03.433|56=SERVER_A|1=123|11=564|38=100|40=1|44=25|54=1|55=PETR4|60=20230405-17:15:02.352|453=0|10=145|8=FIX.4.4|9=137|35=D|34=648|49=CLIENT_X|52=20230405-20:15:03.434|56=SERVER_A|1=123|11=565|38=100|40=1|44=25|54=1|55=PETR4|60=20230405-17:15:02.352|453=0|10=148|8=FIX.4.4|9=137|35=D|34=649|49=CLIENT_X|52=20230405-20:15:03.435|56=SERVER_A|1=123|11=566|38=100|40=1|44=25|54=1|55=PETR4|60=20230405-17:15:02.352|453=0|10=151|8=FIX.4.4|9=137|35=D|34=650|49=CLIENT_X|52=20230405-20:15:03.437|56=SERVER_A|1=123|11=567|38=100|40=1|44=25|54=1|55=PETR4|60=20230405-17:15:02.352|453=0|10=146|8=FIX.4.4|9=137|35=D|34=651|49=CLIENT_X|52=20230405-20:15:03.439|56=SERVER_A|1=123|11=568|38=100|40=1|44=25|54=1|55=PETR4|60=20230405-17:15:02.352|453=0|10=150|8=FIX.4.4|9=137|35=D|34=652|49=CLIENT_X|52=20230405-20:15:03.440|56=SERVER_A|1=123|11=569|38=100|40=1|44=25|54=1|55=PETR4|60=20230405-17:15:02.352|453=0|10=144|8=FIX.4.4|9=137|35=D|