8=FIX.4.4|9=71|35=A|34=1|49=SERVER_A|52=20230405-19:49:49.185|56=CLIENT_X|98=0|108=20|10=252|8=FIX.4.4|9=188|35=8|34=2|49=SERVER_A|52=20230405-19:50:07.693|56=CLIENT_X|1=123|6=25|14=100|17=6d740288-aa5e-4588-b920-7c1d234c5908|37=11db0316-dcae-4402-a694-3c9eea9469be|39=2|54=1|55=PETR4|150=2|151=0|10=159|8=FIX.4.4|9=68|35=0|34=3|49=SERVER_A|52=20230405-19:50:14.834|56=CLIENT_X|112=TEST|10=222|8=FIX.4.4|9=59|35=0|34=4|49=SERVER_A|52=20230405-19:50:35.029|56=CLIENT_X|10=204|8=FIX.4.4|9=59|35=0|34=5|49=SERVER_A|52=20230405-19:50:55.202|56=CLIENT_X|10=200|8=FIX.4.4|9=59|35=0|34=6|49=SERVER_A|52=20230405-19:51:15.380|56=CLIENT_X|10=205|8=FIX.4.4|9=59|35=0|34=7|49=SERVER_A|52=20230405-19:51:35.536|56=CLIENT_X|10=211|8=FIX.4.4|9=71|35=A|34=8|49=SERVER_A|52=20230405-19:52:03.479|56=CLIENT_X|98=0|108=20|10=249|8=FIX.4.4|9=188|35=8|34=9|49=SERVER_A|52=20230405-19:52:07.572|56=CLIENT_X|1=123|6=25|14=100|17=610a9519-6988-44b8-8b9f-44e1224d9a11|37=5aa65455-3d60-4d09-95ae-fd49c00e4cd0|39=2|54=1|55=PETR4|150=2|151=0|10=076|8=FIX.4.4|9=60|35=0|34=10|49=SERVER_A|52=20230405-19:52:27.752|56=CLIENT_X|10=247|8=FIX.4.4|9=69|35=0|34=11|49=SERVER_A|52=20230405-19:52:31.276|56=CLIENT_X|112=TEST|10=015|8=FIX.4.4|9=60|35=0|34=12|49=SERVER_A|52=20230405-19:52:51.464|56=CLIENT_X|10=246|8=FIX.4.4|9=60|35=0|34=13|49=SERVER_A|52=20230405-19:53:11.665|56=CLIENT_X|10=247|8=FIX.4.4|9=72|35=A|34=14|49=SERVER_A|52=20230405-19:54:04.760|56=CLIENT_X|98=0|108=20|10=035|8=FIX.4.4|9=195|35=8|34=15|49=SERVER_A|52=20230405-19:54:10.711|56=CLIENT_X|1=123|6=25|14=100|17=c6ceddcf-5891-4688-be9a-df6d56c7507a|37=a2db58bb-0e6c-498b-a75e-8cf5e8f4ac63|39=2|54=1|55=PETR4|150=2|151=0|453=0|10=209|8=FIX.4.4|9=60|35=0|34=16|49=SERVER_A|52=20230405-19:54:30.910|56=CLIENT_X|10=245|8=FIX.4.4|9=60|35=0|34=17|49=SERVER_A|52=20230405-19:54:51.093|56=CLIENT_X|10=251|8=FIX.4.4|9=60|35=0|34=18|49=SERVER_A|52=20230405-19:55:11.265|56=CLIENT_X|10=250|8=FIX.4.4|9=60|35=0|34=19|49=SERVER_A|52=20230405-19:55:31.449|56=CLIENT_X|10=001|8=FIX.4.4|9=60|35=0|34=20|49=SERVER_A|52=20230405-19:55:51.632|56=CLIENT_X|10=245|8=FIX.4.4|9=60|35=0|34=21|49=SERVER_A|52=20230405-19:56:11.819|56=CLIENT_X|10=250|8=FIX.4.4|9=60|35=0|34=22|49=SERVER_A|52=20230405-19:56:31.981|56=CLIENT_X|10=253|8=FIX.4.4|9=60|35=0|34=23|49=SERVER_A|52=20230405-19:56:52.169|56=CLIENT_X|10=255|8=FIX.4.4|9=60|35=0|34=24|49=SERVER_A|52=20230405-19:57:12.345|56=CLIENT_X|10=249|8=FIX.4.4|9=60|35=0|34=25|49=SERVER_A|52=20230405-19:57:32.525|56=CLIENT_X|10=252|8=FIX.4.4|9=60|35=0|34=26|49=SERVER_A|52=20230405-19:57:52.728|56=CLIENT_X|10=004|8=FIX.4.4|9=72|35=A|34=27|49=SERVER_A|52=20230405-19:57:59.658|56=CLIENT_X|98=0|108=20|10=058|8=FIX.4.4|9=72|35=A|34=28|49=SERVER_A|52=20230405-19:58:42.007|56=CLIENT_X|98=0|108=20|10=040|8=FIX.4.4|9=72|35=A|34=29|49=SERVER_A|52=20230405-19:59:06.006|56=CLIENT_X|98=0|108=20|10=041|8=FIX.4.4|9=195|35=8|34=30|49=SERVER_A|52=20230405-19:59:19.013|56=CLIENT_X|1=123|6=25|14=100|17=fc23f240-42c0-4320-9b68-4908382f6cb3|37=e2b62edc-333b-462c-b368-0a18522919bd|39=0|54=1|55=PETR4|150=2|151=0|453=0|10=097|8=FIX.4.4|9=60|35=0|34=31|49=SERVER_A|52=20230405-19:59:39.211|56=CLIENT_X|10=250|8=FIX.4.4|9=60|35=0|34=32|49=SERVER_A|52=20230405-19:59:59.392|56=CLIENT_X|10=007|8=FIX.4.4|9=60|35=0|34=33|49=SERVER_A|52=20230405-20:00:19.556|56=CLIENT_X|10=240|8=FIX.4.4|9=60|35=0|34=34|49=SERVER_A|52=20230405-20:00:39.768|56=CLIENT_X|10=248|8=FIX.4.4|9=60|35=0|34=35|49=SERVER_A|52=20230405-20:00:59.936|56=CLIENT_X|10=248|8=FIX.4.4|9=60|35=0|34=36|49=SERVER_A|52=20230405-20:01:20.069|56=CLIENT_X|10=235|8=FIX.4.4|9=60|35=0|34=37|49=SERVER_A|52=20230405-20:01:40.260|56=CLIENT_X|10=231|8=FIX.4.4|9=60|35=0|34=38|49=SERVER_A|52=20230405-20:02:00.446|56=CLIENT_X|10=235|8=FIX.4.4|9=60|35=0|34=39|49=SERVER_A|52=20230405-20:02:20.636|56=CLIENT_X|10=239|8=FIX.4.4|9=60|35=0|34=40|49=SERVER_A|52=20230405-20:02:40.818|56=CLIENT_X|10=235|8=FIX.4.4|9=60|35=0|34=41|49=SERVER_A|52=20230405-20:03:00.968|56=CLIENT_X|10=239|8=FIX.4.4|9=60|35=0|34=42|49=SERVER_A|52=20230405-20:03:21.113|56=CLIENT_X|10=225|8=FIX.4.4|9=60|35=0|34=43|49=SERVER_A|52=20230405-20:03:41.306|56=CLIENT_X|10=232|8=FIX.4.4|9=60|35=0|34=44|49=SERVER_A|52=20230405-20:04:01.479|56=CLIENT_X|10=241|8=FIX.4.4|9=60|35=0|34=45|49=SERVER_A|52=20230405-20:04:21.660|56=CLIENT_X|10=236|8=FIX.4.4|9=60|35=0|34=46|49=SERVER_A|52=20230405-20:04:41.846|56=CLIENT_X|10=245|8=FIX.4.4|9=60|35=0|34=47|49=SERVER_A|52=20230405-20:05:02.046|56=CLIENT_X|10=236|8=FIX.4.4|9=72|35=A|34=48|49=SERVER_A|52=20230405-20:10:01.656|56=CLIENT_X|98=0|108=20|10=027|8=FIX.4.4|9=195|35=8|34=49|49=SERVER_A|52=20230405-20:10:20.924|56=CLIENT_X|1=123|6=25|14=100|17=040c7dfc-d2db-4a70-94a5-5d927936c765|37=40d55cf8-f78c-4f7c-9aea-b78004da505e|39=0|54=1|55=PETR4|150=2|151=0|453=0|10=152|8=FIX.4.4|9=195|35=8|34=50|49=SERVER_A|52=20230405-20:10:20.928|56=CLIENT_X|1=123|6=25|14=100|17=22bf4073-a50f-41af-8a6c-a138090107f2|37=c5da58da-c95d-48b4-ae67-86dc77ed1f18|39=0|54=1|55=PETR4|150=2|151=0|453=0|10=131|8=FIX.4.4|9=195|35=8|34=51|49=SERVER_A|52=20230405-20:10:20.929|56=CLIENT_X|1=123|6=25|14=100|17=449da0a7-99bb-455c-93f8-8285d1af5f2f|37=2f12b1a0-6996-489d-a938-2494c103a330|39=0|54=1|55=PETR4|150=2|151=0|453=0|10=119|8=FIX.4.4|9=195|35=8|34=52|49=SERVER_A|52=20230405-20:10:20.933|56=CLIENT_X|1=123|6=25|14=100|17=9961056e-2884-4d68-a193-424b8768cd68|37=6f941327-9898-406f-adb6-bf10b6f76f65|39=0|54=1|55=PETR4|150=2|151=0|453=0|10=013|8=FIX.4.4|9=195|35=8|34=53|49=SERVER_A|52=20230405-20:10:20.934|56=CLIENT_X|1=123|6=25|14=100|17=aed14440-3565-4cd0-b1f3-eda3b643cd5b|37=6ecfc45b-65a4-4120-9abf-7d33f84b30f5|39=0|54=1|55=PETR4|150=2|151=0|453=0|10=205|8=FIX.4.4|9=195|35=8|34=54|49=SERVER_A|52=20230405-20:10:20.938|56=CLIENT_X|1=123|6=25|14=100|17=9cba3cbe-ab51-4dc6-b7c4-e50f5cecb970|37=ff675348-10a4-4e47-92af-ec74394278ac|39=0|54=1|55=PETR4|150=2|151=0|453=0|10=034|8=FIX.4.4|9=195|35=8|34=55|49=SERVER_A|52=20230405-20:10:20.941|56=CLIENT_X|1=123|6=25|14=100|17=abf495b9-0398-407f-b44d-09366a80b962|37=652bc28d-074f-43b9-8c11-390d0d3b923b|39=0|54=1|55=PETR4|150=2|151=0|453=0|10=106|8=FIX.4.4|9=195|35=8|34=56|49=SERVER_A|52=20230405-20:10:20.944|56=CLIENT_X|1=123|6=25|14=100|17=04745fb5-58f4-4794-991b-1015a5a296f7|37=2c20afd2-0a6a-4bd7-821b-3de229e24042|39=0|54=1|55=PETR4|150=2|151=0|453=0|10=093|8=FIX.4.4|9=195|35=8|34=57|49=SERVER_A|52=20230405-20:10:20.950|56=CLIENT_X|1=123|6=25|14=100|17=2e1978ac-3030-4948-a1be-c4bbab224d7f|37=7bf003d0-4616-444c-8897-5b13721ffffa|39=0|54=1|55=PETR4|150=2|151=0|453=0|10=029|8=FIX.4.4|9=195|35=8|34=58|49=SERVER_A|52=20230405-20:10:20.954|56=CLIENT_X|1=123|6=25|14=100|17=8fba5a6c-6297-4766-ba47-e974f02f711f|37=1722bee5-da0e-4427-b047-5e87a9178943|39=0|54=1|55=PETR4|150=2|151=0|453=0|10=182|8=FIX.4.4|9=60|35=0|34=59|49=SERVER_A|52=20230405-20:10:41.140|56=CLIENT_X|10=233|8=FIX.4.4|9=60|35=0|34=60|49=SERVER_A|52=20230405-20:11:01.329|56=CLIENT_X|10=231|8=FIX.4.4|9=60|35=0|34=61|49=SERVER_A|52=20230405-20:11:21.489|56=CLIENT_X|10=241|8=FIX.4.4|9=60|35=0|34=62|49=SERVER_A|52=20230405-20:11:41.685|56=CLIENT_X|10=242|8=FIX.4.4|9=60|35=0|34=63|49=SERVER_A|52=20230405-20:12:01.898|56=CLIENT_X|10=246|8=FIX.4.4|9=60|35=0|34=64|49=SERVER_A|52=20230405-20:12:22.075|56=CLIENT_X|10=237|8=FIX.4.4|9=60|35=0|34=65|49=SERVER_A|52=20230405-20:12:42.258|56=CLIENT_X|10=243|8=FIX.4.4|9=60|35=0|34=66|49=SERVER_A|52=20230405-20:13:02.439|56=CLIENT_X|10=242|8=FIX.4.4|9=72|35=A|34=67|49=SERVER_A|52=20230405-20:13:26.230|56=CLIENT_X|98=0|108=20|10=026|8=FIX.4.4|9=60|35=0|34=68|49=SERVER_A|52=20230405-20:13:46.422|56=CLIENT_X|10=244|8=FIX.4.4|9=195|35=8|34=69|49=SERVER_A|52=20230405-20:13:47.445|56=CLIENT_X|1=123|6=25|14=100|17=0d5d5035-5385-4646-9c32-55e41d90b504|37=03f66e32-5018-48e6-99a2-747ed8642387|39=0|54=1|55=PETR4|150=2|151=0|453=0|10=062|8=FIX.4.4|9=195|35=8|34=70|49=SERVER_A|52=20230405-20:14:02.124|56=CLIENT_X|1=123|6=25|14=100|17=830fa2d6-f602-4f45-9cb4-3f85332a2727|37=3699c3d2-7c21-4975-8f78-85f3a4db1954|39=0|54=1|55=PETR4|150=2|151=0|453=0|10=030|8=FIX.4.4|9=195|35=8|34=71|49=SERVER_A|52=20230405-20:14:02.126|56=CLIENT_X|1=123|6=25|14=100|17=a91bcf0d-5455-455b-8c44-b0b242ac3eab|37=975e3998-5aae-4a30-a036-46d76e974a40|39=0|54=1|55=PETR4|150=2|151=0|453=0|10=026|8=FIX.4.4|9=195|35=8|34=72|49=SERVER_A|52=20230405-20:14:02.127|56=CLIENT_X|1=123|6=25|14=100|17=b28f256c-fb1f-4c50-b667-acc117daf218|37=2605669c-8823-41c2-b192-6ebd1a3681ab|39=0|54=1|55=PETR4|150=2|151=0|453=0|10=021|8=FIX.4.4|9=195|35=8|34=73|49=SERVER_A|52=20230405-20:14:02.128|56=CLIENT_X|1=123|6=25|14=100|17=f37f492b-2cd4-4d73-abb7-7917a392d418|37=0d242ddb-df44-4923-b6c4-be1587f36e40|39=0|54=1|55=PETR4|150=2|151=0|453=0|10=044|8=FIX.4.4|9=195|35=8|34=74|49=SERVER_A|52=20230405-20:14:02.131|56=CLIENT_X|1=123|6=25|14=100|17=8b95f6ab-a6f9-4cd0-b040-1697d9c7c47c|37=c5038b1e-767f-41f5-bcca-c4a622f8a5d8|39=0|54=1|55=PETR4|150=2|151=0|453=0|10=237|8=FIX.4.4|9=195|35=8|34=75|49=SERVER_A|52=20230405-20:14:02.134|56=CLIENT_X|1=123|6=25|14=100|17=6b061b4a-87a1-43cb-ad1b-145fe6954e3b|37=a68b79e8-7c22-4a6d-970d-0d8632636184|39=0|54=1|55=PETR4|150=2|151=0|453=0|10=200|8=FIX.4.4|9=195|35=8|34=76|49=SERVER_A|52=20230405-20:14:02.136|56=CLIENT_X|1=123|6=25|14=100|17=c686024f-6cf2-4f5d-9ee0-ec54491078b8|37=d4defb7d-fc52-4f15-9847-b0dcc9841480|39=0|54=1|55=PETR4|150=2|151=0|453=0|10=119|8=FIX.4.4|9=195|35=8|34=77|49=SERVER_A|52=20230405-20:14:02.138|56=CLIENT_X|1=123|6=25|14=100|17=3a3647f6-604a-4d70-b87b-9b29dfe6d206|37=fe66dc0a-258a-4d88-91e0-00be826bd44b|39=0|54=1|55=PETR4|150=2|151=0|453=0|10=095|8=FIX.4.4|9=195|35=8|34=78|49=SERVER_A|52=20230405-20:14:02.140|56=CLIENT_X|1=123|6=25|14=100|17=5135bd62-54a5-497f-822c-ca22aaec971f|37=f4e9d0f9-9134-4afd-860d-4cac7542bb60|39=0|54=1|55=PETR4|150=2|151=0|453=0|10=133|8=FIX.4.4|9=195|35=8|34=79|49=SERVER_A|52=20230405-20:14:02.147|56=CLIENT_X|1=123|6=25|14=100|17=cd716531-97e5-49f4-9f2d-e1b5e2583cfb|37=cd93ec00-9819-41a1-9f4a-cc62387dc15b|39=0|54=1|55=PETR4|150=2|151=0|453=0|10=111|8=FIX.4.4|9=60|35=0|34=80|49=SERVER_A|52=20230405-20:14:22.333|56=CLIENT_X|10=234|8=FIX.4.4|9=60|35=0|34=81|49=SERVER_A|52=20230405-20:14:42.523|56=CLIENT_X|10=238|8=FIX.4.4|9=195|35=8|34=82|49=SERVER_A|52=20230405-20:15:02.354|56=CLIENT_X|1=123|6=25|14=100|17=117da571-375f-456b-84a3-cddcb06f9cc8|37=569bc914-4ed1-4974-8ce7-e12081da40d7|39=0|54=1|55=PETR4|150=2|151=0|453=0|10=052|8=FIX.4.4|9=195|35=8|34=83|49=SERVER_A|52=20230405-20:15:02.356|56=CLIENT_X|1=123|6=25|14=100|17=56c45a7b-b326-413a-af03-3ce69bdf1f92|37=851b1955-dd89-4c42-82f6-236aa7c51c33|39=0|54=1|55=PETR4|150=2|151=0|453=0|10=249|8=FIX.4.4|9=195|35=8|34=84|49=SERVER_A|52=20230405-20:15:02.357|56=CLIENT_X|1=123|6=25|14=100|17=812af756-921d-4acf-ab00-b95312e76ac4|37=32d50631-5ccb-4a55-919b-5d7cf51c4261|39=0|54=1|55=PETR4|150=2|151=0|453=0|10=233|8=FIX.4.4|9=195|35=8|34=85|49=SERVER_A|52=20230405-20:15:02.359|56=CLIENT_X|1=123|6=25|14=100|17=21e25829-2099-4d5d-b072-b9385a51f1bf|37=999b49c5-4c3c-4aa1-ac5b-54434d6685b2|39=0|54=1|55=PETR4|150=2|151=0|453=0|10=168|8=FIX.4.4|9=195|35=8|34=86|49=SERVER_A|52=20230405-20:15:02.361|56=CLIENT_X|1=123|6=25|14=100|17=55507976-5ed7-45b9-812f-25b4bf224ed2|37=9bdf7243-c5e2-486b-9ade-27faadd8d599|39=0|54=1|55=PETR4|150=2|151=0|453=0|10=126|8=FIX.4.4|9=195|35=8|34=87|49=SERVER_A|52=20230405-20:15:02.363|56=CLIENT_X|1=123|6=25|14=100|17=90f4d3c0-5e56-4694-84e9-b36fe08fdfb0|37=b63c24a6-5b78-407c-97d9-524544c82683|39=0|54=1|55=PETR4|150=2|151=0|453=0|10=145|8=FIX.4.4|9=195|35=8|34=88|49=SERVER_A|52=20230405-20:15:02.365|56=CLIENT_X|1=123|6=25|14=100|17=83ade55b-c6e8-42df-9bb3-5c29ac704946|37=9e86afe9-8956-438b-a70c-4079a35498d8|39=0|54=1|55=PETR4|150=2|151=0|453=0|10=050|8=FIX.4.4|9=195|35=8|34=89|49=SERVER_A|52=20230405-20:15:02.367|56=CLIENT_X|1=123|6=25|14=100|17=6baae113-080d-4c07-a0a7-54cb528cf758|37=ce624f6f-ab2c-40d1-959a-caf1cc56e56e|39=0|54=1|55=PETR4|150=2|151=0|453=0|10=019|8=FIX.4.4|9=195|35=8|34=90|49=SERVER_A|52=20230405-20:15:02.369|56=CLIENT_X|1=123|6=25|14=100|17=a5f9a022-e705-46a9-a384-7564f8170a1c|37=3b1fe4c2-17f5-4f76-b82b-826d71d7e706|39=0|54=1|55=PETR4|150=2|151=0|453=0|10=167|8=FIX.4.4|9=195|35=8|34=91|49=SERVER_A|52=20230405-20:15:02.373|56=CLIENT_X|1=123|6=25|14=100|17=ecb5fb5e-9d8c-489e-8781-8f9297079afb|37=3fa9ff95-87a3-40a7-b263-50de1aff7c4c|39=0|54=1|55=PETR4|150=2|151=0|453=0|10=027|8=FIX.4.4|9=195|35=8|34=92|49=SERVER_A|52=20230405-20:15:02.376|56=CLIENT_X|1=123|6=25|14=100|17=f13b8ab6-4d88-49ca-86ea-79d70fde1331|37=4caeb638-b1cd-4b14-b229-7324359e2b86|39=0|54=1|55=PETR4|150=2|151=0|453=0|10=100|8=FIX.4.4|9=195|35=8|34=93|49=SERVER_A|52=20230405-20:15:02.385|56=CLIENT_X|1=123|6=25|14=100|17=724e58c9-d7f5-41b4-8b17-c748c1f9fea7|37=9d3a75d7-e5e9-4f81-be51-aca95aa124f0|39=0|54=1|55=PETR4|150=2|151=0|453=0|10=217|8=FIX.4.4|9=195|35=8|34=94|49=SERVER_A|52=20230405-20:15:02.389|56=CLIENT_X|1=123|6=25|14=100|17=1728b8c2-94f3-4735-b0b3-2a6f91dd8b63|37=8977f128-6767-4fef-bf18-6e14712ac52f|39=0|54=1|55=PETR4|150=2|151=0|453=0|10=194|8=FIX.4.4|9=195|35=8|34=95|49=SERVER_A|52=20230405-20:15:02.391|56=CLIENT_X|1=123|6=25|14=100|17=e378c378-5f46-48f4-9db6-9b65060e7084|37=e88243ac-caad-4c3f-854b-daa1bd708079|39=0|54=1|55=PETR4|150=2|151=0|453=0|10=070|8=FIX.4.4|9=195|35=8|34=96|49=SERVER_A|52=20230405-20:15:02.396|56=CLIENT_X|1=123|6=25|14=100|17=6ad8e321-edfd-42e8-8f74-1e5b926a6e93|37=bab904bb-22fa-4f63-ad45-7b37eb6d7510|39=0|54=1|55=PETR4|150=2|151=0|453=0|10=248|8=FIX.4.4|9=195|35=8|34=97|49=SERVER_A|52=20230405-20:15:02.399|56=CLIENT_X|1=123|6=25|14=100|17=5e01e540-22f9-41c8-8538-c59bc228ed75|37=3f870e45-9b19-485d-ac90-250ddb5cb8dd|39=0|54=1|55=PETR4|150=2|151=0|453=0|10=025|8=FIX.4.4|9=195|35=8|34=98|49=SERVER_A|52=20230405-20:15:02.401|56=CLIENT_X|1=123|6=25|14=100|17=309e3606-d802-4b08-aa99-50ba1c72c3fc|37=7dc9ee17-3018-4fd6-a415-3865b3e804ca|39=0|54=1|55=PETR4|150=2|151=0|453=0|10=239|8=FIX.4.4|9=195|35=8|34=99|49=SERVER_A|52=20230405-20:15:02.403|56=CLIENT_X|1=123|6=25|14=100|17=57bf8a69-cdb8-4887-aba5-4ce858774f4e|37=c90750b3-e50d-4e50-a447-6bc06848833c|39=0|54=1|55=PETR4|150=2|151=0|453=0|10=028|8=FIX.4.4|9=196|35=8|34=100|49=SERVER_A|52=20230405-20:15:02.406|56=CLIENT_X|1=123|6=25|14=100|17=f4984d9b-5848-41e6-b258-dc0c15d08685|37=0add75dd-0d49-48d1-bf9d-feaa1899a4d9|39=0|54=1|55=PETR4|150=2|151=0|453=0|10=210|8=FIX.4.4|9=196|35=8|34=101|49=SERVER_A|52=20230405-20:15:02.413|56=CLIENT_X|1=123|6=25|14=100|17=ef072559-7f19-407b-ad4b-1ab2f36a486d|37=1e9befce-c829-49de-ba1d-bb74bb87e57e|39=0|54=1|55=PETR4|150=2|151=0|453=0|10=174|8=FIX.4.4|9=196|35=8|34=102|49=SERVER_A|52=20230405-20:15:02.415|56=CLIENT_X|1=123|6=25|14=100|17=09141560-c0ae-4b9a-9059-c07ef628df2a|37=cf094a90-77b2-4686-b9ef-e2fd2798251f|39=0|54=1|55=PETR4|150=2|151=0|453=0|10=052|8=FIX.4.4|9=196|35=8|34=103|49=SERVER_A|52=20230405-20:15:02.417|56=CLIENT_X|1=123|6=25|14=100|17=511b6c7d-495f-4a38-84de-35fa9d9df245|37=fdf77d7e-222c-471f-bd49-d591b6621b6a|39=0|54=1|55=PETR4|150=2|151=0|453=0|10=207|8=FIX.4.4|9=196|35=8|34=104|49=SERVER_A|52=20230405-20:15:02.420|56=CLIENT_X|1=123|6=25|14=100|17=2ba326c4-a9af-4e84-9a95-447a3e4575cf|37=f9ec6e63-7c2e-447e-8004-947dd9c3850a|39=0|54=1|55=PETR4|150=2|151=0|453=0|10=109|8=FIX.4.4|9=196|35=8|34=105|49=SERVER_A|52=20230405-20:15:02.427|56=CLIENT_X|1=123|6=25|14=100|17=fc506353-ed13-404f-9eac-e4d0730b9ea6|37=13e86bf0-ff42-4267-af0a-6afc01222c2d|39=0|54=1|55=PETR4|150=2|151=0|453=0|10=203|8=FIX.4.4|9=196|35=8|34=106|49=SERVER_A|52=20230405-20:15:02.430|56=CLIENT_X|1=123|6=25|14=100|17=fb98945a-9c52-4565-91d4-a45d1baa3624|37=d8e1704c-9c3c-460c-a906-db5ddf80febf|39=0|54=1|55=PETR4|150=2|151=0|453=0|10=234|8=FIX.4.4|9=196|35=8|34=107|49=SERVER_A|52=20230405-20:15:02.437|56=CLIENT_X|1=123|6=25|14=100|17=cff056d5-62ef-4485-87f1-4b29ffb51984|37=0f9b4bc7-7f1e-462c-88b7-ca804db72bef|39=0|54=1|55=PETR4|150=2|151=0|453=0|10=011|8=FIX.4.4|9=196|35=8|34=108|49=SERVER_A|52=20230405-20:15:02.443|56=CLIENT_X|1=123|6=25|14=100|17=11222924-a737-41d5-8879-ff7dc7e4fe9d|37=4c4a2451-6890-4bd0-8b94-faa490935a97|39=0|54=1|55=PETR4|150=2|151=0|453=0|10=182|8=FIX.4.4|9=196|35=8|34=109|49=SERVER_A|52=20230405-20:15:02.447|56=CLIENT_X|1=123|6=25|14=100|17=a74e18d7-c7cb-4575-93e8-2bea671f1c29|37=4c3dd1f2-162f-48c0-870c-6192c74240c8|39=0|54=1|55=PETR4|150=2|151=0|453=0|10=006|8=FIX.4.4|9=196|35=8|34=110|49=SERVER_A|52=20230405-20:15:02.451|56=CLIENT_X|1=123|6=25|14=100|17=eca74401-a1e3-4a45-b596-811db5af6fc6|37=a34d851f-b187-4ed2-ab44-776b84112c68|39=0|54=1|55=PETR4|150=2|151=0|453=0|10=073|8=FIX.4.4|9=196|35=8|34=111|49=SERVER_A|52=20230405-20:15:02.459|56=CLIENT_X|1=123|6=25|14=100|17=9ecdd036-ef9b-4bfb-a366-1c13cdce95d4|37=f439c949-01ba-4cb3-bf7a-8009c02e9544|39=0|54=1|55=PETR4|150=2|151=0|453=0|10=074|8=FIX.4.4|9=196|35=8|34=112|49=SERVER_A|52=20230405-20:15:02.462|56=CLIENT_X|1=123|6=25|14=100|17=79c3f980-3154-4f89-a23e-11308e78ec73|37=e8f307e0-8b0e-4479-b86b-500fe7a5f341|39=0|54=1|55=PETR4|150=2|151=0|453=0|10=171|8=FIX.4.4|9=196|35=8|34=113|49=SERVER_A|52=20230405-20:15:02.465|56=CLIENT_X|1=123|6=25|14=100|17=8e2e232a-2f04-4f07-af6a-5680f9d62fe2|37=b24c75f3-ce74-4828-b753-b47deadc056f|39=0|54=1|55=PETR4|150=2|151=0|453=0|10=193|8=FIX.4.4|9=196|35=8|34=114|49=SERVER_A|52=20230405-20:15:02.466|56=CLIENT_X|1=123|6=25|14=100|17=b652bf92-a120-420c-a21a-0ab491809168|37=bf4b2df3-173a-4ce9-81fe-fa2d73a1557e|39=0|54=1|55=PETR4|150=2|151=0|453=0|10=110|8=FIX.4.4|9=196|35=8|34=115|49=SERVER_A|52=20230405-20:15:02.476|56=CLIENT_X|1=123|6=25|14=100|17=5220752f-d86b-4729-aa4a-cdef86e9625e|37=a501b836-3e3f-43b9-a203-dd9a12fcaf2d|39=0|54=1|55=PETR4|150=2|151=0|453=0|10=230|8=FIX.4.4|9=196|35=8|34=116|49=SERVER_A|52=20230405-20:15:02.479|56=CLIENT_X|1=123|6=25|14=100|17=970e01f8-c696-4205-a573-08a3fdd9df7f|37=1ff523a2-1ebe-4c16-9858-a847680c2d2a|39=0|54=1|55=PETR4|150=2|151=0|453=0|10=064|8=FIX.4.4|9=196|35=8|34=117|49=SERVER_A|52=20230405-20:15:02.481|56=CLIENT_X|1=123|6=25|14=100|17=3e789274-79ff-44d9-93bb-26202ceb6078|37=0f791181-513b-4f85-b6d1-92f7c1e9e3fd|39=0|54=1|55=PETR4|150=2|151=0|453=0|10=237|8=FIX.4.4|9=196|35=8|34=118|49=SERVER_A|52=20230405-20:15:02.483|56=CLIENT_X|1=123|6=25|14=100|17=c9604c36-5002-4203-85f8-4488829ed867|37=85f188e4-83d5-4398-aa9c-421e1b69bb82|39=0|54=1|55=PETR4|150=2|151=0|453=0|10=004|8=FIX.4.4|9=196|35=8|34=119|49=SERVER_A|52=20230405-20:15:02.486|56=CLIENT_X|1=123|6=25|14=100|17=2fd66a55-f6e5-4bbd-ad37-ce117dbb9a3d|37=34bd2095-3347-4477-bdff-898df7d2cdb5|39=0|54=1|55=PETR4|150=2|151=0|453=0|10=145|8=FIX.4.4|9=196|35=8|34=120|49=SERVER_A|52=20230405-20:15:02.491|56=CLIENT_X|1=123|6=25|14=100|17=1746dea8-9b15-45a3-bce5-63853a298716|37=449acdf9-bdc8-44d7-819d-a39a47407595|39=0|54=1|55=PETR4|150=2|151=0|453=0|10=232|8=FIX.4.4|9=196|35=8|34=121|49=SERVER_A|52=20230405-20:15:02.492|56=CLIENT_X|1=123|6=25|14=100|17=c43615b5-270e-4cab-8a63-8c2e4e58aba6|37=c8f5748a-66e4-4e14-ba52-634697891faa|39=0|54=1|55=PETR4|150=2|151=0|453=0|10=098|8=FIX.4.4|9=196|35=8|34=122|49=SERVER_A|52=20230405-20:15:02.494|56=CLIENT_X|1=123|6=25|14=100|17=8ea18854-7d8f-4fed-8251-7ab81bdfb648|37=4ebc02a7-936c-4d81-84e7-3bd99aec674c|39=0|54=1|55=PETR4|150=2|151=0|453=0|10=013|8=FIX.4.4|9=196|35=8|34=123|49=SERVER_A|52=20230405-20:15:02.496|56=CLIENT_X|1=123|6=25|14=100|17=2e12bf32-47e9-4b96-b544-a4b98f49a98d|37=41765c0b-75a8-4181-bba0-9b01d19217d9|39=0|54=1|55=PETR4|150=2|151=0|453=0|10=213|8=FIX.4.4|9=196|35=8|34=124|49=SERVER_A|52=20230405-20:15:02.498|56=CLIENT_X|1=123|6=25|14=100|17=b69131a9-0e3c-492d-b673-938966bbb35b|37=25dbcf3d-6e51-4291-9ac3-b985241c055e|39=0|54=1|55=PETR4|150=2|151=0|453=0|10=006|8=FIX.4.4|9=196|35=8|34=125|49=SERVER_A|52=20230405-20:15:02.509|56=CLIENT_X|1=123|6=25|14=100|17=712782b8-3f41-4216-900a-28effa3d28a4|37=a500753c-bc1b-4ad1-8203-1c040eed8743|39=0|54=1|55=PETR4|150=2|151=0|453=0|10=167|8=FIX.4.4|9=196|35=8|34=126|49=SERVER_A|52=20230405-20:15:02.512|56=CLIENT_X|1=123|6=25|14=100|17=2fac5778-2249-4003-b874-887f704ee863|37=418c2dc2-19e2-4035-beee-1edd4bec9dcd|39=0|54=1|55=PETR4|150=2|151=0|453=0|10=147|8=FIX.4.4|9=196|35=8|34=127|49=SERVER_A|52=20230405-20:15:02.514|56=CLIENT_X|1=123|6=25|14=100|17=552540d3-3379-42b3-89e1-01699be8f6e8|37=f0911623-49af-4ff2-89f2-c7482293d3a4|39=0|54=1|55=PETR4|150=2|151=0|453=0|10=040|8=FIX.4.4|9=196|35=8|34=128|49=SERVER_A|52=20230405-20:15:02.515|56=CLIENT_X|1=123|6=25|14=100|17=db67f674-08cf-4a00-85ae-c8c763d08b4b|37=09df479a-9bed-4218-9d25-925ebafb2bf9|39=0|54=1|55=PETR4|150=2|151=0|453=0|10=047|8=FIX.4.4|9=196|35=8|34=129|49=SERVER_A|52=20230405-20:15:02.517|56=CLIENT_X|1=123|6=25|14=100|17=0a6669da-b063-4df8-918b-ca0d6c71e6ea|37=4472f3e9-8619-4b13-963e-73816c02e96d|39=0|54=1|55=PETR4|150=2|151=0|453=0|10=018|8=FIX.4.4|9=196|35=8|34=130|49=SERVER_A|52=20230405-20:15:02.521|56=CLIENT_X|1=123|6=25|14=100|17=b1eeca27-39d2-4c6d-ad7e-4a6e6dca2ee3|37=c44245a0-26a5-48db-ab35-374b2338f163|39=0|54=1|55=PETR4|150=2|151=0|453=0|10=251|8=FIX.4.4|9=196|35=8|34=131|49=SERVER_A|52=20230405-20:15:02.523|56=CLIENT_X|1=123|6=25|14=100|17=2d54fa72-9c3f-44c3-a742-878172891c00|37=9274aab4-7a6c-4d32-9a4e-eaedafe03b6b|39=0|54=1|55=PETR4|150=2|151=0|453=0|10=174|8=FIX.4.4|9=196|35=8|34=132|49=SERVER_A|52=20230405-20:15:02.525|56=CLIENT_X|1=123|6=25|14=100|17=2d4d6f4e-9aa5-4a46-a783-46708af6c7a6|37=c516c1bd-ae5d-4155-864b-9c3104423a07|39=0|54=1|55=PETR4|150=2|151=0|453=0|10=032|8=FIX.4.4|9=196|35=8|34=133|49=SERVER_A|52=20230405-20:15:02.527|56=CLIENT_X|1=123|6=25|14=100|17=ee7d2b3e-da0f-4cd3-b6c4-f27018f3d7bb|37=d6c4afe5-afaf-45ac-aa47-62c076bcc285|39=0|54=1|55=PETR4|150=2|151=0|453=0|10=089|8=FIX.4.4|9=196|35=8|34=134|49=SERVER_A|52=20230405-20:15:02.529|56=CLIENT_X|1=123|6=25|14=100|17=727fb762-c033-44c8-a55a-b86acb8e17ee|37=83c1925c-8c66-4c0b-8b40-2798b04e5ed6|39=0|54=1|55=PETR4|150=2|151=0|453=0|10=103|8=FIX.4.4|9=196|35=8|34=135|49=SERVER_A|52=20230405-20:15:02.540|56=CLIENT_X|1=123|6=25|14=100|17=0a9dbe48-ec1f-47f0-85b3-ec3f7a4c3a91|37=3eff98df-4036-4015-889b-70eeb1fc979c|39=0|54=1|55=PETR4|150=2|151=0|453=0|10=047|8=FIX.4.4|9=196|35=8|34=136|49=SERVER_A|52=20230405-20:15:02.543|56=CLIENT_X|1=123|6=25|14=100|17=f0d49d7a-2a00-4890-aa3f-2acfbe176e20|37=c86fbc21-2f66-4928-a50d-0a9dfec2a1a8|39=0|54=1|55=PETR4|150=2|151=0|453=0|10=051|8=FIX.4.4|9=196|35=8|34=137|49=SERVER_A|52=20230405-20:15:02.545|56=CLIENT_X|1=123|6=25|14=100|17=65b50fb3-f6e4-4938-805d-cc4b68b70d40|37=0ad7f499-d945-4a3f-b13a-92db63cdedd9|39=0|54=1|55=PETR4|150=2|151=0|453=0|10=251|8=FIX.4.4|9=196|35=8|34=138|49=SERVER_A|52=20230405-20:15:02.547|56=CLIENT_X|1=123|6=25|14=100|17=cbc616a7-c665-44b7-9cf9-10f660d0e801|37=e82c4d20-34a2-440b-bae3-f431ecec2cea|39=0|54=1|55=PETR4|150=2|151=0|453=0|10=004|8=FIX.4.4|9=196|35=8|34=139|49=SERVER_A|52=20230405-20:15:02.550|56=CLIENT_X|1=123|6=25|14=100|17=a5de76d0-6a9f-4fa0-bda2-2a0071d7e2e6|37=d5965815-167e-4d7f-b562-28f8e7235e1f|39=0|54=1|55=PETR4|150=2|151=0|453=0|10=151|8=FIX.4.4|9=196|35=8|34=140|49=SERVER_A|52=20230405-20:15:02.551|56=CLIENT_X|1=123|6=25|14=100|17=f46d4786-28b3-4fc4-8fc5-c00dac984e20|37=fdd95b05-471e-4eb8-947a-5ed0164a9452|39=0|54=1|55=PETR4|150=2|151=0|453=0|10=102|8=FIX.4.4|9=196|35=8|34=141|49=SERVER_A|52=20230405-20:15:02.555|56=CLIENT_X|1=123|6=25|14=100|17=2255ef6e-4ac7-418e-b1b8-69143b60ad79|37=218e6d6e-7829-4983-a085-5da38e69ff5d|39=0|54=1|55=PETR4|150=2|151=0|453=0|10=032|8=FIX.4.4|9=196|35=8|34=142|49=SERVER_A|52=20230405-20:15:02.557|56=CLIENT_X|1=123|6=25|14=100|17=3dd82c8c-0466-4ef4-8241-533bbc9e809b|37=534800f0-6f50-44d5-b72a-b531f7fc64ee|39=0|54=1|55=PETR4|150=2|151=0|453=0|10=047|8=FIX.4.4|9=196|35=8|34=143|49=SERVER_A|52=20230405-20:15:02.559|56=CLIENT_X|1=123|6=25|14=100|17=489cb704-7fe5-44c9-90f0-68305c3e176d|37=1a4c48d8-4bc8-413a-9d13-e1ce0bafbb60|39=0|54=1|55=PETR4|150=2|151=0|453=0|10=140|8=FIX.4.4|9=196|35=8|34=144|49=SERVER_A|52=20230405-20:15:02.568|56=CLIENT_X|1=123|6=25|14=100|17=9141ad14-daf5-4afd-863c-ab759b46fa63|37=de8f2409-1ae4-49c4-a4b7-6122f4927aec|39=0|54=1|55=PETR4|150=2|151=0|453=0|10=241|8=FIX.4.4|9=196|35=8|34=145|49=SERVER_A|52=20230405-20:15:02.572|56=CLIENT_X|1=123|6=25|14=100|17=d1017710-41a3-422b-8b35-4d8ad3228c5b|37=4c4504ce-17a4-495d-bd3a-20813c862d7d|39=0|54=1|55=PETR4|150=2|151=0|453=0|10=171|8=FIX.4.4|9=196|35=8|34=146|49=SERVER_A|52=20230405-20:15:02.575|56=CLIENT_X|1=123|6=25|14=100|17=d6f2c719-b26b-4c41-9e94-a8fc1a918148|37=a6ac6a44-129d-47b9-8d36-c94f811f9858|39=0|54=1|55=PETR4|150=2|151=0|453=0|10=035|8=FIX.4.4|9=196|35=8|34=147|49=SERVER_A|52=20230405-20:15:02.576|56=CLIENT_X|1=123|6=25|14=100|17=9f24671e-286b-4e58-b4d8-83b2387dab2f|37=5d7fb4ad-a506-4361-961d-10a7e4ab7790|39=0|54=1|55=PETR4|150=2|151=0|453=0|10=061|8=FIX.4.4|9=196|35=8|34=148|49=SERVER_A|52=20230405-20:15:02.582|56=CLIENT_X|1=123|6=25|14=100|17=6d40080f-1752-4b49-9e82-1417eef27581|37=0d3428f7-2e05-4796-a4b8-b376ed0d062a|39=0|54=1|55=PETR4|150=2|151=0|453=0|10=071|8=FIX.4.4|9=196|35=8|34=149|49=SERVER_A|52=20230405-20:15:02.585|56=CLIENT_X|1=123|6=25|14=100|17=642de680-ec13-4c08-b0db-d360efc2d5de|37=16f208b5-5ebc-45c2-baae-e2593ac1bc9a|39=0|54=1|55=PETR4|150=2|151=0|453=0|10=199|8=FIX.4.4|9=196|35=8|34=150|49=SERVER_A|52=20230405-20:15:02.589|56=CLIENT_X|1=123|6=25|14=100|17=b7a3df23-b9e2-430e-ba3a-ffda1785e4eb|37=ef98b4ea-9977-4f5d-948a-96608345e8a5|39=0|54=1|55=PETR4|150=2|151=0|453=0|10=066|8=FIX.4.4|9=196|35=8|34=151|49=SERVER_A|52=20230405-20:15:02.594|56=CLIENT_X|1=123|6=25|14=100|17=b7c948fc-8763-44c7-b5f5-19abf964c8d6|37=39ad9dfd-b024-4f6c-bc22-27d6105d2f08|39=0|54=1|55=PETR4|150=2|151=0|453=0|10=213|8=FIX.4.4|9=196|35=8|34=152|49=SERVER_A|52=20230405-20:15:02.596|56=CLIENT_X|1=123|6=25|14=100|17=55500495-823e-4066-9f0a-d3feee701b3a|37=f8863e1d-7989-4e1e-98d1-dc9c0f2c6717|39=0|54=1|55=PETR4|150=2|151=0|453=0|10=029|8=FIX.4.4|9=196|35=8|34=153|49=SERVER_A|52=20230405-20:15:02.599|56=CLIENT_X|1=123|6=25|14=100|17=34d496f6-4092-4007-9644-92c956f02a23|37=2c12f951-d1d1-4e73-b3b2-81a8a584649e|39=0|54=1|55=PETR4|150=2|151=0|453=0|10=236|8=FIX.4.4|9=196|35=8|34=154|49=SERVER_A|52=20230405-20:15:02.601|56=CLIENT_X|1=123|6=25|14=100|17=3d5aef07-6efb-412c-9d01-67ce7c59b6b6|37=1d8fd6cd-3781-4962-936e-4d34fd8d9738|39=0|54=1|55=PETR4|150=2|151=0|453=0|10=173|8=FIX.4.4|9=196|35=8|34=155|49=SERVER_A|52=20230405-20:15:02.603|56=CLIENT_X|1=123|6=25|14=100|17=e9c2ba6c-0845-495b-9d0c-e3ad568a78fe|37=ba57a490-6143-4e69-b4cf-405d8d6cb942|39=0|54=1|55=PETR4|150=2|151=0|453=0|10=202|8=FIX.4.4|9=196|35=8|34=156|49=SERVER_A|52=20230405-20:15:02.606|56=CLIENT_X|1=123|6=25|14=100|17=cabc2866-6952-49fd-8e3d-cd8e4822eed8|37=c84664d9-b236-470c-bfb1-b06fd609fcc1|39=0|54=1|55=PETR4|150=2|151=0|453=0|10=052|8=FIX.4.4|9=196|35=8|34=157|49=SERVER_A|52=20230405-20:15:02.612|56=CLIENT_X|1=123|6=25|14=100|17=993f45f7-3ec5-4381-826f-0f7b97054900|37=ad989d43-1990-4d09-8eb8-ccd73c31fc3c|39=0|54=1|55=PETR4|150=2|151=0|453=0|10=239|8=FIX.4.4|9=196|35=8|34=158|49=SERVER_A|52=20230405-20:15:02.615|56=CLIENT_X|1=123|6=25|14=100|17=faea56e1-e632-4f2d-92f7-2340a6a59157|37=fbb4ffcf-cad1-4b2c-8e60-d18891c92a23|39=0|54=1|55=PETR4|150=2|151=0|453=0|10=027|8=FIX.4.4|9=196|35=8|34=159|49=SERVER_A|52=20230405-20:15:02.617|56=CLIENT_X|1=123|6=25|14=100|17=e2aaae35-05fc-43d8-ba26-badffde7be56|37=80740364-22b1-4f19-b113-38a9a7f7cd87|39=0|54=1|55=PETR4|150=2|151=0|453=0|10=025|8=FIX.4.4|9=196|35=8|34=160|49=SERVER_A|52=20230405-20:15:02.618|56=CLIENT_X|1=123|6=25|14=100|17=738bdd66-b1d4-45cb-b7f8-40a4b7f2dc45|37=9179f2ce-554b-4c9a-8a9d-ccb6059f084f|39=0|54=1|55=PETR4|150=2|151=0|453=0|10=047|8=FIX.4.4|9=196|35=8|34=161|49=SERVER_A|52=20230405-20:15:02.621|56=CLIENT_X|1=123|6=25|14=100|17=c8d227e7-61aa-4c8f-91db-6aa25893146b|37=89d83bdf-1fbe-440c-9f2f-1be0ba27298f|39=0|54=1|55=PETR4|150=2|151=0|453=0|10=032|8=FIX.4.4|9=196|35=8|34=162|49=SERVER_A|52=20230405-20:15:02.629|56=CLIENT_X|1=123|6=25|14=100|17=9c0c8b72-dd1f-4dd6-a23c-074bdb8da464|37=f7465b06-9936-4129-80c6-0c932bafebe3|39=0|54=1|55=PETR4|150=2|151=0|453=0|10=191|8=FIX.4.4|9=196|35=8|34=163|49=SERVER_A|52=20230405-20:15:02.631|56=CLIENT_X|1=123|6=25|14=100|17=d1089cfe-dba9-4696-855e-967f791cd5c7|37=2c33d064-aa89-4ec4-b446-9b98ecaa5594|39=0|54=1|55=PETR4|150=2|151=0|453=0|10=182|8=FIX.4.4|9=196|35=8|34=164|49=SERVER_A|52=20230405-20:15:02.633|56=CLIENT_X|1=123|6=25|14=100|17=1b0672f2-7888-478c-aadc-f7e128f4d99d|37=16657970-e64c-4004-acbb-3b977431d671|39=0|54=1|55=PETR4|150=2|151=0|453=0|10=227|8=FIX.4.4|9=196|35=8|34=165|49=SERVER_A|52=20230405-20:15:02.636|56=CLIENT_X|1=123|6=25|14=100|17=64136c0e-21ef-471b-a33e-5d450909f56e|37=a1ef2c34-2031-4498-b232-9423d6c39778|39=0|54=1|55=PETR4|150=2|151=0|453=0|10=061|8=FIX.4.4|9=196|35=8|34=166|49=SERVER_A|52=20230405-20:15:02.644|56=CLIENT_X|1=123|6=25|14=100|17=b8c4ccda-2b17-44ee-bba1-dedae3b3d86b|37=c113f510-7b46-4e21-8d91-9e494ea0bcb2|39=0|54=1|55=PETR4|150=2|151=0|453=0|10=195|8=FIX.4.4|9=196|35=8|34=167|49=SERVER_A|52=20230405-20:15:02.648|56=CLIENT_X|1=123|6=25|14=100|17=64c0ad0e-4f70-499e-a81d-59c956f6648d|37=b49b1ad1-85f0-48e6-b667-df2ffd1fbbf3|39=0|54=1|55=PETR4|150=2|151=0|453=0|10=065|8=FIX.4.4|9=196|35=8|34=168|49=SERVER_A|52=20230405-20:15:02.651|56=CLIENT_X|1=123|6=25|14=100|17=0706272d-6b70-4696-91ba-d221ec19366a|37=3db3216f-29a9-479b-bc5f-72be738a61c5|39=0|54=1|55=PETR4|150=2|151=0|453=0|10=209|8=FIX.4.4|9=196|35=8|34=169|49=SERVER_A|52=20230405-20:15:02.659|56=CLIENT_X|1=123|6=25|14=100|17=f447893b-2442-4adb-b9b7-7d3cffcb731f|37=58a57167-011a-42c3-bbcc-2afa1d898884|39=0|54=1|55=PETR4|150=2|151=0|453=0|10=204|8=FIX.4.4|9=196|35=8|34=170|49=SERVER_A|52=20230405-20:15:02.663|56=CLIENT_X|1=123|6=25|14=100|17=b8ffb81c-1679-4ebe-b744-3ec63f57bf42|37=582ff504-e40e-417b-8330-84a9e7ea0875|39=0|54=1|55=PETR4|150=2|151=0|453=0|10=115|8=FIX.4.4|9=196|35=8|34=171|49=SERVER_A|52=20230405-20:15:02.665|56=CLIENT_X|1=123|6=25|14=100|17=beb19cf4-fafc-4a55-a54e-0567dc99075f|37=664f096d-b3a5-490f-ade0-e61a2d87683b|39=0|54=1|55=PETR4|150=2|151=0|453=0|10=045|8=FIX.4.4|9=196|35=8|34=172|49=SERVER_A|52=20230405-20:15:02.668|56=CLIENT_X|1=123|6=25|14=100|17=b13037ec-8a63-4534-91b3-08f696cb40ba|37=6d8dd3f6-0496-4ffb-8959-7f9037b65d0c|39=0|54=1|55=PETR4|150=2|151=0|453=0|10=025|8=FIX.4.4|9=196|35=8|34=173|49=SERVER_A|52=20230405-20:15:02.675|56=CLIENT_X|1=123|6=25|14=100|17=34edc6ea-0f97-40eb-8620-1f782e45b5f7|37=87bf12b4-3070-4c09-94fd-17ac5efb15a9|39=0|54=1|55=PETR4|150=2|151=0|453=0|10=152|8=FIX.4.4|9=196|35=8|34=174|49=SERVER_A|52=20230405-20:15:02.679|56=CLIENT_X|1=123|6=25|14=100|17=fa25ceaf-8721-44a6-8417-318558bb3b6b|37=376544b9-ab87-49e4-b172-f184ebdafce9|39=0|54=1|55=PETR4|150=2|151=0|453=0|10=167|8=FIX.4.4|9=196|35=8|34=175|49=SERVER_A|52=20230405-20:15:02.680|56=CLIENT_X|1=123|6=25|14=100|17=d9dd4fd8-1d83-4022-9f6c-3e6f797c1283|37=b9df562c-c7c6-43b9-aff9-126895109e60|39=0|54=1|55=PETR4|150=2|151=0|453=0|10=088|8=FIX.4.4|9=196|35=8|34=176|49=SERVER_A|52=20230405-20:15:02.683|56=CLIENT_X|1=123|6=25|14=100|17=e256edb2-926d-4eb3-bdd8-d7a0ffb90a90|37=7414555a-748f-4eac-be4c-343669904f85|39=0|54=1|55=PETR4|150=2|151=0|453=0|10=213|8=FIX.4.4|9=196|35=8|34=177|49=SERVER_A|52=20230405-20:15:02.692|56=CLIENT_X|1=123|6=25|14=100|17=a21ee84c-4f17-4699-9874-b932405704f3|37=23e8e509-5654-426b-b96c-81add18fddd8|39=0|54=1|55=PETR4|150=2|151=0|453=0|10=198|8=FIX.4.4|9=196|35=8|34=178|49=SERVER_A|52=20230405-20:15:02.695|56=CLIENT_X|1=123|6=25|14=100|17=9a2aec55-b117-4394-beb0-ed1a0bc02e24|37=a4778c3c-862d-406b-9fb0-55a5db057734|39=0|54=1|55=PETR4|150=2|151=0|453=0|10=127|8=FIX.4.4|9=196|35=8|34=179|49=SERVER_A|52=20230405-20:15:02.697|56=CLIENT_X|1=123|6=25|14=100|17=f47ac0ba-3141-4134-85cb-d31b63f6c62e|37=ac2c05ea-ec7a-41c9-b9c4-7e649e9519c4|39=0|54=1|55=PETR4|150=2|151=0|453=0|10=241|8=FIX.4.4|9=196|35=8|34=180|49=SERVER_A|52=20230405-20:15:02.701|56=CLIENT_X|1=123|6=25|14=100|17=5df507f8-4a26-487f-8b4a-734d473ec06e|37=0ed658a8-7b68-4f55-81fa-9cce56609f06|39=0|54=1|55=PETR4|150=2|151=0|453=0|10=078|8=FIX.4.4|9=196|35=8|34=181|49=SERVER_A|52=20230405-20:15:02.705|56=CLIENT_X|1=123|6=25|14=100|17=2ca5024e-f9b2-4915-b1c9-2577679c73d9|37=f8cefbec-9959-4dd1-bb97-1845448bfea7|39=0|54=1|55=PETR4|150=2|151=0|453=0|10=182|8=FIX.4.4|9=196|35=8|34=182|49=SERVER_A|52=20230405-20:15:02.707|56=CLIENT_X|1=123|6=25|14=100|17=f210f310-b190-4fb8-ba7b-8ec799f63b7f|37=0f6315c8-eff7-4c67-83bc-f8a95756acb0|39=0|54=1|55=PETR4|150=2|151=0|453=0|10=002|8=FIX.4.4|9=196|35=8|34=183|49=SERVER_A|52=20230405-20:15:02.709|56=CLIENT_X|1=123|6=25|14=100|17=8d82434c-ae60-4f98-95b1-c16b3a5bf4c3|37=787f7539-eada-4464-981a-155762ccd982|39=0|54=1|55=PETR4|150=2|151=0|453=0|10=028|8=FIX.4.4|9=196|35=8|34=184|49=SERVER_A|52=20230405-20:15:02.711|56=CLIENT_X|1=123|6=25|14=100|17=32725e67-ffa3-450d-9d3f-fe8817ed6b18|37=525485c3-b8e1-495b-b8f8-5d9016d70732|39=0|54=1|55=PETR4|150=2|151=0|453=0|10=236|8=FIX.4.4|9=196|35=8|34=185|49=SERVER_A|52=20230405-20:15:02.714|56=CLIENT_X|1=123|6=25|14=100|17=85db7026-87c3-4e5e-a98e-6ed2b36d5312|37=e68216ad-c111-4cb1-ad5e-87a56b6b27e5|39=0|54=1|55=PETR4|150=2|151=0|453=0|10=144|8=FIX.4.4|9=196|35=8|34=186|49=SERVER_A|52=20230405-20:15:02.723|56=CLIENT_X|1=123|6=25|14=100|17=09b7d532-9f07-4015-a785-17daa59401d3|37=0c13879b-b850-49da-a863-ff4fc47d418e|39=0|54=1|55=PETR4|150=2|151=0|453=0|10=216|8=FIX.4.4|9=196|35=8|34=187|49=SERVER_A|52=20230405-20:15:02.726|56=CLIENT_X|1=123|6=25|14=100|17=35e8bbe8-61f9-46ea-8324-dc2b3cd5e7d7|37=d5f49f53-94ad-46fe-877e-dd48d6913b5c|39=0|54=1|55=PETR4|150=2|151=0|453=0|10=080|8=FIX.4.4|9=196|35=8|34=188|49=SERVER_A|52=20230405-20:15:02.729|56=CLIENT_X|1=123|6=25|14=100|17=75204af6-aa1e-4c13-a688-72bf08b93a7c|37=89184592-f16e-4dce-9c04-65370efa34ed|39=0|54=1|55=PETR4|150=2|151=0|453=0|10=113|8=FIX.4.4|9=196|35=8|34=189|49=SERVER_A|52=20230405-20:15:02.733|56=CLIENT_X|1=123|6=25|14=100|17=c1faf6c8-2cfc-4634-8bed-4a262d44b37b|37=6bb840d2-6d06-4101-bd14-090cdf94c0a1|39=0|54=1|55=PETR4|150=2|151=0|453=0|10=211|8=FIX.4.4|9=196|35=8|34=190|49=SERVER_A|52=20230405-20:15:02.738|56=CLIENT_X|1=123|6=25|14=100|17=dd33ce0e-179d-4022-bcb8-70292fadbaf0|37=dc16f462-44ba-4147-b81d-af9329a39491|39=0|54=1|55=PETR4|150=2|151=0|453=0|10=176|8=FIX.4.4|9=196|35=8|34=191|49=SERVER_A|52=20230405-20:15:02.741|56=CLIENT_X|1=123|6=25|14=100|17=8d7aa298-c08c-43ba-9135-3477e7c47bbf|37=3422e172-44ec-47f9-a5f4-cafe62eb509e|39=0|54=1|55=PETR4|150=2|151=0|453=0|10=201|8=FIX.4.4|9=196|35=8|34=192|49=SERVER_A|52=20230405-20:15:02.743|56=CLIENT_X|1=123|6=25|14=100|17=32889b3d-ac89-4f5b-8bbe-3f8de3920bbe|37=87181cac-4110-4c6e-8091-dbc1ced04c57|39=0|54=1|55=PETR4|150=2|151=0|453=0|10=030|8=FIX.4.4|9=196|35=8|34=193|49=SERVER_A|52=20230405-20:15:02.745|56=CLIENT_X|1=123|6=25|14=100|17=28961ee4-5514-49eb-8e7e-756cbf256611|37=8d71c756-d739-4c3c-961f-26098f065f59|39=0|54=1|55=PETR4|150=2|151=0|453=0|10=118|8=FIX.4.4|9=196|35=8|34=194|49=SERVER_A|52=20230405-20:15:02.751|56=CLIENT_X|1=123|6=25|14=100|17=3eb60d75-48b0-4b06-aac2-cfead71e36c9|37=54aa12d8-e0d2-456a-8a71-366c548747c2|39=0|54=1|55=PETR4|150=2|151=0|453=0|10=131|8=FIX.4.4|9=196|35=8|34=195|49=SERVER_A|52=20230405-20:15:02.755|56=CLIENT_X|1=123|6=25|14=100|17=1f1a2dc5-db39-4f3a-a1bb-6ca1245b3069|37=ded323e9-19fe-4c9f-ab01-f1b61eb25a73|39=0|54=1|55=PETR4|150=2|151=0|453=0|10=100|8=FIX.4.4|9=196|35=8|34=196|49=SERVER_A|52=20230405-20:15:02.758|56=CLIENT_X|1=123|6=25|14=100|17=6189d912-9513-4e20-97db-e19f6a734f6e|37=06587a6c-5e2d-4962-b834-b96fc439e352|39=0|54=1|55=PETR4|150=2|151=0|453=0|10=159|8=FIX.4.4|9=196|35=8|34=197|49=SERVER_A|52=20230405-20:15:02.760|56=CLIENT_X|1=123|6=25|14=100|17=2308f317-49f4-4da9-a582-2288dbfa30b7|37=798ae9f4-1232-42cd-b1bb-e310d7c9e0a9|39=0|54=1|55=PETR4|150=2|151=0|453=0|10=096|8=FIX.4.4|9=196|35=8|34=198|49=SERVER_A|52=20230405-20:15:02.766|56=CLIENT_X|1=123|6=25|14=100|17=021947e1-5956-4360-bc16-1520c87c688a|37=6274346a-8376-498e-96f8-be251053c414|39=0|54=1|55=PETR4|150=2|151=0|453=0|10=109|8=FIX.4.4|9=196|35=8|34=199|49=SERVER_A|52=20230405-20:15:02.769|56=CLIENT_X|1=123|6=25|14=100|17=4da677b7-a1e2-4105-9a32-60a1911587a9|37=82cbf180-50e4-4fd9-9039-a30de36888e6|39=0|54=1|55=PETR4|150=2|151=0|453=0|10=133|8=FIX.4.4|9=196|35=8|34=200|49=SERVER_A|52=20230405-20:15:02.773|56=CLIENT_X|1=123|6=25|14=100|17=3e1fde10-9874-405b-b5ea-ec575e56b810|37=fa03c398-ea98-434a-867e-652aedbf4a1b|39=0|54=1|55=PETR4|150=2|151=0|453=0|10=235|8=FIX.4.4|9=196|35=8|34=201|49=SERVER_A|52=20230405-20:15:02.775|56=CLIENT_X|1=123|6=25|14=100|17=db262669-16ef-46b0-9954-89b6521bf644|37=c61b6429-97d9-4cae-979e-90b914954b2f|39=0|54=1|55=PETR4|150=2|151=0|453=0|10=155|8=FIX.4.4|9=196|35=8|34=202|49=SERVER_A|52=20230405-20:15:02.777|56=CLIENT_X|1=123|6=25|14=100|17=92a294d4-086e-435b-affb-1986c6d8eab5|37=9bc3de68-d2f1-4d98-a287-b910d7f1c630|39=0|54=1|55=PETR4|150=2|151=0|453=0|10=210|8=FIX.4.4|9=196|35=8|34=203|49=SERVER_A|52=20230405-20:15:02.784|56=CLIENT_X|1=123|6=25|14=100|17=34d07abd-5712-45fa-b68f-e5b7fcd9888f|37=b6fe9ca7-aece-4c9e-9177-2d8878953259|39=0|54=1|55=PETR4|150=2|151=0|453=0|10=039|8=FIX.4.4|9=196|35=8|34=204|49=SERVER_A|52=20230405-20:15:02.788|56=CLIENT_X|1=123|6=25|14=100|17=9eb21c4a-c56f-4c21-9422-6fce10942ea7|37=81f4ac47-f2ca-4167-8a59-810267adff1d|39=0|54=1|55=PETR4|150=2|151=0|453=0|10=143|8=FIX.4.4|9=196|35=8|34=205|49=SERVER_A|52=20230405-20:15:02.790|56=CLIENT_X|1=123|6=25|14=100|17=7cdd3fe5-0d79-4bef-9f90-7b5971eec8f9|37=deced032-3d6d-4ca5-9814-fba8f32eefb2|39=0|54=1|55=PETR4|150=2|151=0|453=0|10=044|8=FIX.4.4|9=196|35=8|34=206|49=SERVER_A|52=20230405-20:15:02.792|56=CLIENT_X|1=123|6=25|14=100|17=cdafee1f-e1d8-4048-a1b5-bcc8c0f5a802|37=d2681c0e-6068-4b8f-be30-d3390c6c0529|39=0|54=1|55=PETR4|150=2|151=0|453=0|10=013|8=FIX.4.4|9=196|35=8|34=207|49=SERVER_A|52=20230405-20:15:02.798|56=CLIENT_X|1=123|6=25|14=100|17=508205e5-99df-4cac-b283-e34ab3ed4a1b|37=ce83efd7-3de9-4787-a563-b293c0896e51|39=0|54=1|55=PETR4|150=2|151=0|453=0|10=214|8=FIX.4.4|9=196|35=8|34=208|49=SERVER_A|52=20230405-20:15:02.801|56=CLIENT_X|1=123|6=25|14=100|17=1219c3f6-0d68-42cb-af41-0a400be9a729|37=ba581887-7ff3-485a-b608-c7607088954e|39=0|54=1|55=PETR4|150=2|151=0|453=0|10=163|8=FIX.4.4|9=196|35=8|34=209|49=SERVER_A|52=20230405-20:15:02.804|56=CLIENT_X|1=123|6=25|14=100|17=3cdc059c-df28-485a-979a-668e5226c16c|37=65b43b6d-891b-4e2e-87f5-b5d0e98a1045|39=0|54=1|55=PETR4|150=2|151=0|453=0|10=070|8=FIX.4.4|9=196|35=8|34=210|49=SERVER_A|52=20230405-20:15:02.806|56=CLIENT_X|1=123|6=25|14=100|17=47a6c35c-8b86-4a14-8b14-8f2d72775b38|37=395e06d8-0186-41fa-8a0b-135d97bea88f|39=0|54=1|55=PETR4|150=2|151=0|453=0|10=218|8=FIX.4.4|9=196|35=8|34=211|49=SERVER_A|52=20230405-20:15:02.812|56=CLIENT_X|1=123|6=25|14=100|17=176f0efd-9d44-45d9-8a5f-2f19a8b7ee24|37=fc3ae15f-e9a2-4210-bc6c-2132ab95bb28|39=0|54=1|55=PETR4|150=2|151=0|453=0|10=018|8=FIX.4.4|9=196|35=8|34=212|49=SERVER_A|52=20230405-20:15:02.814|56=CLIENT_X|1=123|6=25|14=100|17=422a939a-9e7c-4c70-847d-3f0e797f17e2|37=ea85ab87-7685-49ed-b3ad-7bed6f22b47b|39=0|54=1|55=PETR4|150=2|151=0|453=0|10=218|8=FIX.4.4|9=196|35=8|34=213|49=SERVER_A|52=20230405-20:15:02.816|56=CLIENT_X|1=123|6=25|14=100|17=f6ee82f3-7404-4a45-b3b2-3b9613edb776|37=8a6ca383-5195-4ce0-a5a7-5d79d7d1e066|39=0|54=1|55=PETR4|150=2|151=0|453=0|10=054|8=FIX.4.4|9=196|35=8|34=214|49=SERVER_A|52=20230405-20:15:02.818|56=CLIENT_X|1=123|6=25|14=100|17=9c8d4906-7932-4333-a64c-3368162b392c|37=db4b3910-884c-42b4-976a-76f8b00b6161|39=0|54=1|55=PETR4|150=2|151=0|453=0|10=229|8=FIX.4.4|9=196|35=8|34=215|49=SERVER_A|52=20230405-20:15:02.821|56=CLIENT_X|1=123|6=25|14=100|17=fadc326b-c3b2-4db4-bdc8-faa59ca811eb|37=6e1658ae-09ac-4d3f-9b8f-5b8407bfb87c|39=0|54=1|55=PETR4|150=2|151=0|453=0|10=054|8=FIX.4.4|9=196|35=8|34=216|49=SERVER_A|52=20230405-20:15:02.824|56=CLIENT_X|1=123|6=25|14=100|17=81682d17-bcb4-49ff-b0a2-239442e0b5ba|37=66fffa3e-18c4-4411-b5ad-9fc8d302cbc9|39=0|54=1|55=PETR4|150=2|151=0|453=0|10=015|8=FIX.4.4|9=196|35=8|34=217|49=SERVER_A|52=20230405-20:15:02.830|56=CLIENT_X|1=123|6=25|14=100|17=f5f2d5ac-8877-43d3-a3d5-647e88b573a7|37=86d9deec-c24a-47bd-8faf-e19a5569cc5c|39=0|54=1|55=PETR4|150=2|151=0|453=0|10=114|8=FIX.4.4|9=196|35=8|34=218|49=SERVER_A|52=20230405-20:15:02.832|56=CLIENT_X|1=123|6=25|14=100|17=cfb41a27-e008-49e8-a598-ca4501f94b77|37=10d349c0-92c2-49a9-a059-b2767291dc0d|39=0|54=1|55=PETR4|150=2|151=0|453=0|10=208|8=FIX.4.4|9=196|35=8|34=219|49=SERVER_A|52=20230405-20:15:02.833|56=CLIENT_X|1=123|6=25|14=100|17=5b79c798-d3a7-4b11-933f-f8e23d6a2f13|37=e4316af7-6bb8-43a6-881e-d50c403ab133|39=0|54=1|55=PETR4|150=2|151=0|453=0|10=045|8=FIX.4.4|9=196|35=8|34=220|49=SERVER_A|52=20230405-20:15:02.835|56=CLIENT_X|1=123|6=25|14=100|17=3cc8e53a-702a-4f9d-b8af-d99c5725bd25|37=8d3bb8bf-8d1c-4900-bc68-b393e4ff9e03|39=0|54=1|55=PETR4|150=2|151=0|453=0|10=090|8=FIX.4.4|9=196|35=8|34=221|49=SERVER_A|52=20230405-20:15:02.839|56=CLIENT_X|1=123|6=25|14=100|17=0cc517fc-5724-4782-8b57-7cd27f35cf30|37=bc88ec74-bcd3-47f4-968b-8d35768cd9ea|39=0|54=1|55=PETR4|150=2|151=0|453=0|10=182|8=FIX.4.4|9=196|35=8|34=222|49=SERVER_A|52=20230405-20:15:02.846|56=CLIENT_X|1=123|6=25|14=100|17=34ae8c10-77a7-4232-95c3-14d6a0b516ab|37=0a149a07-73c9-4c0c-8440-00040654ee6a|39=0|54=1|55=PETR4|150=2|151=0|453=0|10=068|8=FIX.4.4|9=196|35=8|34=223|49=SERVER_A|52=20230405-20:15:02.850|56=CLIENT_X|1=123|6=25|14=100|17=c12acb48-9590-4173-ab6a-a2b319a96915|37=a989302b-1088-42c8-93d6-011066a5b914|39=0|54=1|55=PETR4|150=2|151=0|453=0|10=253|8=FIX.4.4|9=196|35=8|34=224|49=SERVER_A|52=20230405-20:15:02.854|56=CLIENT_X|1=123|6=25|14=100|17=9c5cd2ca-b498-4304-95ac-c9be190913af|37=86427f7c-24ed-4e84-b8cc-201735e8c02c|39=0|54=1|55=PETR4|150=2|151=0|453=0|10=148|8=FIX.4.4|9=196|35=8|34=225|49=SERVER_A|52=20230405-20:15:02.860|56=CLIENT_X|1=123|6=25|14=100|17=035c0f41-bec7-4f87-bd5d-e92404b941e1|37=7df5fc1b-631b-4046-a26a-bad7675a03bc|39=0|54=1|55=PETR4|150=2|151=0|453=0|10=213|8=FIX.4.4|9=196|35=8|34=226|49=SERVER_A|52=20230405-20:15:02.865|56=CLIENT_X|1=123|6=25|14=100|17=0a3d302d-3105-49c9-a01c-9cfcedcd8b13|37=9f405a78-1062-4dcc-bd1f-f6985b174982|39=0|54=1|55=PETR4|150=2|151=0|453=0|10=137|8=FIX.4.4|9=196|35=8|34=227|49=SERVER_A|52=20230405-20:15:02.869|56=CLIENT_X|1=123|6=25|14=100|17=34944a57-9f49-440b-b318-57cf6e1030c2|37=bf28f12b-71be-44ad-898e-394b67b40da5|39=0|54=1|55=PETR4|150=2|151=0|453=0|10=012|8=FIX.4.4|9=196|35=8|34=228|49=SERVER_A|52=20230405-20:15:02.875|56=CLIENT_X|1=123|6=25|14=100|17=4d1ec1fc-92aa-44bf-932c-c959e3180d4b|37=7da369d0-fef3-417b-b176-282c047e6d9e|39=0|54=1|55=PETR4|150=2|151=0|453=0|10=251|8=FIX.4.4|9=196|35=8|34=229|49=SERVER_A|52=20230405-20:15:02.879|56=CLIENT_X|1=123|6=25|14=100|17=ae2e4b03-a61b-4ed9-88a4-bbb8df0ab6f7|37=113d77c0-e1b3-4862-aa2c-49b3d2fb6106|39=0|54=1|55=PETR4|150=2|151=0|453=0|10=061|8=FIX.4.4|9=196|35=8|34=230|49=SERVER_A|52=20230405-20:15:02.882|56=CLIENT_X|1=123|6=25|14=100|17=6fb54ce0-72bb-4696-be91-955a866466df|37=bc69d05c-504f-400f-a1dc-f0968b784db6|39=0|54=1|55=PETR4|150=2|151=0|453=0|10=161|8=FIX.4.4|9=196|35=8|34=231|49=SERVER_A|52=20230405-20:15:02.885|56=CLIENT_X|1=123|6=25|14=100|17=9f4e90a4-43f1-4820-ab6b-8b608f1e8c77|37=9cc02497-2d7d-437d-968f-2b953433bc09|39=0|54=1|55=PETR4|150=2|151=0|453=0|10=233|8=FIX.4.4|9=196|35=8|34=232|49=SERVER_A|52=20230405-20:15:02.893|56=CLIENT_X|1=123|6=25|14=100|17=8ff6bd0b-2bef-49b8-876c-4b2238d87a3c|37=57c43f8a-1fe9-4c82-bc58-5a9ad1713849|39=0|54=1|55=PETR4|150=2|151=0|453=0|10=222|8=FIX.4.4|9=196|35=8|34=233|49=SERVER_A|52=20230405-20:15:02.896|56=CLIENT_X|1=123|6=25|14=100|17=2c53db32-9e33-401d-9fac-d24aa5d02f7d|37=3c2fbc47-424c-48a8-901c-ad0f83ce1bdb|39=0|54=1|55=PETR4|150=2|151=0|453=0|10=101|8=FIX.4.4|9=196|35=8|34=234|49=SERVER_A|52=20230405-20:15:02.898|56=CLIENT_X|1=123|6=25|14=100|17=c6dfa796-0d67-4129-94ef-c28acfa13b15|37=392ce2aa-8a3d-4520-8eb8-c0419601970f|39=0|54=1|55=PETR4|150=2|151=0|453=0|10=101|8=FIX.4.4|9=196|35=8|34=235|49=SERVER_A|52=20230405-20:15:02.900|56=CLIENT_X|1=123|6=25|14=100|17=399b017b-d181-4ec9-97c7-72fe2c52fb38|37=9b59c1a7-793e-47bb-a156-5bf5a167a4fc|39=0|54=1|55=PETR4|150=2|151=0|453=0|10=158|8=FIX.4.4|9=196|35=8|34=236|49=SERVER_A|52=20230405-20:15:02.902|56=CLIENT_X|1=123|6=25|14=100|17=2af0ed4d-2bf9-4f9e-9e50-5e8e66593a50|37=e10d8c33-255e-41ae-bb8c-209e216458b3|39=0|54=1|55=PETR4|150=2|151=0|453=0|10=143|8=FIX.4.4|9=196|35=8|34=237|49=SERVER_A|52=20230405-20:15:02.911|56=CLIENT_X|1=123|6=25|14=100|17=33f9b1f6-a2a2-4427-a957-0f7b10a2ac9a|37=4e156439-9d15-43a6-bcba-6e14048581d1|39=0|54=1|55=PETR4|150=2|151=0|453=0|10=232|8=FIX.4.4|9=196|35=8|34=238|49=SERVER_A|52=20230405-20:15:02.914|56=CLIENT_X|1=123|6=25|14=100|17=9fd30f30-0f75-4eee-aa36-10fab7b6a64a|37=6f75465c-aa82-4033-ae71-c59164ac4e72|39=0|54=1|55=PETR4|150=2|151=0|453=0|10=177|8=FIX.4.4|9=196|35=8|34=239|49=SERVER_A|52=20230405-20:15:02.917|56=CLIENT_X|1=123|6=25|14=100|17=40948d64-d043-40e8-8cd5-da23f08eb880|37=61649800-4a2d-42a8-b8ae-e7be1dfeab0e|39=0|54=1|55=PETR4|150=2|151=0|453=0|10=190|8=FIX.4.4|9=196|35=8|34=240|49=SERVER_A|52=20230405-20:15:02.925|56=CLIENT_X|1=123|6=25|14=100|17=9edfbcc4-8673-40c0-84a0-b024af94d2d9|37=6db6d462-8707-4028-a434-401d94f68edb|39=0|54=1|55=PETR4|150=2|151=0|453=0|10=046|8=FIX.4.4|9=196|35=8|34=241|49=SERVER_A|52=20230405-20:15:02.927|56=CLIENT_X|1=123|6=25|14=100|17=4036dfc0-b668-4cd7-8c75-70c59247107b|37=74c48395-6aa9-43d7-ad0f-c29b77ae9c05|39=0|54=1|55=PETR4|150=2|151=0|453=0|10=017|8=FIX.4.4|9=196|35=8|34=242|49=SERVER_A|52=20230405-20:15:02.930|56=CLIENT_X|1=123|6=25|14=100|17=f5fc93bc-b8bf-4ba0-a1d9-da66f07d1069|37=9198e147-8dab-42f9-9595-d06649276073|39=0|54=1|55=PETR4|150=2|151=0|453=0|10=071|8=FIX.4.4|9=196|35=8|34=243|49=SERVER_A|52=20230405-20:15:02.933|56=CLIENT_X|1=123|6=25|14=100|17=79d02b08-400f-48aa-b761-fb59eb182464|37=064a6c2c-57ed-4eec-b541-2450dd128a79|39=0|54=1|55=PETR4|150=2|151=0|453=0|10=034|8=FIX.4.4|9=196|35=8|34=244|49=SERVER_A|52=20230405-20:15:02.942|56=CLIENT_X|1=123|6=25|14=100|17=772aed17-4b2a-4793-8036-4382c9b95db2|37=eb5006a9-cb5f-4fdc-86f5-938b28a95d43|39=0|54=1|55=PETR4|150=2|151=0|453=0|10=067|8=FIX.4.4|9=196|35=8|34=245|49=SERVER_A|52=20230405-20:15:02.943|56=CLIENT_X|1=123|6=25|14=100|17=e8601808-a036-43b8-9598-97b52282a94c|37=9b7a7b6a-fa30-4630-80ea-1a909105879c|39=0|54=1|55=PETR4|150=2|151=0|453=0|10=030|8=FIX.4.4|9=196|35=8|34=246|49=SERVER_A|52=20230405-20:15:02.945|56=CLIENT_X|1=123|6=25|14=100|17=ec9ce050-a8d0-4f68-b2d3-6b6c77239287|37=89350c2a-c117-44f6-a12d-4b8dd3e86576|39=0|54=1|55=PETR4|150=2|151=0|453=0|10=017|8=FIX.4.4|9=196|35=8|34=247|49=SERVER_A|52=20230405-20:15:02.947|56=CLIENT_X|1=123|6=25|14=100|17=f98aee3d-bfaf-43dd-94a8-9f49988b7bfe|37=debc5c63-d332-4aa9-b4f6-0d54c57326e3|39=0|54=1|55=PETR4|150=2|151=0|453=0|10=214|8=FIX.4.4|9=196|35=8|34=248|49=SERVER_A|52=20230405-20:15:02.953|56=CLIENT_X|1=123|6=25|14=100|17=6ea2c096-116e-45da-b324-b5b727b4ce24|37=6d51f114-7cee-407f-ade0-85f26561b825|39=0|54=1|55=PETR4|150=2|151=0|453=0|10=087|8=FIX.4.4|9=196|35=8|34=249|49=SERVER_A|52=20230405-20:15:02.960|56=CLIENT_X|1=123|6=25|14=100|17=2fc051b1-80c3-4332-b4f0-f3537fb3699e|37=a42c8fd3-7d19-4b08-94d4-b389245c4fe1|39=0|54=1|55=PETR4|150=2|151=0|453=0|10=005|8=FIX.4.4|9=196|35=8|34=250|49=SERVER_A|52=20230405-20:15:02.961|56=CLIENT_X|1=123|6=25|14=100|17=7ca11a15-5348-4965-a05c-9e61ddc87b63|37=b9fdb51a-d8cf-4c21-b849-65d378448a3b|39=0|54=1|55=PETR4|150=2|151=0|453=0|10=103|8=FIX.4.4|9=196|35=8|34=251|49=SERVER_A|52=20230405-20:15:02.963|56=CLIENT_X|1=123|6=25|14=100|17=e0eed784-cf50-46a8-acf6-7789c42f3e42|37=e4af9f19-0ec3-4b1c-a54f-9ea5c7e45841|39=0|54=1|55=PETR4|150=2|151=0|453=0|10=054|8=FIX.4.4|9=196|35=8|34=252|49=SERVER_A|52=20230405-20:15:02.968|56=CLIENT_X|1=123|6=25|14=100|17=362c708e-9497-46d5-bd95-d46c103b9a4a|37=4e4ce001-99fa-41b1-8d76-e1bad99e89fa|39=0|54=1|55=PETR4|150=2|151=0|453=0|10=170|8=FIX.4.4|9=196|35=8|34=253|49=SERVER_A|52=20230405-20:15:02.970|56=CLIENT_X|1=123|6=25|14=100|17=2f12ef8c-5fe2-4210-b686-57064bc882ee|37=b72ab9f5-27b3-41c6-8958-a9c9f50efbfb|39=0|54=1|55=PETR4|150=2|151=0|453=0|10=213|8=FIX.4.4|9=196|35=8|34=254|49=SERVER_A|52=20230405-20:15:02.973|56=CLIENT_X|1=123|6=25|14=100|17=030a3224-d3f9-42ea-a6cd-651899ac5c68|37=b35cc4be-4a33-4e8c-9f20-6d0b49a19c9c|39=0|54=1|55=PETR4|150=2|151=0|453=0|10=189|8=FIX.4.4|9=196|35=8|34=255|49=SERVER_A|52=20230405-20:15:02.976|56=CLIENT_X|1=123|6=25|14=100|17=40875bdc-3f4e-477e-9a7d-d2ae709c27aa|37=c03451e8-d6a6-4899-a3ea-a5e7bfc2fa1a|39=0|54=1|55=PETR4|150=2|151=0|453=0|10=139|8=FIX.4.4|9=196|35=8|34=256|49=SERVER_A|52=20230405-20:15:02.979|56=CLIENT_X|1=123|6=25|14=100|17=ed539a71-ae48-4553-a6be-641e2afd60a7|37=66ad6a9c-d621-4ff2-b53d-cc79794146dc|39=0|54=1|55=PETR4|150=2|151=0|453=0|10=004|8=FIX.4.4|9=196|35=8|34=257|49=SERVER_A|52=20230405-20:15:02.985|56=CLIENT_X|1=123|6=25|14=100|17=488f0fba-92ed-4839-8808-11fa848c6b30|37=ab48e4c0-0c9c-4538-aad1-a55830f4d06d|39=0|54=1|55=PETR4|150=2|151=0|453=0|10=107|8=FIX.4.4|9=196|35=8|34=258|49=SERVER_A|52=20230405-20:15:02.988|56=CLIENT_X|1=123|6=25|14=100|17=665e1346-fe43-4711-a09a-1a07183eaf53|37=fbb398eb-df8c-4041-bdfb-6af9ec588117|39=0|54=1|55=PETR4|150=2|151=0|453=0|10=206|8=FIX.4.4|9=196|35=8|34=259|49=SERVER_A|52=20230405-20:15:02.990|56=CLIENT_X|1=123|6=25|14=100|17=02107e6e-1e96-4a5b-b453-fc62d2276ee0|37=1fd55e37-88d9-4db8-8553-1f9b107e0ec6|39=0|54=1|55=PETR4|150=2|151=0|453=0|10=066|8=FIX.4.4|9=196|35=8|34=260|49=SERVER_A|52=20230405-20:15:02.993|56=CLIENT_X|1=123|6=25|14=100|17=2d56f97b-0122-4474-a82c-fb840e49d4e2|37=8b6ac9a2-567e-4c85-ba2d-1686f8aec2d7|39=0|54=1|55=PETR4|150=2|151=0|453=0|10=160|8=FIX.4.4|9=196|35=8|34=261|49=SERVER_A|52=20230405-20:15:02.998|56=CLIENT_X|1=123|6=25|14=100|17=56da5410-a1df-4778-855a-b0ad1d3d0049|37=802a3967-ad9e-42bd-aa3d-e121329b15c5|39=0|54=1|55=PETR4|150=2|151=0|453=0|10=075|8=FIX.4.4|9=196|35=8|34=262|49=SERVER_A|52=20230405-20:15:03.001|56=CLIENT_X|1=123|6=25|14=100|17=13f2fbd1-ba49-48a8-aec3-a92fe0f2359c|37=edc36a53-888a-48a0-a7a5-757504d40de1|39=0|54=1|55=PETR4|150=2|151=0|453=0|10=219|8=FIX.4.4|9=196|35=8|34=263|49=SERVER_A|52=20230405-20:15:03.003|56=CLIENT_X|1=123|6=25|14=100|17=715c630f-f68b-4092-a5f5-80e1dac53276|37=3b4c87c1-4582-447d-807b-d05d08f94b7c|39=0|54=1|55=PETR4|150=2|151=0|453=0|10=205|8=FIX.4.4|9=196|35=8|34=264|49=SERVER_A|52=20230405-20:15:03.006|56=CLIENT_X|1=123|6=25|14=100|17=b5719165-f6f1-46c9-81e5-222393bc4c82|37=9b37c00a-088f-416c-b2c1-362b3875f148|39=0|54=1|55=PETR4|150=2|151=0|453=0|10=060|8=FIX.4.4|9=196|35=8|34=265|49=SERVER_A|52=20230405-20:15:03.008|56=CLIENT_X|1=123|6=25|14=100|17=cc2d29aa-e3b6-4593-8733-08edea8649f7|37=c79183a5-c56a-4ff8-8539-30c37c8dbcab|39=0|54=1|55=PETR4|150=2|151=0|453=0|10=214|8=FIX.4.4|9=196|35=8|34=266|49=SERVER_A|52=20230405-20:15:03.010|56=CLIENT_X|1=123|6=25|14=100|17=008d27a4-1eb9-45a7-adf2-bb8e34277414|37=f6445540-b9b2-409b-aa56-b5eef81cdb72|39=0|54=1|55=PETR4|150=2|151=0|453=0|10=123|8=FIX.4.4|9=196|35=8|34=267|49=SERVER_A|52=20230405-20:15:03.016|56=CLIENT_X|1=123|6=25|14=100|17=e22bc906-f029-4549-bb6f-395cb642ec6d|37=68efbbbb-6810-4acb-808e-d4b1575563c4|39=0|54=1|55=PETR4|150=2|151=0|453=0|10=193|8=FIX.4.4|9=196|35=8|34=268|49=SERVER_A|52=20230405-20:15:03.019|56=CLIENT_X|1=123|6=25|14=100|17=1f5481a1-3d03-4c5e-95db-46de60838060|37=35ac3a6f-2803-476f-877e-35287674305b|39=0|54=1|55=PETR4|150=2|151=0|453=0|10=024|8=FIX.4.4|9=196|35=8|34=269|49=SERVER_A|52=20230405-20:15:03.022|56=CLIENT_X|1=123|6=25|14=100|17=b438ef65-3615-46d1-9827-af3013244767|37=9e4c68fb-c581-40f0-bb33-6117a8ececd2|39=0|54=1|55=PETR4|150=2|151=0|453=0|10=209|8=FIX.4.4|9=196|35=8|34=270|49=SERVER_A|52=20230405-20:15:03.024|56=CLIENT_X|1=123|6=25|14=100|17=d1b80ad1-158e-4e34-8b5a-d712dd3d41ed|37=3941683c-67e1-47c3-a25f-10d95772b66d|39=0|54=1|55=PETR4|150=2|151=0|453=0|10=033|8=FIX.4.4|9=196|35=8|34=271|49=SERVER_A|52=20230405-20:15:03.026|56=CLIENT_X|1=123|6=25|14=100|17=7692b967-1185-4ab6-8684-081b1a926faa|37=0d43604a-2fb6-48eb-b5f7-daeee4e1ff54|39=0|54=1|55=PETR4|150=2|151=0|453=0|10=145|8=FIX.4.4|9=196|35=8|34=272|49=SERVER_A|52=20230405-20:15:03.032|56=CLIENT_X|1=123|6=25|14=100|17=798c738f-4cfa-4de1-8ba7-8fe67dfc4b6b|37=fdafb2be-6ea8-4fc5-9ae5-5c37afa80861|39=0|54=1|55=PETR4|150=2|151=0|453=0|10=086|8=FIX.4.4|9=196|35=8|34=273|49=SERVER_A|52=20230405-20:15:03.036|56=CLIENT_X|1=123|6=25|14=100|17=c30d3e6c-91d3-4057-bdf8-283f39aaf17d|37=652ede12-86d0-4b93-8f9a-ea7be7b15321|39=0|54=1|55=PETR4|150=2|151=0|453=0|10=190|8=FIX.4.4|9=196|35=8|34=274|49=SERVER_A|52=20230405-20:15:03.040|56=CLIENT_X|1=123|6=25|14=100|17=79387fd8-755a-486b-959f-6702aa23c4f8|37=0809048e-e82f-4cc7-a922-73914cf41d5a|39=0|54=1|55=PETR4|150=2|151=0|453=0|10=188|8=FIX.4.4|9=196|35=8|34=275|49=SERVER_A|52=20230405-20:15:03.043|56=CLIENT_X|1=123|6=25|14=100|17=dd2c66e3-ca5c-4b09-b24c-84a12f384014|37=f3e09c5d-3269-4f06-988a-fe6e3ee8e1e9|39=0|54=1|55=PETR4|150=2|151=0|453=0|10=201|8=FIX.4.4|9=196|35=8|34=276|49=SERVER_A|52=20230405-20:15:03.048|56=CLIENT_X|1=123|6=25|14=100|17=649a8a6d-da8c-418b-aa60-7478d1adf9f4|37=0f2f73c9-8924-4374-a325-6d71416acff3|39=0|54=1|55=PETR4|150=2|151=0|453=0|10=113|8=FIX.4.4|9=196|35=8|34=277|49=SERVER_A|52=20230405-20:15:03.050|56=CLIENT_X|1=123|6=25|14=100|17=12ea0215-bd7d-4d08-8f27-012949deaafb|37=538c2ff0-fd64-499a-b943-d267d255b918|39=0|54=1|55=PETR4|150=2|151=0|453=0|10=098|8=FIX.4.4|9=196|35=8|34=278|49=SERVER_A|52=20230405-20:15:03.053|56=CLIENT_X|1=123|6=25|14=100|17=d414dcdb-de65-4507-895d-8d0baf188b99|37=7164eea7-f57a-410e-9371-d0a60541abbb|39=0|54=1|55=PETR4|150=2|151=0|453=0|10=191|8=FIX.4.4|9=196|35=8|34=279|49=SERVER_A|52=20230405-20:15:03.057|56=CLIENT_X|1=123|6=25|14=100|17=59314dc1-8c36-4c5c-a5b4-ef3187384a3d|37=f35de379-62d5-4d91-b53d-b2e13aa04473|39=0|54=1|55=PETR4|150=2|151=0|453=0|10=047|8=FIX.4.4|9=196|35=8|34=280|49=SERVER_A|52=20230405-20:15:03.064|56=CLIENT_X|1=123|6=25|14=100|17=f8369305-e1ce-40bb-8c12-83df8b319431|37=d0f712ff-9086-48c3-ac76-5ad1a3d002b3|39=0|54=1|55=PETR4|150=2|151=0|453=0|10=027|8=FIX.4.4|9=196|35=8|34=281|49=SERVER_A|52=20230405-20:15:03.068|56=CLIENT_X|1=123|6=25|14=100|17=401040a1-8698-4095-8ad5-fee1a2103984|37=bd90a967-b057-4a20-b955-5a01edacde6b|39=0|54=1|55=PETR4|150=2|151=0|453=0|10=236|8=FIX.4.4|9=196|35=8|34=282|49=SERVER_A|52=20230405-20:15:03.073|56=CLIENT_X|1=123|6=25|14=100|17=7a525256-cc88-4772-9d38-a4913adf84f9|37=cfb8f596-282a-48c2-af6c-da1fb37ea64e|39=0|54=1|55=PETR4|150=2|151=0|453=0|10=220|8=FIX.4.4|9=196|35=8|34=283|49=SERVER_A|52=20230405-20:15:03.078|56=CLIENT_X|1=123|6=25|14=100|17=78d99298-a911-462b-9d44-cc3582486d06|37=481519fb-04db-4bd5-8749-1872c157fb34|39=0|54=1|55=PETR4|150=2|151=0|453=0|10=052|8=FIX.4.4|9=196|35=8|34=284|49=SERVER_A|52=20230405-20:15:03.084|56=CLIENT_X|1=123|6=25|14=100|17=58ffab7b-bdba-4686-9a16-3aa9ec6090cf|37=631c9f90-7bb1-4722-ba18-2ac9ed11ac99|39=0|54=1|55=PETR4|150=2|151=0|453=0|10=078|8=FIX.4.4|9=196|35=8|34=285|49=SERVER_A|52=20230405-20:15:03.088|56=CLIENT_X|1=123|6=25|14=100|17=64bcd64f-4342-4d03-a290-dd3afc614885|37=2303424a-76de-4581-85b7-ece6c0e1014f|39=0|54=1|55=PETR4|150=2|151=0|453=0|10=246|8=FIX.4.4|9=196|35=8|34=286|49=SERVER_A|52=20230405-20:15:03.094|56=CLIENT_X|1=123|6=25|14=100|17=4fc4d831-d9ae-4190-9ff3-65d5913d7d5e|37=7477aa33-69c9-4fed-97e9-1818c7dfbb51|39=0|54=1|55=PETR4|150=2|151=0|453=0|10=193|8=FIX.4.4|9=196|35=8|34=287|49=SERVER_A|52=20230405-20:15:03.096|56=CLIENT_X|1=123|6=25|14=100|17=cfe65189-9a03-4039-8bec-e5bb680b5b26|37=b6e1cd16-6fe4-4f91-95af-5817b5b0f93b|39=0|54=1|55=PETR4|150=2|151=0|453=0|10=214|8=FIX.4.4|9=196|35=8|34=288|49=SERVER_A|52=20230405-20:15:03.099|56=CLIENT_X|1=123|6=25|14=100|17=dd4dcc6d-91ba-40b2-bb04-53a3254d97ef|37=2edd2f3a-e039-48d9-b324-e5a20ec7cc0c|39=0|54=1|55=PETR4|150=2|151=0|453=0|10=159|8=FIX.4.4|9=196|35=8|34=289|49=SERVER_A|52=20230405-20:15:03.102|56=CLIENT_X|1=123|6=25|14=100|17=4158c439-de5c-4ea3-8460-e715196ec288|37=1b74f43a-f64f-4bcd-a2a8-b65f0f077e16|39=0|54=1|55=PETR4|150=2|151=0|453=0|10=104|8=FIX.4.4|9=196|35=8|34=290|49=SERVER_A|52=20230405-20:15:03.110|56=CLIENT_X|1=123|6=25|14=100|17=39705984-e3f2-484f-be1f-e78fafdd9252|37=e89d6fd5-ebd9-44df-88ff-3b19371ddfe3|39=0|54=1|55=PETR4|150=2|151=0|453=0|10=125|8=FIX.4.4|9=196|35=8|34=291|49=SERVER_A|52=20230405-20:15:03.112|56=CLIENT_X|1=123|6=25|14=100|17=878f515d-beb4-42f5-a119-2326d6712a3c|37=61444254-69b7-45d0-a1f8-d6226b3c6fdf|39=0|54=1|55=PETR4|150=2|151=0|453=0|10=198|8=FIX.4.4|9=196|35=8|34=292|49=SERVER_A|52=20230405-20:15:03.115|56=CLIENT_X|1=123|6=25|14=100|17=5158f147-a326-433b-87f4-1318d2e6d9cc|37=4865189b-48f8-43cb-9f09-10a4c86b7e28|39=0|54=1|55=PETR4|150=2|151=0|453=0|10=134|8=FIX.4.4|9=196|35=8|34=293|49=SERVER_A|52=20230405-20:15:03.118|56=CLIENT_X|1=123|6=25|14=100|17=55e75201-6a38-4661-a5ff-6634e4835312|37=8afa11d3-69a6-402d-ac15-f543f3af8297|39=0|54=1|55=PETR4|150=2|151=0|453=0|10=111|8=FIX.4.4|9=196|35=8|34=294|49=SERVER_A|52=20230405-20:15:03.125|56=CLIENT_X|1=123|6=25|14=100|17=51ea9ad9-7cea-4c01-865d-fe46c0d4914a|37=2ddd65f5-bc63-4f50-a2b9-d714f8746990|39=0|54=1|55=PETR4|150=2|151=0|453=0|10=203|8=FIX.4.4|9=196|35=8|34=295|49=SERVER_A|52=20230405-20:15:03.128|56=CLIENT_X|1=123|6=25|14=100|17=346d83f6-6d67-4f8d-a65c-068cced94b0e|37=dda7d8e6-49e6-4256-aec8-3bd901b3faff|39=0|54=1|55=PETR4|150=2|151=0|453=0|10=159|8=FIX.4.4|9=196|35=8|34=296|49=SERVER_A|52=20230405-20:15:03.130|56=CLIENT_X|1=123|6=25|14=100|17=c9c7dde3-b4c1-47c9-90a5-e37b8fcbad38|37=399e1cb7-85ed-4d10-9b4f-e34803804582|39=0|54=1|55=PETR4|150=2|151=0|453=0|10=207|8=FIX.4.4|9=196|35=8|34=297|49=SERVER_A|52=20230405-20:15:03.133|56=CLIENT_X|1=123|6=25|14=100|17=df2d80a6-d410-408b-aedf-c479381471f5|37=8b5263c8-aa74-45a2-80fd-dbbaf9838811|39=0|54=1|55=PETR4|150=2|151=0|453=0|10=145|8=FIX.4.4|9=196|35=8|34=298|49=SERVER_A|52=20230405-20:15:03.134|56=CLIENT_X|1=123|6=25|14=100|17=f2f3d136-4dac-4d25-9adc-8282c75e8b06|37=9cd72a66-13d9-4112-bc5a-bbe93465771d|39=0|54=1|55=PETR4|150=2|151=0|453=0|10=146|8=FIX.4.4|9=196|35=8|34=299|49=SERVER_A|52=20230405-20:15:03.142|56=CLIENT_X|1=123|6=25|14=100|17=80249c2d-4698-4b67-abf2-52ad4d1f09b5|37=529c4e55-a2c3-46f5-aa40-885185c95979|39=0|54=1|55=PETR4|150=2|151=0|453=0|10=185|8=FIX.4.4|9=196|35=8|34=300|49=SERVER_A|52=20230405-20:15:03.144|56=CLIENT_X|1=123|6=25|14=100|17=ca363596-93b2-4890-9e46-463a2383b53a|37=c59c1f58-4627-4e6d-bf27-b6a290e4cb52|39=0|54=1|55=PETR4|150=2|151=0|453=0|10=161|8=FIX.4.4|9=196|35=8|34=301|49=SERVER_A|52=20230405-20:15:03.147|56=CLIENT_X|1=123|6=25|14=100|17=e9627f2e-88ae-4c0a-b8e7-6974770b0203|37=798362ac-8ccc-4c94-98da-dfdb3d973d69|39=0|54=1|55=PETR4|150=2|151=0|453=0|10=175|8=FIX.4.4|9=196|35=8|34=302|49=SERVER_A|52=20230405-20:15:03.149|56=CLIENT_X|1=123|6=25|14=100|17=7eee11c1-5edd-4464-ab41-9098f9ec3748|37=b63af689-2a62-4a53-8c9a-b8785da04f61|39=0|54=1|55=PETR4|150=2|151=0|453=0|10=111|8=FIX.4.4|9=196|35=8|34=303|49=SERVER_A|52=20230405-20:15:03.151|56=CLIENT_X|1=123|6=25|14=100|17=01fe8272-41b1-487e-ad8c-7d068258e1c4|37=61e12cf3-bf35-4a3f-a87d-7622c7faec02|39=0|54=1|55=PETR4|150=2|151=0|453=0|10=125|8=FIX.4.4|9=196|35=8|34=304|49=SERVER_A|52=20230405-20:15:03.159|56=CLIENT_X|1=123|6=25|14=100|17=305f5cfa-6ad5-40b4-adad-acf1981a94fe|37=eaca9827-6b48-4f6f-8e7c-da21addec876|39=0|54=1|55=PETR4|150=2|151=0|453=0|10=067|8=FIX.4.4|9=196|35=8|34=305|49=SERVER_A|52=20230405-20:15:03.162|56=CLIENT_X|1=123|6=25|14=100|17=f2e264cf-2193-4fb8-80c8-4da6adb8bfa8|37=168627c1-5145-4637-9f22-2b5776ff1a0a|39=0|54=1|55=PETR4|150=2|151=0|453=0|10=047|8=FIX.4.4|9=196|35=8|34=306|49=SERVER_A|52=20230405-20:15:03.163|56=CLIENT_X|1=123|6=25|14=100|17=2d753f07-70aa-4418-942b-0ca928265eb8|37=5178b5be-22ba-4c80-89c9-44c927e324b3|39=0|54=1|55=PETR4|150=2|151=0|453=0|10=156|8=FIX.4.4|9=196|35=8|34=307|49=SERVER_A|52=20230405-20:15:03.166|56=CLIENT_X|1=123|6=25|14=100|17=e1acc56b-9dfb-4c9e-82ce-0018097bc0fa|37=f5220950-270e-4244-badd-c14ad3294f1e|39=0|54=1|55=PETR4|150=2|151=0|453=0|10=004|8=FIX.4.4|9=196|35=8|34=308|49=SERVER_A|52=20230405-20:15:03.173|56=CLIENT_X|1=123|6=25|14=100|17=4be8dda7-6abf-4341-8c65-f712b337705b|37=b30bbfc4-bc87-4038-813d-c8ecc33209a1|39=0|54=1|55=PETR4|150=2|151=0|453=0|10=172|8=FIX.4.4|9=196|35=8|34=309|49=SERVER_A|52=20230405-20:15:03.176|56=CLIENT_X|1=123|6=25|14=100|17=b4046f05-3d72-4735-8535-1b719fec857a|37=f2fcf58c-096e-46a3-b842-eb968b4af776|39=0|54=1|55=PETR4|150=2|151=0|453=0|10=031|8=FIX.4.4|9=196|35=8|34=310|49=SERVER_A|52=20230405-20:15:03.178|56=CLIENT_X|1=123|6=25|14=100|17=1c1cbfe1-c2e0-4d0a-a1bc-14166591e8fe|37=6b5b9926-ac56-484d-af96-667c4246fe33|39=0|54=1|55=PETR4|150=2|151=0|453=0|10=185|8=FIX.4.4|9=196|35=8|34=311|49=SERVER_A|52=20230405-20:15:03.179|56=CLIENT_X|1=123|6=25|14=100|17=9f52f4ce-0045-45a6-b2d8-aaef8caec5e0|37=f9727b95-4cfa-469b-a337-359328304693|39=0|54=1|55=PETR4|150=2|151=0|453=0|10=108|8=FIX.4.4|9=196|35=8|34=312|49=SERVER_A|52=20230405-20:15:03.181|56=CLIENT_X|1=123|6=25|14=100|17=6c1a18a6-da0a-4c65-a111-de8da0d29006|37=0d35be44-4ad7-4913-89b8-fb08c33a60c7|39=0|54=1|55=PETR4|150=2|151=0|453=0|10=102|8=FIX.4.4|9=196|35=8|34=313|49=SERVER_A|52=20230405-20:15:03.190|56=CLIENT_X|1=123|6=25|14=100|17=ec2a3172-4954-4159-927b-60b7f1d40692|37=65d04033-a692-412b-aaf5-63fe738a9567|39=0|54=1|55=PETR4|150=2|151=0|453=0|10=011|8=FIX.4.4|9=196|35=8|34=314|49=SERVER_A|52=20230405-20:15:03.192|56=CLIENT_X|1=123|6=25|14=100|17=b41d2efe-ee40-4fd9-8c7c-c8ec2085ed63|37=6cce4d0c-cd85-4df6-9c90-4830edc1258f|39=0|54=1|55=PETR4|150=2|151=0|453=0|10=188|8=FIX.4.4|9=196|35=8|34=315|49=SERVER_A|52=20230405-20:15:03.194|56=CLIENT_X|1=123|6=25|14=100|17=14dbfede-1a0a-4be5-9038-6d15bc61caa0|37=51332f48-f3d5-4e21-9759-d12b2850f373|39=0|54=1|55=PETR4|150=2|151=0|453=0|10=072|8=FIX.4.4|9=196|35=8|34=316|49=SERVER_A|52=20230405-20:15:03.196|56=CLIENT_X|1=123|6=25|14=100|17=9519b2a7-fa46-4963-98e8-dbfff310c3f6|37=b435f635-2300-40e7-a032-831c1551aa54|39=0|54=1|55=PETR4|150=2|151=0|453=0|10=151|8=FIX.4.4|9=196|35=8|34=317|49=SERVER_A|52=20230405-20:15:03.198|56=CLIENT_X|1=123|6=25|14=100|17=81860d9f-bf78-4465-90d5-11b66621ec72|37=c7915958-504b-4f3b-ac44-16423d07337a|39=0|54=1|55=PETR4|150=2|151=0|453=0|10=030|8=FIX.4.4|9=196|35=8|34=318|49=SERVER_A|52=20230405-20:15:03.205|56=CLIENT_X|1=123|6=25|14=100|17=38326a7e-4dcd-42f0-b386-1106165cdbf1|37=f49992e3-f681-4135-abfb-ac4361bb1fc9|39=0|54=1|55=PETR4|150=2|151=0|453=0|10=128|8=FIX.4.4|9=196|35=8|34=319|49=SERVER_A|52=20230405-20:15:03.209|56=CLIENT_X|1=123|6=25|14=100|17=f1edcbaa-5bf9-48fe-b223-91b6efc6ce24|37=536947f5-a274-4d65-b2bf-5c40c12d9ff1|39=0|54=1|55=PETR4|150=2|151=0|453=0|10=130|8=FIX.4.4|9=196|35=8|34=320|49=SERVER_A|52=20230405-20:15:03.210|56=CLIENT_X|1=123|6=25|14=100|17=acbf60b1-bea0-4190-9347-d286cbfcbad0|37=d4d69e33-af8a-4527-83b1-964d9b34cdec|39=0|54=1|55=PETR4|150=2|151=0|453=0|10=100|8=FIX.4.4|9=196|35=8|34=321|49=SERVER_A|52=20230405-20:15:03.213|56=CLIENT_X|1=123|6=25|14=100|17=e5388819-a0b4-460e-ace5-6711ec1a7c93|37=5d79895e-f989-4439-b02f-ed4f42db776e|39=0|54=1|55=PETR4|150=2|151=0|453=0|10=075|8=FIX.4.4|9=196|35=8|34=322|49=SERVER_A|52=20230405-20:15:03.218|56=CLIENT_X|1=123|6=25|14=100|17=9c1367cb-e3e4-4b43-aebe-84a3ed050d10|37=b62654e0-0099-4def-b337-4ea0373dfe11|39=0|54=1|55=PETR4|150=2|151=0|453=0|10=159|8=FIX.4.4|9=196|35=8|34=323|49=SERVER_A|52=20230405-20:15:03.223|56=CLIENT_X|1=123|6=25|14=100|17=1f2c4866-2c7b-4aac-8bfb-0fee66666521|37=51e1fbe2-e8e2-4d53-8028-ba3822bf3ab9|39=0|54=1|55=PETR4|150=2|151=0|453=0|10=223|8=FIX.4.4|9=196|35=8|34=324|49=SERVER_A|52=20230405-20:15:03.225|56=CLIENT_X|1=123|6=25|14=100|17=ee7ee6b5-8df5-4c6a-9036-a6b16ffc48e2|37=5ec4ce6b-26b6-42ec-acf5-6d4487a1d916|39=0|54=1|55=PETR4|150=2|151=0|453=0|10=139|8=FIX.4.4|9=196|35=8|34=325|49=SERVER_A|52=20230405-20:15:03.227|56=CLIENT_X|1=123|6=25|14=100|17=182fefd4-1c05-4c7a-9d9f-71563497d5c4|37=9e6ef491-5b39-4e4f-8a30-127180932e5a|39=0|54=1|55=PETR4|150=2|151=0|453=0|10=229|8=FIX.4.4|9=196|35=8|34=326|49=SERVER_A|52=20230405-20:15:03.232|56=CLIENT_X|1=123|6=25|14=100|17=07499c11-82ea-4208-980a-4081aaee3def|37=e03ab7af-e054-4e4d-a833-6887a4c38249|39=0|54=1|55=PETR4|150=2|151=0|453=0|10=040|8=FIX.4.4|9=196|35=8|34=327|49=SERVER_A|52=20230405-20:15:03.236|56=CLIENT_X|1=123|6=25|14=100|17=c8593985-0d4d-4bea-9613-bf493ac91374|37=38ab415a-958a-4fd9-9be2-3b82f76fc947|39=0|54=1|55=PETR4|150=2|151=0|453=0|10=083|8=FIX.4.4|9=196|35=8|34=328|49=SERVER_A|52=20230405-20:15:03.238|56=CLIENT_X|1=123|6=25|14=100|17=0d941e17-c30b-4ff3-9217-ceff7901b282|37=58154413-3ce4-4728-b6c3-f6747bea71df|39=0|54=1|55=PETR4|150=2|151=0|453=0|10=006|8=FIX.4.4|9=196|35=8|34=329|49=SERVER_A|52=20230405-20:15:03.240|56=CLIENT_X|1=123|6=25|14=100|17=abcd57f9-a65d-4872-9cfc-6b2b8016f88c|37=135e71f7-052a-4145-a790-8ff0fe34218a|39=0|54=1|55=PETR4|150=2|151=0|453=0|10=102|8=FIX.4.4|9=196|35=8|34=330|49=SERVER_A|52=20230405-20:15:03.243|56=CLIENT_X|1=123|6=25|14=100|17=aa73c096-7ba0-47f2-a84e-7f92f13053e2|37=c58171ff-fcd3-4ba3-918b-630cdc7e7610|39=0|54=1|55=PETR4|150=2|151=0|453=0|10=128|8=FIX.4.4|9=196|35=8|34=331|49=SERVER_A|52=20230405-20:15:03.248|56=CLIENT_X|1=123|6=25|14=100|17=ef9c177e-31c2-41b5-acd8-2bd6c555f649|37=cab5b048-1766-40ba-b3eb-e6186453fdbf|39=0|54=1|55=PETR4|150=2|151=0|453=0|10=025|8=FIX.4.4|9=196|35=8|34=332|49=SERVER_A|52=20230405-20:15:03.251|56=CLIENT_X|1=123|6=25|14=100|17=da0c21a6-5905-4773-a9a5-e0d5daa5897a|37=2c4aa057-818e-447f-8215-28c4ecf8029e|39=0|54=1|55=PETR4|150=2|151=0|453=0|10=040|8=FIX.4.4|9=196|35=8|34=333|49=SERVER_A|52=20230405-20:15:03.252|56=CLIENT_X|1=123|6=25|14=100|17=4b221fff-cb0c-44a2-a060-db37d05fbbbc|37=75c7bf51-f119-4012-9bf6-a318bd0a2bf2|39=0|54=1|55=PETR4|150=2|151=0|453=0|10=071|8=FIX.4.4|9=196|35=8|34=334|49=SERVER_A|52=20230405-20:15:03.256|56=CLIENT_X|1=123|6=25|14=100|17=b53ee325-11db-441f-a5e0-9311944d593a|37=703033e0-a80e-49f4-9939-403092935ded|39=0|54=1|55=PETR4|150=2|151=0|453=0|10=055|8=FIX.4.4|9=196|35=8|34=335|49=SERVER_A|52=20230405-20:15:03.258|56=CLIENT_X|1=123|6=25|14=100|17=8dc260e9-4784-44f4-831a-f26029e12468|37=8bc2f1fd-86f3-47fa-983d-a5eddd43d460|39=0|54=1|55=PETR4|150=2|151=0|453=0|10=072|8=FIX.4.4|9=196|35=8|34=336|49=SERVER_A|52=20230405-20:15:03.264|56=CLIENT_X|1=123|6=25|14=100|17=b0195dbd-b268-4e53-bfc4-e4cc1cc0d581|37=088ca17b-c8c1-4895-b008-9c6de8bb6995|39=0|54=1|55=PETR4|150=2|151=0|453=0|10=245|8=FIX.4.4|9=196|35=8|34=337|49=SERVER_A|52=20230405-20:15:03.267|56=CLIENT_X|1=123|6=25|14=100|17=e47ee822-f17d-4dbd-b6f5-76a0e828d5f9|37=b332df00-fa43-421c-95bb-ad4fda12a1de|39=0|54=1|55=PETR4|150=2|151=0|453=0|10=165|8=FIX.4.4|9=196|35=8|34=338|49=SERVER_A|52=20230405-20:15:03.268|56=CLIENT_X|1=123|6=25|14=100|17=d4a00997-9ee2-4f78-9708-652807e69875|37=760f0080-7194-40c3-aa26-cf1bbb8bc817|39=0|54=1|55=PETR4|150=2|151=0|453=0|10=094|8=FIX.4.4|9=196|35=8|34=339|49=SERVER_A|52=20230405-20:15:03.271|56=CLIENT_X|1=123|6=25|14=100|17=96302652-bdb1-4f6b-ac7b-2ed281eaac6d|37=9889ddf6-3ce9-453f-8c2c-a03c7d828c38|39=0|54=1|55=PETR4|150=2|151=0|453=0|10=045|8=FIX.4.4|9=196|35=8|34=340|49=SERVER_A|52=20230405-20:15:03.279|56=CLIENT_X|1=123|6=25|14=100|17=a418ee34-cb68-4ff2-8230-e86105a5d7ff|37=069f227c-dc78-40e2-8136-f654fc5e9a52|39=0|54=1|55=PETR4|150=2|151=0|453=0|10=066|8=FIX.4.4|9=196|35=8|34=341|49=SERVER_A|52=20230405-20:15:03.284|56=CLIENT_X|1=123|6=25|14=100|17=71e517cc-4edd-4868-ab5c-5e5bac795bdf|37=851272b6-32c6-4907-b130-1da5993b68c7|39=0|54=1|55=PETR4|150=2|151=0|453=0|10=104|8=FIX.4.4|9=196|35=8|34=342|49=SERVER_A|52=20230405-20:15:03.292|56=CLIENT_X|1=123|6=25|14=100|17=169b877b-7212-42b9-8333-664aa80e7005|37=a8cb48e3-fcd1-470e-87f7-0c354b94ebad|39=0|54=1|55=PETR4|150=2|151=0|453=0|10=002|8=FIX.4.4|9=196|35=8|34=343|49=SERVER_A|52=20230405-20:15:03.297|56=CLIENT_X|1=123|6=25|14=100|17=a09e5f6e-076d-45f5-8941-9427576740d6|37=f0164a92-cacd-4e49-9c81-d85fcec8b85d|39=0|54=1|55=PETR4|150=2|151=0|453=0|10=092|8=FIX.4.4|9=196|35=8|34=344|49=SERVER_A|52=20230405-20:15:03.300|56=CLIENT_X|1=123|6=25|14=100|17=2a72b207-b965-49a8-ade4-ca631eff2720|37=8bbcde9d-81c3-4e03-a68a-6da576370cc0|39=0|54=1|55=PETR4|150=2|151=0|453=0|10=217|8=FIX.4.4|9=196|35=8|34=345|49=SERVER_A|52=20230405-20:15:03.308|56=CLIENT_X|1=123|6=25|14=100|17=be6a3258-9a34-473e-9900-590abfb74fe9|37=5b50a2a9-ddb0-4dc4-8ae9-92a3161c5cb7|39=0|54=1|55=PETR4|150=2|151=0|453=0|10=188|8=FIX.4.4|9=196|35=8|34=346|49=SERVER_A|52=20230405-20:15:03.311|56=CLIENT_X|1=123|6=25|14=100|17=f4522256-e110-41f8-bcf4-c2e7373fccd8|37=c0dd6521-e980-41d9-9a08-c545041ba9a7|39=0|54=1|55=PETR4|150=2|151=0|453=0|10=033|8=FIX.4.4|9=196|35=8|34=347|49=SERVER_A|52=20230405-20:15:03.314|56=CLIENT_X|1=123|6=25|14=100|17=9559d67f-8ded-4432-b419-7a16158477e3|37=e60d234f-b6d5-4b6e-948b-49085e45b6e5|39=0|54=1|55=PETR4|150=2|151=0|453=0|10=198|8=FIX.4.4|9=196|35=8|34=348|49=SERVER_A|52=20230405-20:15:03.316|56=CLIENT_X|1=123|6=25|14=100|17=c68d7666-9a95-4ed9-be86-9a957ed2bd72|37=d46b31fa-ce76-49a2-8aaf-9276e492c0e8|39=0|54=1|55=PETR4|150=2|151=0|453=0|10=242|8=FIX.4.4|9=196|35=8|34=349|49=SERVER_A|52=20230405-20:15:03.320|56=CLIENT_X|1=123|6=25|14=100|17=c86502a9-8b54-4554-8144-173d6cf89f79|37=7ff8cc20-5dd8-41fa-bf96-31bb3446e41d|39=0|54=1|55=PETR4|150=2|151=0|453=0|10=023|8=FIX.4.4|9=196|35=8|34=350|49=SERVER_A|52=20230405-20:15:03.330|56=CLIENT_X|1=123|6=25|14=100|17=ee3ebea4-9ab5-4832-93be-0ce6aaadff31|37=6a7bae50-f345-4e8a-a83c-0a16ebc88802|39=0|54=1|55=PETR4|150=2|151=0|453=0|10=195|8=FIX.4.4|9=196|35=8|34=351|49=SERVER_A|52=20230405-20:15:03.333|56=CLIENT_X|1=123|6=25|14=100|17=a337b457-9810-48ec-8860-0933d9e05911|37=f475bf32-3b4b-4e9f-a4ea-88447fd09e0d|39=0|54=1|55=PETR4|150=2|151=0|453=0|10=222|8=FIX.4.4|9=196|35=8|34=352|49=SERVER_A|52=20230405-20:15:03.335|56=CLIENT_X|1=123|6=25|14=100|17=b052c008-9926-4e27-9233-e1eb5429c724|37=9dc6fc86-cdd8-4a33-acec-241a0b22ebdd|39=0|54=1|55=PETR4|150=2|151=0|453=0|10=174|8=FIX.4.4|9=196|35=8|34=353|49=SERVER_A|52=20230405-20:15:03.340|56=CLIENT_X|1=123|6=25|14=100|17=f28462e2-9624-42a6-a2fb-63e79aa1ed28|37=bc52fe2e-d7b9-4f0e-b49b-b0c18cf631ec|39=0|54=1|55=PETR4|150=2|151=0|453=0|10=070|8=FIX.4.4|9=196|35=8|34=354|49=SERVER_A|52=20230405-20:15:03.343|56=CLIENT_X|1=123|6=25|14=100|17=d10b8e8b-4782-44e6-950c-829cecdeab18|37=92d33cdc-2ee4-46e3-b212-21184854528a|39=0|54=1|55=PETR4|150=2|151=0|453=0|10=044|8=FIX.4.4|9=196|35=8|34=355|49=SERVER_A|52=20230405-20:15:03.346|56=CLIENT_X|1=123|6=25|14=100|17=e9903828-5ec0-4126-b4db-4fdb41be3a56|37=1ee60528-b5a2-433b-88ca-a8282c2912e7|39=0|54=1|55=PETR4|150=2|151=0|453=0|10=038|8=FIX.4.4|9=196|35=8|34=356|49=SERVER_A|52=20230405-20:15:03.349|56=CLIENT_X|1=123|6=25|14=100|17=1800f9af-be7c-427b-8751-f30d65a0409b|37=2e2d1c81-f7ba-4d44-8e88-a7e7ff7988e7|39=0|54=1|55=PETR4|150=2|151=0|453=0|10=176|8=FIX.4.4|9=196|35=8|34=357|49=SERVER_A|52=20230405-20:15:03.350|56=CLIENT_X|1=123|6=25|14=100|17=c0228fa2-170d-44dc-94d5-582854e3d80e|37=1c11c531-85ca-446e-a884-95821e88da33|39=0|54=1|55=PETR4|150=2|151=0|453=0|10=160|8=FIX.4.4|9=196|35=8|34=358|49=SERVER_A|52=20230405-20:15:03.359|56=CLIENT_X|1=123|6=25|14=100|17=634c7875-35f7-4db5-b4d3-1ad88e76ca2e|37=b8d58f58-10d1-4b5c-b0f5-53b1d885cb8b|39=0|54=1|55=PETR4|150=2|151=0|453=0|10=213|8=FIX.4.4|9=196|35=8|34=359|49=SERVER_A|52=20230405-20:15:03.362|56=CLIENT_X|1=123|6=25|14=100|17=7528d410-6680-4402-abf5-4d9cb4aeb56c|37=e8500cd9-28d0-4201-8fdf-aaae2d4ef571|39=0|54=1|55=PETR4|150=2|151=0|453=0|10=179|8=FIX.4.4|9=196|35=8|34=360|49=SERVER_A|52=20230405-20:15:03.365|56=CLIENT_X|1=123|6=25|14=100|17=ce38c1c4-e6c6-41c9-8008-83dde2634b1f|37=ff278309-455d-4d6b-90ad-76377a2208b1|39=0|54=1|55=PETR4|150=2|151=0|453=0|10=004|8=FIX.4.4|9=196|35=8|34=361|49=SERVER_A|52=20230405-20:15:03.370|56=CLIENT_X|1=123|6=25|14=100|17=9ae3c06d-301f-4b7c-bbcc-287339a81eb8|37=7e21c277-29f3-469c-8eb3-1defaa27ad2f|39=0|54=1|55=PETR4|150=2|151=0|453=0|10=073|8=FIX.4.4|9=196|35=8|34=362|49=SERVER_A|52=20230405-20:15:03.378|56=CLIENT_X|1=123|6=25|14=100|17=fdcab381-08d9-4037-907c-0e290b5aa184|37=2def0047-9b1c-41fb-bf7e-3f2e2b330b23|39=0|54=1|55=PETR4|150=2|151=0|453=0|10=165|8=FIX.4.4|9=196|35=8|34=363|49=SERVER_A|52=20230405-20:15:03.380|56=CLIENT_X|1=123|6=25|14=100|17=276c3502-11d2-41f1-84dc-abc1f0e042a4|37=620eaef4-cda5-4269-8511-d9bbced972c3|39=0|54=1|55=PETR4|150=2|151=0|453=0|10=157|8=FIX.4.4|9=196|35=8|34=364|49=SERVER_A|52=20230405-20:15:03.384|56=CLIENT_X|1=123|6=25|14=100|17=7094b351-b4fb-4d02-9bb6-6dcca347a90c|37=2393f38b-d4fa-42e1-985f-f29414b8cdd4|39=0|54=1|55=PETR4|150=2|151=0|453=0|10=195|8=FIX.4.4|9=196|35=8|34=365|49=SERVER_A|52=20230405-20:15:03.387|56=CLIENT_X|1=123|6=25|14=100|17=0c6acc2d-52be-4e27-8935-f11a20943296|37=3f164881-81bc-4243-8091-a820b9614f6e|39=0|54=1|55=PETR4|150=2|151=0|453=0|10=066|8=FIX.4.4|9=196|35=8|34=366|49=SERVER_A|52=20230405-20:15:03.391|56=CLIENT_X|1=123|6=25|14=100|17=67eb485e-ea7b-4cc6-92c8-5aa8c85d087a|37=61c67f83-2acd-45de-8351-a39e3285a254|39=0|54=1|55=PETR4|150=2|151=0|453=0|10=166|8=FIX.4.4|9=196|35=8|34=367|49=SERVER_A|52=20230405-20:15:03.393|56=CLIENT_X|1=123|6=25|14=100|17=62ab820e-cb1c-483d-a7cd-dec0c62cf42f|37=d652e292-b882-4efd-8180-5ae50dc23340|39=0|54=1|55=PETR4|150=2|151=0|453=0|10=017|8=FIX.4.4|9=196|35=8|34=368|49=SERVER_A|52=20230405-20:15:03.395|56=CLIENT_X|1=123|6=25|14=100|17=684a3794-b34a-4f96-8c93-ee44b330c0a8|37=8abbbf23-715f-4aa1-9bdf-74fafceb8894|39=0|54=1|55=PETR4|150=2|151=0|453=0|10=055|8=FIX.4.4|9=196|35=8|34=369|49=SERVER_A|52=20230405-20:15:03.402|56=CLIENT_X|1=123|6=25|14=100|17=90ccba43-4167-40a7-b8ef-6dee3f7a2e08|37=913b6d16-58ec-45de-8960-c92dce6976c4|39=0|54=1|55=PETR4|150=2|151=0|453=0|10=214|8=FIX.4.4|9=196|35=8|34=370|49=SERVER_A|52=20230405-20:15:03.406|56=CLIENT_X|1=123|6=25|14=100|17=9028a3cc-0ea4-418d-8bcf-66b21f45a8e8|37=52c5beb5-4155-46b4-bf7b-fe089eb4befb|39=0|54=1|55=PETR4|150=2|151=0|453=0|10=123|8=FIX.4.4|9=196|35=8|34=371|49=SERVER_A|52=20230405-20:15:03.409|56=CLIENT_X|1=123|6=25|14=100|17=71ad2321-0632-46d6-b1a8-1c611226b8bd|37=7f8fa767-de27-4839-bf53-ac9fa099b605|39=0|54=1|55=PETR4|150=2|151=0|453=0|10=254|8=FIX.4.4|9=196|35=8|34=372|49=SERVER_A|52=20230405-20:15:03.412|56=CLIENT_X|1=123|6=25|14=100|17=0ef90324-f307-4f33-b793-5df703ec5a00|37=dbde12af-c009-4401-b8bb-e20d220a86a3|39=0|54=1|55=PETR4|150=2|151=0|453=0|10=093|8=FIX.4.4|9=196|35=8|34=373|49=SERVER_A|52=20230405-20:15:03.416|56=CLIENT_X|1=123|6=25|14=100|17=e202f02d-749f-460a-af4e-cca8f0c78d5b|37=20996f6a-0667-439f-815d-8be6db54fa77|39=0|54=1|55=PETR4|150=2|151=0|453=0|10=210|8=FIX.4.4|9=196|35=8|34=374|49=SERVER_A|52=20230405-20:15:03.419|56=CLIENT_X|1=123|6=25|14=100|17=df6e8e49-d75a-43c3-a325-a47fa83a1aeb|37=8345141c-44e3-4b8f-b249-eb66fc148112|39=0|54=1|55=PETR4|150=2|151=0|453=0|10=142|8=FIX.4.4|9=196|35=8|34=375|49=SERVER_A|52=20230405-20:15:03.421|56=CLIENT_X|1=123|6=25|14=100|17=c617be55-5c68-4faf-a78c-c8cfca615bcc|37=80e3c621-86e0-471a-9e3a-17941e7cfc7a|39=0|54=1|55=PETR4|150=2|151=0|453=0|10=085|8=FIX.4.4|9=196|35=8|34=376|49=SERVER_A|52=20230405-20:15:03.424|56=CLIENT_X|1=123|6=25|14=100|17=0d6dc7b4-3b9f-49ed-aef2-e49985338843|37=d543a276-9214-4a85-bd34-db1dfbd5cb4b|39=0|54=1|55=PETR4|150=2|151=0|453=0|10=254|8=FIX.4.4|9=196|35=8|34=377|49=SERVER_A|52=20230405-20:15:03.426|56=CLIENT_X|1=123|6=25|14=100|17=c479211f-55e0-4aeb-9b4d-e12dcf0b5738|37=aa4baf80-e2b8-4d7f-a0ae-c6169505e7e7|39=0|54=1|55=PETR4|150=2|151=0|453=0|10=076|8=FIX.4.4|9=196|35=8|34=378|49=SERVER_A|52=20230405-20:15:03.433|56=CLIENT_X|1=123|6=25|14=100|17=761633e4-82b1-4ec1-9106-dbb9ca13b7e5|37=191d75f7-6973-4a6a-ae3f-366ecc9c74ab|39=0|54=1|55=PETR4|150=2|151=0|453=0|10=152|8=FIX.4.4|9=196|35=8|34=379|49=SERVER_A|52=20230405-20:15:03.435|56=CLIENT_X|1=123|6=25|14=100|17=5bc0d509-807f-40fb-9fed-225a119a944b|37=35c84752-ee2b-4c59-ba07-1e2bec637e15|39=0|54=1|55=PETR4|150=2|151=0|453=0|10=143|8=FIX.4.4|9=196|35=8|34=380|49=SERVER_A|52=20230405-20:15:03.439|56=CLIENT_X|1=123|6=25|14=100|17=53d0cd2c-794c-4763-80ae-8437bf224635|37=6b415a00-0c9b-4a84-a451-bc7fd38e9f24|39=0|54=1|55=PETR4|150=2|151=0|453=0|10=251|8=FIX.4.4|9=196|35=8|34=381|49=SERVER_A|52=20230405-20:15:03.441|56=CLIENT_X|1=123|6=25|14=100|17=9be7ec60-3580-4c82-82ae-7f096685c828|37=c34c9fcc-5d78-4384-9a6b-7211f5890768|39=0|54=1|55=PETR4|150=2|151=0|453=0|10=157|8=FIX.4.4|9=196|35=8|34=382|49=SERVER_A|52=20230405-20:15:03.446|56=CLIENT_X|1=123|6=25|14=100|17=f7ca86b5-ce45-4d5b-89f1-cad46d93fda8|37=4a44e3ee-1e4a-4fcf-9ef9-6a55515453dc|39=0|54=1|55=PETR4|150=2|151=0|453=0|10=202|8=FIX.4.4|9=196|35=8|34=383|49=SERVER_A|52=20230405-20:15:03.448|56=CLIENT_X|1=123|6=25|14=100|17=a206a22c-1c47-4762-96a0-9f78e827a613|37=5348d16c-6243-48a3-8117-128c4c4df256|39=0|54=1|55=PETR4|150=2|151=0|453=0|10=229|8=FIX.4.4|9=196|35=8|34=384|49=SERVER_A|52=20230405-20:15:03.451|56=CLIENT_X|1=123|6=25|14=100|17=76226395-f6d5-45e7-85f3-2d1262c39c8a|37=fd7e0615-4fc0-477e-80ff-be2e99bfe3e1|39=0|54=1|55=PETR4|150=2|151=0|453=0|10=128|8=FIX.4.4|9=196|35=8|34=385|49=SERVER_A|52=20230405-20:15:03.453|56=CLIENT_X|1=123|6=25|14=100|17=fe7e692c-5f1b-4033-96cd-41d57a1845ba|37=23744b47-527b-4435-8c78-7a772a921979|39=0|54=1|55=PETR4|150=2|151=0|453=0|10=092|8=FIX.4.4|9=196|35=8|34=386|49=SERVER_A|52=20230405-20:15:03.456|56=CLIENT_X|1=123|6=25|14=100|17=1c6b4577-ba06-43c4-990e-f877faad2635|37=a2d964f7-aa15-4f30-b2c0-9b11d7b164fe|39=0|54=1|55=PETR4|150=2|151=0|453=0|10=143|8=FIX.4.4|9=196|35=8|34=387|49=SERVER_A|52=20230405-20:15:03.463|56=CLIENT_X|1=123|6=25|14=100|17=44540ac3-b303-4f6b-a517-f7d6fa0ae8a6|37=ee614357-3377-4475-bb08-bcbf62ae4d12|39=0|54=1|55=PETR4|150=2|151=0|453=0|10=131|8=FIX.4.4|9=196|35=8|34=388|49=SERVER_A|52=20230405-20:15:03.466|56=CLIENT_X|1=123|6=25|14=100|17=5f1d63e0-4b7e-4d97-aeb8-8bf19b2110ce|37=db2d0419-6422-4160-abf9-f1a05e7e064a|39=0|54=1|55=PETR4|150=2|151=0|453=0|10=180|8=FIX.4.4|9=196|35=8|34=389|49=SERVER_A|52=20230405-20:15:03.468|56=CLIENT_X|1=123|6=25|14=100|17=8f646be0-06bc-4960-bfb9-9e1f64606277|37=bf157163-e42f-4e88-aec9-7fb2f94392b7|39=0|54=1|55=PETR4|150=2|151=0|453=0|10=096|8=FIX.4.4|9=196|35=8|34=390|49=SERVER_A|52=20230405-20:15:03.470|56=CLIENT_X|1=123|6=25|14=100|17=d2464683-6f0c-4803-a0ab-74d9dd3536cc|37=ed3edb45-da91-4a02-ad5d-d13e888f1cb7|39=0|54=1|55=PETR4|150=2|151=0|453=0|10=020|8=FIX.4.4|9=196|35=8|34=391|49=SERVER_A|52=20230405-20:15:03.474|56=CLIENT_X|1=123|6=25|14=100|17=31a0f788-f04e-4bb0-8a05-cfb084f44743|37=246abaf0-de95-44a9-a88c-ae536b019623|39=0|54=1|55=PETR4|150=2|151=0|453=0|10=087|8=FIX.4.4|9=196|35=8|34=392|49=SERVER_A|52=20230405-20:15:03.479|56=CLIENT_X|1=123|6=25|14=100|17=e7d37f38-20e1-4b15-afb8-674de32b083b|37=4fe0e65a-fd10-4090-8216-3388257e6122|39=0|54=1|55=PETR4|150=2|151=0|453=0|10=160|8=FIX.4.4|9=196|35=8|34=393|49=SERVER_A|52=20230405-20:15:03.483|56=CLIENT_X|1=123|6=25|14=100|17=6e1f9d32-7567-46f5-a9f4-e9ee10ab256c|37=60b81b3a-e1a0-4feb-8595-1cba40afd29d|39=0|54=1|55=PETR4|150=2|151=0|453=0|10=034|8=FIX.4.4|9=196|35=8|34=394|49=SERVER_A|52=20230405-20:15:03.485|56=CLIENT_X|1=123|6=25|14=100|17=dadc1b64-6bff-4d02-aeb9-cc6451a6d3f4|37=455af1c8-4e83-47e3-9a1b-0f47598ed20d|39=0|54=1|55=PETR4|150=2|151=0|453=0|10=085|8=FIX.4.4|9=196|35=8|34=395|49=SERVER_A|52=20230405-20:15:03.489|56=CLIENT_X|1=123|6=25|14=100|17=011a5bbd-e98d-4a37-80c2-e345acd2e475|37=9aa35a25-ea32-4179-b2f3-5ce072d27542|39=0|54=1|55=PETR4|150=2|151=0|453=0|10=085|8=FIX.4.4|9=196|35=8|34=396|49=SERVER_A|52=20230405-20:15:03.495|56=CLIENT_X|1=123|6=25|14=100|17=101d5162-c987-42f3-bf46-d92a2d3ea3dc|37=d8fbb461-8b06-4bbc-a5bc-85eaf665db5a|39=0|54=1|55=PETR4|150=2|151=0|453=0|10=125|8=FIX.4.4|9=196|35=8|34=397|49=SERVER_A|52=20230405-20:15:03.500|56=CLIENT_X|1=123|6=25|14=100|17=67febcc5-0ad0-48fd-b4fa-2a554c4c68b3|37=7ca312e9-e32b-4bdb-9bda-3eb7248de90a|39=0|54=1|55=PETR4|150=2|151=0|453=0|10=255|8=FIX.4.4|9=196|35=8|34=398|49=SERVER_A|52=20230405-20:15:03.505|56=CLIENT_X|1=123|6=25|14=100|17=0e531a5d-09c6-44a4-84a0-2dc878392c34|37=56a26f09-39ac-4b96-b360-c7d4616bab91|39=0|54=1|55=PETR4|150=2|151=0|453=0|10=206|8=FIX.4.4|9=196|35=8|34=399|49=SERVER_A|52=20230405-20:15:03.512|56=CLIENT_X|1=123|6=25|14=100|17=ce9e3b1a-f653-491e-ae95-952f33a2bb9e|37=7f8629dc-b64c-40c8-8d92-2c710a5d285a|39=0|54=1|55=PETR4|150=2|151=0|453=0|10=210|8=FIX.4.4|9=196|35=8|34=400|49=SERVER_A|52=20230405-20:15:03.515|56=CLIENT_X|1=123|6=25|14=100|17=900ea1ca-f803-4021-b141-3a39e71b8cf5|37=5d773b2e-a381-4f28-b8dd-2095da2ece79|39=0|54=1|55=PETR4|150=2|151=0|453=0|10=117|8=FIX.4.4|9=196|35=8|34=401|49=SERVER_A|52=20230405-20:15:03.520|56=CLIENT_X|1=123|6=25|14=100|17=19196ff3-0305-4f3e-89f0-643e85b05151|37=d40e31f0-95f2-4840-8840-23fb1c26721f|39=0|54=1|55=PETR4|150=2|151=0|453=0|10=208|8=FIX.4.4|9=196|35=8|34=402|49=SERVER_A|52=20230405-20:15:03.527|56=CLIENT_X|1=123|6=25|14=100|17=8b366f67-39e1-4819-837e-7fd23de07123|37=987fe6ab-39ca-4e16-933e-3efb47ff0a48|39=0|54=1|55=PETR4|150=2|151=0|453=0|10=082|8=FIX.4.4|9=196|35=8|34=403|49=SERVER_A|52=20230405-20:15:03.530|56=CLIENT_X|1=123|6=25|14=100|17=d8f13b24-34e3-4166-843f-af98de83cd5b|37=6a50c218-1a5f-4db6-acc7-4c07536a1399|39=0|54=1|55=PETR4|150=2|151=0|453=0|10=087|8=FIX.4.4|9=196|35=8|34=404|49=SERVER_A|52=20230405-20:15:03.533|56=CLIENT_X|1=123|6=25|14=100|17=0f50b085-3145-4b15-b180-14778d5a45bb|37=8ed372fd-37a4-40ad-ba7f-b6b1df50ba8f|39=0|54=1|55=PETR4|150=2|151=0|453=0|10=160|8=FIX.4.4|9=196|35=8|34=405|49=SERVER_A|52=20230405-20:15:03.536|56=CLIENT_X|1=123|6=25|14=100|17=f78087e4-4450-42c9-be2c-dd79b72b1568|37=1f72db20-8893-423d-949a-ffdc93a02105|39=0|54=1|55=PETR4|150=2|151=0|453=0|10=219|8=FIX.4.4|9=196|35=8|34=406|49=SERVER_A|52=20230405-20:15:03.543|56=CLIENT_X|1=123|6=25|14=100|17=35298722-cc2e-4db0-b0f4-4f6d77adfff0|37=df2778e1-d7ec-492b-ad2d-3eded8dcfe27|39=0|54=1|55=PETR4|150=2|151=0|453=0|10=026|8=FIX.4.4|9=196|35=8|34=407|49=SERVER_A|52=20230405-20:15:03.545|56=CLIENT_X|1=123|6=25|14=100|17=b4200072-4ea2-4d61-881d-1a85ee8f5c7a|37=947bc44f-9f92-4cc2-8774-ebf1010406dd|39=0|54=1|55=PETR4|150=2|151=0|453=0|10=044|8=FIX.4.4|9=196|35=8|34=408|49=SERVER_A|52=20230405-20:15:03.547|56=CLIENT_X|1=123|6=25|14=100|17=22186489-2115-420b-a0bf-983c7568db64|37=e28e18f4-07a0-4387-bb03-8660cf6763a9|39=0|54=1|55=PETR4|150=2|151=0|453=0|10=027|8=FIX.4.4|9=196|35=8|34=409|49=SERVER_A|52=20230405-20:15:03.550|56=CLIENT_X|1=123|6=25|14=100|17=7d15d08f-c13e-4774-befa-6538a0d27d95|37=456174d8-cc43-4c51-ade7-62ab0ccd410d|39=0|54=1|55=PETR4|150=2|151=0|453=0|10=179|8=FIX.4.4|9=196|35=8|34=410|49=SERVER_A|52=20230405-20:15:03.551|56=CLIENT_X|1=123|6=25|14=100|17=8bc1e0f3-5116-4eca-87a3-8d05d7cc8f38|37=eed326ed-af84-424a-8764-8630f4298961|39=0|54=1|55=PETR4|150=2|151=0|453=0|10=062|8=FIX.4.4|9=196|35=8|34=411|49=SERVER_A|52=20230405-20:15:03.559|56=CLIENT_X|1=123|6=25|14=100|17=8bb65f87-b573-42b7-bb99-5e368fbb0101|37=888275cb-b4f6-471a-953d-8118363a2c71|39=0|54=1|55=PETR4|150=2|151=0|453=0|10=176|8=FIX.4.4|9=196|35=8|34=412|49=SERVER_A|52=20230405-20:15:03.563|56=CLIENT_X|1=123|6=25|14=100|17=c0e906b9-62fc-44d0-9b73-5a3532e3a426|37=7861b2b4-c55e-4555-ad86-d41c778fcc40|39=0|54=1|55=PETR4|150=2|151=0|453=0|10=254|8=FIX.4.4|9=196|35=8|34=413|49=SERVER_A|52=20230405-20:15:03.565|56=CLIENT_X|1=123|6=25|14=100|17=783f76df-04ba-4977-a204-5529e737d597|37=db0c6d83-2d58-4e54-b97f-d37a5a729639|39=0|54=1|55=PETR4|150=2|151=0|453=0|10=203|8=FIX.4.4|9=196|35=8|34=414|49=SERVER_A|52=20230405-20:15:03.567|56=CLIENT_X|1=123|6=25|14=100|17=4d304dd1-e03f-4662-9637-b121518ae31f|37=2f5131a4-25a3-4d34-936b-348e5e8adc72|39=0|54=1|55=PETR4|150=2|151=0|453=0|10=143|8=FIX.4.4|9=196|35=8|34=415|49=SERVER_A|52=20230405-20:15:03.573|56=CLIENT_X|1=123|6=25|14=100|17=02936a74-09a7-48e6-95e8-cfbf97ae4c03|37=ecdcacde-3665-48b1-8116-76c44fa6be25|39=0|54=1|55=PETR4|150=2|151=0|453=0|10=210|8=FIX.4.4|9=196|35=8|34=416|49=SERVER_A|52=20230405-20:15:03.576|56=CLIENT_X|1=123|6=25|14=100|17=dc613932-8ce5-4eb6-a5d6-eccb899b39de|37=cbce40f2-9d76-49cf-b744-e9ff7a305730|39=0|54=1|55=PETR4|150=2|151=0|453=0|10=113|8=FIX.4.4|9=196|35=8|34=417|49=SERVER_A|52=20230405-20:15:03.579|56=CLIENT_X|1=123|6=25|14=100|17=e9a8b731-7039-436b-8f3a-6c717d4e9c21|37=fd8f7eaf-6f91-462f-b2fd-25538bbc2dc4|39=0|54=1|55=PETR4|150=2|151=0|453=0|10=012|8=FIX.4.4|9=196|35=8|34=418|49=SERVER_A|52=20230405-20:15:03.582|56=CLIENT_X|1=123|6=25|14=100|17=d8aa02a6-69cd-48e0-a35a-2445364a52f2|37=b744dab8-0b3a-420b-a6fd-48d57d07720d|39=0|54=1|55=PETR4|150=2|151=0|453=0|10=118|8=FIX.4.4|9=196|35=8|34=419|49=SERVER_A|52=20230405-20:15:03.583|56=CLIENT_X|1=123|6=25|14=100|17=8c973ef4-68c8-4983-899c-e3dd5ada7228|37=61502b9d-d764-4f9e-929c-e700db9ac7dd|39=0|54=1|55=PETR4|150=2|151=0|453=0|10=201|8=FIX.4.4|9=196|35=8|34=420|49=SERVER_A|52=20230405-20:15:03.592|56=CLIENT_X|1=123|6=25|14=100|17=9969766b-48d7-4c7c-9490-fc46093be8bb|37=92edcbe9-5c31-4b5a-a55e-c503f7fb90cc|39=0|54=1|55=PETR4|150=2|151=0|453=0|10=013|8=FIX.4.4|9=196|35=8|34=421|49=SERVER_A|52=20230405-20:15:03.594|56=CLIENT_X|1=123|6=25|14=100|17=3f310f6e-3079-4bb2-b0e3-62c28f7767c6|37=2a8d9ee9-13f2-4e58-acbb-685803f9bf7f|39=0|54=1|55=PETR4|150=2|151=0|453=0|10=167|8=FIX.4.4|9=196|35=8|34=422|49=SERVER_A|52=20230405-20:15:03.596|56=CLIENT_X|1=123|6=25|14=100|17=1e78a828-125a-4750-b94a-da6d6c411689|37=19e19522-6aab-4cd7-93d4-f28ae287c638|39=0|54=1|55=PETR4|150=2|151=0|453=0|10=226|8=FIX.4.4|9=196|35=8|34=423|49=SERVER_A|52=20230405-20:15:03.598|56=CLIENT_X|1=123|6=25|14=100|17=91f346b6-9054-42d2-a21c-b430bdd20056|37=bf7ff194-a362-4519-8725-2139b1db063c|39=0|54=1|55=PETR4|150=2|151=0|453=0|10=094|8=FIX.4.4|9=196|35=8|34=424|49=SERVER_A|52=20230405-20:15:03.604|56=CLIENT_X|1=123|6=25|14=100|17=a2ee7110-5bfc-41d4-b12c-64f7b18c1478|37=34b9b85f-489f-4f88-bedd-bd285fb74635|39=0|54=1|55=PETR4|150=2|151=0|453=0|10=204|8=FIX.4.4|9=196|35=8|34=425|49=SERVER_A|52=20230405-20:15:03.608|56=CLIENT_X|1=123|6=25|14=100|17=f76ca4dd-671e-46a9-b8a6-9ef26000b817|37=9383e276-4d27-4f99-b1f0-56d115d9de93|39=0|54=1|55=PETR4|150=2|151=0|453=0|10=030|8=FIX.4.4|9=196|35=8|34=426|49=SERVER_A|52=20230405-20:15:03.610|56=CLIENT_X|1=123|6=25|14=100|17=8d895362-d5f9-4b24-a17d-eb2d26532ee0|37=de25cf8d-9b78-4837-9c1d-4d2b8ae5bf48|39=0|54=1|55=PETR4|150=2|151=0|453=0|10=214|8=FIX.4.4|9=196|35=8|34=427|49=SERVER_A|52=20230405-20:15:03.612|56=CLIENT_X|1=123|6=25|14=100|17=6da9450b-648f-4e17-a21e-972d88185350|37=23f306d7-927e-4303-906d-e17e8e11430d|39=0|54=1|55=PETR4|150=2|151=0|453=0|10=021|8=FIX.4.4|9=196|35=8|34=428|49=SERVER_A|52=20230405-20:15:03.618|56=CLIENT_X|1=123|6=25|14=100|17=ecc8aa62-4399-4117-ab27-d37fd42be9d7|37=0d70b14d-5a24-488f-a4c1-f9e0f72e1801|39=0|54=1|55=PETR4|150=2|151=0|453=0|10=143|8=FIX.4.4|9=196|35=8|34=429|49=SERVER_A|52=20230405-20:15:03.622|56=CLIENT_X|1=123|6=25|14=100|17=da5c279d-f2bb-4ab9-99a3-0fd81bef42a6|37=28449e2a-3476-4280-a7c9-5929679de930|39=0|54=1|55=PETR4|150=2|151=0|453=0|10=075|8=FIX.4.4|9=196|35=8|34=430|49=SERVER_A|52=20230405-20:15:03.624|56=CLIENT_X|1=123|6=25|14=100|17=41908232-d69d-451f-99f8-95282ca2b98c|37=ff410886-c82d-468b-bb32-5dec93b01b16|39=0|54=1|55=PETR4|150=2|151=0|453=0|10=222|8=FIX.4.4|9=196|35=8|34=431|49=SERVER_A|52=20230405-20:15:03.627|56=CLIENT_X|1=123|6=25|14=100|17=d072d44b-66e9-4b3c-bef2-3ed686660d44|37=60ac037c-5258-4257-b359-c8118e85e1c9|39=0|54=1|55=PETR4|150=2|151=0|453=0|10=219|8=FIX.4.4|9=196|35=8|34=432|49=SERVER_A|52=20230405-20:15:03.629|56=CLIENT_X|1=123|6=25|14=100|17=e750aa4d-47ce-4192-9be9-0af26c4fb27a|37=6267faba-0f0e-4845-a6d6-19709afb3e37|39=0|54=1|55=PETR4|150=2|151=0|453=0|10=241|8=FIX.4.4|9=196|35=8|34=433|49=SERVER_A|52=20230405-20:15:03.635|56=CLIENT_X|1=123|6=25|14=100|17=bb387557-b6c0-4fbb-828f-235c7466fd99|37=c49274ec-3a9d-4abe-a9a9-293b1268674a|39=0|54=1|55=PETR4|150=2|151=0|453=0|10=124|8=FIX.4.4|9=196|35=8|34=434|49=SERVER_A|52=20230405-20:15:03.639|56=CLIENT_X|1=123|6=25|14=100|17=84618955-0396-43be-8314-75855c0d7299|37=f1f3a0cc-a242-45f0-b8a2-b1141d7c6190|39=0|54=1|55=PETR4|150=2|151=0|453=0|10=017|8=FIX.4.4|9=196|35=8|34=435|49=SERVER_A|52=20230405-20:15:03.641|56=CLIENT_X|1=123|6=25|14=100|17=c9e9a8ca-5a27-4403-8f68-03067d434486|37=8c53d7f2-65d4-442c-a46c-fa7eb63d6365|39=0|54=1|55=PETR4|150=2|151=0|453=0|10=226|8=FIX.4.4|9=196|35=8|34=436|49=SERVER_A|52=20230405-20:15:03.643|56=CLIENT_X|1=123|6=25|14=100|17=9da01e55-9ba4-462c-afa9-05313b78c5a4|37=90715587-431d-4acb-b9cd-ade995216ffd|39=0|54=1|55=PETR4|150=2|151=0|453=0|10=193|8=FIX.4.4|9=196|35=8|34=437|49=SERVER_A|52=20230405-20:15:03.650|56=CLIENT_X|1=123|6=25|14=100|17=d208d47b-04c6-493a-9d44-7c130a32b459|37=2d5683bb-609a-4fe4-8d8d-0c7b769e8aa4|39=0|54=1|55=PETR4|150=2|151=0|453=0|10=054|8=FIX.4.4|9=196|35=8|34=438|49=SERVER_A|52=20230405-20:15:03.654|56=CLIENT_X|1=123|6=25|14=100|17=fd4709ef-8f16-4e77-85c3-8fc80f1c36ee|37=d7c7bc41-b25e-4d39-9416-abbce8c491b8|39=0|54=1|55=PETR4|150=2|151=0|453=0|10=068|8=FIX.4.4|9=196|35=8|34=439|49=SERVER_A|52=20230405-20:15:03.657|56=CLIENT_X|1=123|6=25|14=100|17=c12b1fe8-a651-4343-b175-4ba3bce38a43|37=0f9c2c86-6cb7-4595-93f7-cb9fe6597452|39=0|54=1|55=PETR4|150=2|151=0|453=0|10=072|8=FIX.4.4|9=196|35=8|34=440|49=SERVER_A|52=20230405-20:15:03.660|56=CLIENT_X|1=123|6=25|14=100|17=f60451a5-7a8f-44b9-8134-f3e9c0f0693e|37=564ab80b-d5e0-4698-b817-8f5f4fd12272|39=0|54=1|55=PETR4|150=2|151=0|453=0|10=223|8=FIX.4.4|9=196|35=8|34=441|49=SERVER_A|52=20230405-20:15:03.665|56=CLIENT_X|1=123|6=25|14=100|17=147443df-fee1-4e88-abeb-3c7d9407cc96|37=a7ffa9fb-54ad-40a5-9fa2-7d4ea9a5be27|39=0|54=1|55=PETR4|150=2|151=0|453=0|10=240|8=FIX.4.4|9=196|35=8|34=442|49=SERVER_A|52=20230405-20:15:03.668|56=CLIENT_X|1=123|6=25|14=100|17=e2e154d5-529f-47bb-92dd-35d37972a6b2|37=ca81ff52-35c0-4110-bef3-568278702f70|39=0|54=1|55=PETR4|150=2|151=0|453=0|10=214|8=FIX.4.4|9=196|35=8|34=443|49=SERVER_A|52=20230405-20:15:03.671|56=CLIENT_X|1=123|6=25|14=100|17=6627456e-1c9c-488e-b5c6-e40e2406a9b6|37=deb7f2c7-8f7c-4d40-8e1d-023b6ac6322b|39=0|54=1|55=PETR4|150=2|151=0|453=0|10=148|8=FIX.4.4|9=196|35=8|34=444|49=SERVER_A|52=20230405-20:15:03.673|56=CLIENT_X|1=123|6=25|14=100|17=5fdb9c51-3a0b-4ccd-9857-0a93e0ed183d|37=325260a4-ba8a-4a20-a86a-3075e0dffbbc|39=0|54=1|55=PETR4|150=2|151=0|453=0|10=051|8=FIX.4.4|9=196|35=8|34=445|49=SERVER_A|52=20230405-20:15:03.676|56=CLIENT_X|1=123|6=25|14=100|17=9af049eb-59c7-48c3-a4c4-3099ef64d849|37=db023a77-5f5f-4b1e-8571-2c372bdfa108|39=0|54=1|55=PETR4|150=2|151=0|453=0|10=120|8=FIX.4.4|9=196|35=8|34=446|49=SERVER_A|52=20230405-20:15:03.682|56=CLIENT_X|1=123|6=25|14=100|17=cfe7af0c-874f-4cf4-b816-5776c08241a4|37=a1b75d9d-f007-4238-a166-6eb20a465719|39=0|54=1|55=PETR4|150=2|151=0|453=0|10=008|8=FIX.4.4|9=196|35=8|34=447|49=SERVER_A|52=20230405-20:15:03.684|56=CLIENT_X|1=123|6=25|14=100|17=145be902-578d-45f7-8e61-e250d14af63f|37=6ca05826-d56a-46c7-bfff-b48e913bb854|39=0|54=1|55=PETR4|150=2|151=0|453=0|10=121|8=FIX.4.4|9=196|35=8|34=448|49=SERVER_A|52=20230405-20:15:03.687|56=CLIENT_X|1=123|6=25|14=100|17=6f09e6b7-099a-49d0-a38e-81d5ab1618ba|37=47ef3e8a-2617-4ccc-a5b9-a728bd8bb073|39=0|54=1|55=PETR4|150=2|151=0|453=0|10=001|8=FIX.4.4|9=196|35=8|34=449|49=SERVER_A|52=20230405-20:15:03.690|56=CLIENT_X|1=123|6=25|14=100|17=80b76c84-b259-4377-ad35-36dccb8d4a61|37=8f3f40d0-0ecb-4ca8-9eb8-bd3e2c5931c9|39=0|54=1|55=PETR4|150=2|151=0|453=0|10=252|8=FIX.4.4|9=196|35=8|34=450|49=SERVER_A|52=20230405-20:15:03.697|56=CLIENT_X|1=123|6=25|14=100|17=cf36d94c-be36-46ad-a4cb-68d609fe1cb8|37=d9c6179b-8498-4242-bbc4-a0b604a8f2d8|39=0|54=1|55=PETR4|150=2|151=0|453=0|10=050|8=FIX.4.4|9=196|35=8|34=451|49=SERVER_A|52=20230405-20:15:03.700|56=CLIENT_X|1=123|6=25|14=100|17=703a0c7b-6830-4050-bde1-1ce5632a2f68|37=83ea4eaf-cc64-403c-b967-1f0418e6af38|39=0|54=1|55=PETR4|150=2|151=0|453=0|10=069|8=FIX.4.4|9=196|35=8|34=452|49=SERVER_A|52=20230405-20:15:03.706|56=CLIENT_X|1=123|6=25|14=100|17=da5a6a1d-f859-4d5d-b75d-d31a770dc5c2|37=70ab41e0-b3a9-4269-9eaf-6bcaa25bce81|39=0|54=1|55=PETR4|150=2|151=0|453=0|10=157|8=FIX.4.4|9=196|35=8|34=453|49=SERVER_A|52=20230405-20:15:03.712|56=CLIENT_X|1=123|6=25|14=100|17=fbca1df9-f427-4f20-b465-fe29cf000ed0|37=2f182cb4-3ff4-4a4e-b2b8-d41cbc3573c4|39=0|54=1|55=PETR4|150=2|151=0|453=0|10=102|8=FIX.4.4|9=196|35=8|34=454|49=SERVER_A|52=20230405-20:15:03.716|56=CLIENT_X|1=123|6=25|14=100|17=1796f2eb-38fa-4d54-b205-ab58390ddbcb|37=4f004f0b-4a59-452d-b222-4b050663e888|39=0|54=1|55=PETR4|150=2|151=0|453=0|10=034|8=FIX.4.4|9=196|35=8|34=455|49=SERVER_A|52=20230405-20:15:03.719|56=CLIENT_X|1=123|6=25|14=100|17=29e25191-bfbe-4511-a59d-d53e363aafac|37=4172a475-27db-4345-bb89-73403bfdb8b2|39=0|54=1|55=PETR4|150=2|151=0|453=0|10=136|8=FIX.4.4|9=196|35=8|34=456|49=SERVER_A|52=20230405-20:15:03.727|56=CLIENT_X|1=123|6=25|14=100|17=bd2e9396-39cf-42f7-8b90-09a0d45f6325|37=02f120d4-91b5-4c92-aef5-58ab4df339b9|39=0|54=1|55=PETR4|150=2|151=0|453=0|10=065|8=FIX.4.4|9=196|35=8|34=457|49=SERVER_A|52=20230405-20:15:03.729|56=CLIENT_X|1=123|6=25|14=100|17=fedf5be4-362c-4690-95e1-b44603bd0c94|37=ba607570-1723-42b9-bf47-cb595d26fc03|39=0|54=1|55=PETR4|150=2|151=0|453=0|10=053|8=FIX.4.4|9=196|35=8|34=458|49=SERVER_A|52=20230405-20:15:03.733|56=CLIENT_X|1=123|6=25|14=100|17=060a1a38-6359-45e4-9327-5614b64c60c0|37=53e1692d-1f6f-45fc-bddb-546d815d9beb|39=0|54=1|55=PETR4|150=2|151=0|453=0|10=006|8=FIX.4.4|9=196|35=8|34=459|49=SERVER_A|52=20230405-20:15:03.737|56=CLIENT_X|1=123|6=25|14=100|17=2792d789-227f-472f-aac5-0bc6c7c82329|37=52ad9a0f-f6ed-4a3b-9797-d6d917a7de30|39=0|54=1|55=PETR4|150=2|151=0|453=0|10=178|8=FIX.4.4|9=196|35=8|34=460|49=SERVER_A|52=20230405-20:15:03.745|56=CLIENT_X|1=123|6=25|14=100|17=281a6e16-6a60-4052-a9e9-83df844302c7|37=24528954-1b05-4c2f-98c8-1ff71ac219f3|39=0|54=1|55=PETR4|150=2|151=0|453=0|10=071|8=FIX.4.4|9=196|35=8|34=461|49=SERVER_A|52=20230405-20:15:03.748|56=CLIENT_X|1=123|6=25|14=100|17=164972b4-9233-4d36-b44e-78903094f9af|37=8f065d21-0be1-42b0-b685-bbc51b31237c|39=0|54=1|55=PETR4|150=2|151=0|453=0|10=106|8=FIX.4.4|9=196|35=8|34=462|49=SERVER_A|52=20230405-20:15:03.750|56=CLIENT_X|1=123|6=25|14=100|17=f60db2e0-1b5a-4cac-8830-4fde34ceaf09|37=caca1df9-aa72-4510-9baa-b3ce05f21975|39=0|54=1|55=PETR4|150=2|151=0|453=0|10=187|8=FIX.4.4|9=196|35=8|34=463|49=SERVER_A|52=20230405-20:15:03.752|56=CLIENT_X|1=123|6=25|14=100|17=558db2d6-3457-40e6-bc4b-e9eacc9cd53c|37=ef596931-0ea8-453c-825c-e58fd9d1f886|39=0|54=1|55=PETR4|150=2|151=0|453=0|10=021|8=FIX.4.4|9=196|35=8|34=464|49=SERVER_A|52=20230405-20:15:03.760|56=CLIENT_X|1=123|6=25|14=100|17=058f3845-eff8-49be-827b-8d072a8bcd3b|37=da49ed03-ccab-49b8-a214-51e0ebf8c296|39=0|54=1|55=PETR4|150=2|151=0|453=0|10=091|8=FIX.4.4|9=196|35=8|34=465|49=SERVER_A|52=20230405-20:15:03.764|56=CLIENT_X|1=123|6=25|14=100|17=1187f2ec-a653-4f28-95cb-ee78a44c5e05|37=e15716a1-8ae5-4bda-a0dd-c260af18225f|39=0|54=1|55=PETR4|150=2|151=0|453=0|10=234|8=FIX.4.4|9=196|35=8|34=466|49=SERVER_A|52=20230405-20:15:03.766|56=CLIENT_X|1=123|6=25|14=100|17=59bc66ae-b17f-4442-a6bd-e0bf1cad5e2f|37=a9ddb4b6-ae55-4648-a876-6021913b75e1|39=0|54=1|55=PETR4|150=2|151=0|453=0|10=036|8=FIX.4.4|9=196|35=8|34=467|49=SERVER_A|52=20230405-20:15:03.768|56=CLIENT_X|1=123|6=25|14=100|17=eaa8c2ba-9c95-41f7-932a-410f656af5c1|37=9339f203-3588-4b24-91bd-ac9244a21de1|39=0|54=1|55=PETR4|150=2|151=0|453=0|10=051|8=FIX.4.4|9=196|35=8|34=468|49=SERVER_A|52=20230405-20:15:03.776|56=CLIENT_X|1=123|6=25|14=100|17=d2de22ea-ac43-401f-9641-5a087f652d4e|37=131978b2-f882-49dd-ada9-cc7647dfebc3|39=0|54=1|55=PETR4|150=2|151=0|453=0|10=003|8=FIX.4.4|9=196|35=8|34=469|49=SERVER_A|52=20230405-20:15:03.778|56=CLIENT_X|1=123|6=25|14=100|17=ddd6a563-849c-4985-85bc-439bb9641a1a|37=905e8b17-7035-4e44-a860-9682d59d73b2|39=0|54=1|55=PETR4|150=2|151=0|453=0|10=157|8=FIX.4.4|9=196|35=8|34=470|49=SERVER_A|52=20230405-20:15:03.779|56=CLIENT_X|1=123|6=25|14=100|17=d6091213-e32c-4ec1-b75f-de690846dc9c|37=41074bd1-2479-4cb5-b1fc-a9ad888fbc1c|39=0|54=1|55=PETR4|150=2|151=0|453=0|10=247|8=FIX.4.4|9=196|35=8|34=471|49=SERVER_A|52=20230405-20:15:03.781|56=CLIENT_X|1=123|6=25|14=100|17=4a546bf5-7466-4864-b681-0a2b55026dad|37=2180e1f8-cddc-4a25-8c30-9c24cd667f13|39=0|54=1|55=PETR4|150=2|151=0|453=0|10=251|8=FIX.4.4|9=196|35=8|34=472|49=SERVER_A|52=20230405-20:15:03.784|56=CLIENT_X|1=123|6=25|14=100|17=93f2454e-93ca-4c53-827e-85125fe3eee8|37=15c0b6bb-b7d2-407f-ba05-f8eb300f680c|39=0|54=1|55=PETR4|150=2|151=0|453=0|10=196|8=FIX.4.4|9=196|35=8|34=473|49=SERVER_A|52=20230405-20:15:03.791|56=CLIENT_X|1=123|6=25|14=100|17=c50b31a6-5f77-42f4-a1e2-0c64e9de0cb4|37=46530a25-6d2e-4b05-b474-011bc2eecee2|39=0|54=1|55=PETR4|150=2|151=0|453=0|10=159|8=FIX.4.4|9=196|35=8|34=474|49=SERVER_A|52=20230405-20:15:03.794|56=CLIENT_X|1=123|6=25|14=100|17=f98152a4-b322-4a50-ba89-87a6b5d1c749|37=380ac042-c5d1-439b-a782-b6f62dd83133|39=0|54=1|55=PETR4|150=2|151=0|453=0|10=208|8=FIX.4.4|9=196|35=8|34=475|49=SERVER_A|52=20230405-20:15:03.797|56=CLIENT_X|1=123|6=25|14=100|17=28921f18-fd23-4e31-b3c4-718c8d31aafe|37=db7b8c54-551b-457f-9621-fe4a76b0431a|39=0|54=1|55=PETR4|150=2|151=0|453=0|10=103|8=FIX.4.4|9=196|35=8|34=476|49=SERVER_A|52=20230405-20:15:03.800|56=CLIENT_X|1=123|6=25|14=100|17=6e62d900-82f7-4472-9482-e12f7d57b55b|37=d00f5a55-5579-4f5b-b225-2dab2a23ecc9|39=0|54=1|55=PETR4|150=2|151=0|453=0|10=003|8=FIX.4.4|9=196|35=8|34=477|49=SERVER_A|52=20230405-20:15:03.806|56=CLIENT_X|1=123|6=25|14=100|17=5b4d2696-b197-4691-b4eb-236d5eda6722|37=a0eaf0bd-ab32-447b-ae4e-63b45d29041a|39=0|54=1|55=PETR4|150=2|151=0|453=0|10=176|8=FIX.4.4|9=196|35=8|34=478|49=SERVER_A|52=20230405-20:15:03.809|56=CLIENT_X|1=123|6=25|14=100|17=3c4808de-aa50-4bf6-ac59-7608f388a85e|37=7c49e5ba-be91-4ddd-9dfb-422f62056a66|39=0|54=1|55=PETR4|150=2|151=0|453=0|10=014|8=FIX.4.4|9=196|35=8|34=479|49=SERVER_A|52=20230405-20:15:03.812|56=CLIENT_X|1=123|6=25|14=100|17=ba646de6-9d75-4c99-b882-ba7a5d8c616f|37=6e7c81dc-1487-4e51-81af-0f2bfbebbc70|39=0|54=1|55=PETR4|150=2|151=0|453=0|10=105|8=FIX.4.4|9=196|35=8|34=480|49=SERVER_A|52=20230405-20:15:03.814|56=CLIENT_X|1=123|6=25|14=100|17=b37c5445-6134-4df8-91c9-fa9de3e3e486|37=093136db-27e9-44ba-a401-4622db323a6d|39=0|54=1|55=PETR4|150=2|151=0|453=0|10=253|8=FIX.4.4|9=196|35=8|34=481|49=SERVER_A|52=20230405-20:15:03.823|56=CLIENT_X|1=123|6=25|14=100|17=62bfa46d-cfff-41e5-a468-e528333164bb|37=b3c118c0-c542-410b-b829-833250497061|39=0|54=1|55=PETR4|150=2|151=0|453=0|10=142|8=FIX.4.4|9=196|35=8|34=482|49=SERVER_A|52=20230405-20:15:03.826|56=CLIENT_X|1=123|6=25|14=100|17=e4f47dcb-d60e-4e97-bab2-5b6af5d3bd2f|37=d630d9eb-bc42-438c-a8de-b487c838004d|39=0|54=1|55=PETR4|150=2|151=0|453=0|10=228|8=FIX.4.4|9=196|35=8|34=483|49=SERVER_A|52=20230405-20:15:03.828|56=CLIENT_X|1=123|6=25|14=100|17=066d6d89-374b-4784-8ec7-f7781e6a0a57|37=bda4074b-16d2-427a-9be7-25ce3dff3222|39=0|54=1|55=PETR4|150=2|151=0|453=0|10=072|8=FIX.4.4|9=196|35=8|34=484|49=SERVER_A|52=20230405-20:15:03.830|56=CLIENT_X|1=123|6=25|14=100|17=c7aa92d1-e6c6-4ea1-b196-08646dde173e|37=18a7c4e1-2639-4cdb-8d74-950e5ea84f85|39=0|54=1|55=PETR4|150=2|151=0|453=0|10=163|8=FIX.4.4|9=196|35=8|34=485|49=SERVER_A|52=20230405-20:15:03.840|56=CLIENT_X|1=123|6=25|14=100|17=878f3c7c-9c50-4108-95b9-cd50277e9130|37=aba0df46-2b7f-4488-8ee6-810d45a885c5|39=0|54=1|55=PETR4|150=2|151=0|453=0|10=239|8=FIX.4.4|9=196|35=8|34=486|49=SERVER_A|52=20230405-20:15:03.842|56=CLIENT_X|1=123|6=25|14=100|17=ef8a921d-6160-4949-a93b-c5024def44c1|37=e4657008-aaba-47ce-bdf6-8354a06f70ca|39=0|54=1|55=PETR4|150=2|151=0|453=0|10=191|8=FIX.4.4|9=196|35=8|34=487|49=SERVER_A|52=20230405-20:15:03.845|56=CLIENT_X|1=123|6=25|14=100|17=3417f3bd-3a87-481a-84bc-689f89058ac2|37=f9756604-3aa2-4086-aeef-d3e747a15e7d|39=0|54=1|55=PETR4|150=2|151=0|453=0|10=082|8=FIX.4.4|9=196|35=8|34=488|49=SERVER_A|52=20230405-20:15:03.850|56=CLIENT_X|1=123|6=25|14=100|17=9f1d6bbe-f3c6-48ea-8cab-9a38acaf59fa|37=6e626df4-70c8-4512-93a3-22512dfc4acd|39=0|54=1|55=PETR4|150=2|151=0|453=0|10=184|8=FIX.4.4|9=196|35=8|34=489|49=SERVER_A|52=20230405-20:15:03.852|56=CLIENT_X|1=123|6=25|14=100|17=cd495e31-db52-4c06-b154-b8957504e00f|37=ac1c1ec7-ac53-4714-87ea-4f6f9d830571|39=0|54=1|55=PETR4|150=2|151=0|453=0|10=054|8=FIX.4.4|9=196|35=8|34=490|49=SERVER_A|52=20230405-20:15:03.855|56=CLIENT_X|1=123|6=25|14=100|17=5f375620-75f1-4db8-826a-8dbb2abd8991|37=cd7236bc-9246-4831-a7ff-0b3f6e4719d8|39=0|54=1|55=PETR4|150=2|151=0|453=0|10=076|8=FIX.4.4|9=196|35=8|34=491|49=SERVER_A|52=20230405-20:15:03.858|56=CLIENT_X|1=123|6=25|14=100|17=4c550b54-467c-4f05-a34d-63fde42f7255|37=c1994dac-fd6f-401e-ae1a-6322237e940f|39=0|54=1|55=PETR4|150=2|151=0|453=0|10=099|8=FIX.4.4|9=196|35=8|34=492|49=SERVER_A|52=20230405-20:15:03.860|56=CLIENT_X|1=123|6=25|14=10